:020000040800F2
:10000000B02800209D010008192500081B250008C4
:100010001F250008232500082725000800000000F0
:1000200000000000000000000000000005010008C2
:100030002B25000800000000490100082D250008BC
:10004000B7010008B7010008B7010008B7010008B0
:10005000B7010008B7010008B7010008B7010008A0
:10006000B7010008B7010008B7010008B701000890
:10007000B7010008B7010008B7010008B701000880
:10008000B7010008B7010008B7010008B701000870
:10009000B7010008B7010008B7010008B701000860
:1000A000B7010008B7010008B7010008B701000850
:1000B000B7010008B7010008B7010008B701000840
:1000C000B7010008B7010008B7010008B701000830
:1000D000B7010008B7010008B7010008B701000820
:1000E000990C0008B7010008B7010008DFF810D02C
:1000F00006F004F800480047E7230008AFF300804B
:10010000B0280020224B19680868B0E8F00F80F38F
:100110000988BFF36F8F4FF0000080F311884EF015
:100120000D0E70470000000006480068006880F36C
:10013000088862B661B6BFF34F8FBFF36F8F00DFE1
:1001400000BF00BF08ED00E0EFF30980BFF36F8F41
:100150000F4B1A6820E9F00F106008B54FF05000FF
:1001600080F31188BFF34F8FBFF36F8F04F0BBFB99
:100170004FF0000080F31188BDE808401968086856
:10018000B0E8F00F80F30988BFF36F8F704700BFAE
:10019000DC000020EFF30580704700000648804730
:1001A00006480047FEE7FEE7FEE7FEE7FEE7FEE75C
:1001B000FEE7FEE7FEE7FEE79F020008ED0000080D
:1001C0000CB50020019000906C48006840F480302D
:1001D0006A49086000BF6948006800F40030009078
:1001E0000198401C0190009818B90198B0F5A06FD3
:1001F000F1D16248006800F4003010B10120009095
:1002000001E0002000900098012843D15C4800687C
:1002100040F010005A4908600846006820F00300CA
:1002200008600846006840F00200086053484068D3
:10023000524948600846406848600846406840F4B3
:10024000806048600846406820F47C10486008469A
:10025000406840F4E81048600846006840F080704C
:10026000086000BF4548006800F000700028F9D021
:100270004248406820F00300404948600846406812
:1002800040F00200486000BF3C48406800F00C00AD
:100290000828F9D10CBD10B5FFF792FF10BD10B5BD
:1002A0003648006840F0010034490860084640685C
:1002B00034490840314948600846006832490840DE
:1002C0002E4908600846006820F48020086008462F
:1002D000406820F4FE0048604FF41F008860FFF77C
:1002E000DAFF4FF000602949086010BD10B5002109
:1002F00000200022214B5B6803F00C0121B104298E
:1003000006D0082928D107E0214B224C236027E0A2
:100310001F4B204C236023E0184B5B6803F47010E4
:10032000164B5B6803F48032022303EB904022B942
:10033000194B4343174C23600DE0104B5B6803F4EB
:10034000003323B1144B4343124C236003E0104BA2
:100350004343104C236003E00D4B0E4C236000BF61
:1003600000BF064B5B68C3F303130C4CE15C094B05
:100370001B68CB40074C236010BD000000100240FA
:10038000002002400000FFF8FFFFF6FE08ED00E04D
:1003900000127A000000002000093D000400002047
:1003A00031490143314A1160704770B50021002383
:1003B0000F22C47804B32D4C246804F4E064C4F51F
:1003C000E064210AC1F10403CA40447804FA03F14D
:1003D0008478144021430901254C0678A1550478FE
:1003E00004F01F050124AC4005786D11AD0005F146
:1003F000E025C5F8004109E0047804F01F05012458
:10040000AC401C4D0678761145F8264070BD1A4A5E
:100410000A400243154B1B1F1A60704739B1134A3B
:10042000121D12680243114B1B1D1A6006E00F4A91
:10043000121D126882430D4B1B1D1A607047042861
:1004400008D14FF0E021096941F004014FF0E022AA
:10045000116107E04FF0E021096921F004014FF03C
:10046000E0221161704700000000FA050CED00E089
:1004700000E400E080E100E080FFFF1F002044492D
:100480000860091D0860091D0860091D08604148D1
:100490003F4914310860704700213D498279002AA4
:1004A0003AD00A46126803689A430B461A600A1D3E
:1004B000126803689A430B1D1A60027911440A6896
:1004C00003681A430A60324A0832126803689A4382
:1004D0002F4B08331A601A1D126803689A432C4B7D
:1004E0000C331A604279102A0ED11A1F1268036861
:1004F0001A43274B08331A601A1D126803681A43FF
:10050000234B0C331A600DE02149427911440A68EB
:1005100003681A430A6005E0027911440A68036817
:100520009A430A6070470021016001710C214171FA
:100530000021817170471649103109680143144A3E
:1005400010321160704701460020114A14321268BF
:100550000A400AB1012000E0002070470C49143124
:1005600008607047014600200022094B1B6803EA1F
:100570000102074B14331B680B4013B10AB1012071
:1005800000E0002070470249143108607047000005
:1005900000040140FFFF0F0010B50446CC48844220
:1005A00008D10121042000F02DFB0021042000F0DF
:1005B00029FB46E0C748844208D10121082000F009
:1005C00021FB0021082000F01DFB3AE0C2488442D4
:1005D00008D10121102000F015FB0021102000F0AF
:1005E00011FB2EE0BD48844208D10121202000F0FB
:1005F00009FB0021202000F005FB22E0B8488442DE
:1006000008D10121402000F0FDFA0021402000F037
:10061000F9FA16E0B348844208D10121802000F0A5
:10062000F1FA0021802000F0EDFA0AE0AE488442A1
:1006300007D10121801500F0E5FA0021A01500F096
:10064000E1FA10BD10B50121084600F0DBFA0021E7
:10065000012000F0D7FA10BD2DE9F0410246002537
:100660000026002000230024002791F803C00CF08E
:100670000F0591F803C00CF0100CBCF1000F03D073
:1006800091F802C04CEA050591F800C0BCF1000FDA
:1006900031D0146800202BE04FF0010C0CFA00F36D
:1006A000B1F800C00CEA03069E4220D183004FF04F
:1006B0000F0C0CFA03F7BC4305FA03FC4CEA0404E4
:1006C00091F803C0BCF1280F06D14FF0010C0CFAD1
:1006D00000FCC2F814C00AE091F803C0BCF1480F56
:1006E00005D14FF0010C0CFA00FCC2F810C0401C00
:1006F0000828D1D31460B1F800C0BCF1FF0F34DD7D
:10070000546800202EE000F1080C4FF0010808FAB0
:100710000CF3B1F800C00CEA03069E4221D183001D
:100720004FF00F0C0CFA03F7BC4305FA03FC4CEA3C
:10073000040491F803C0BCF1280F05D100F1080CA6
:1007400008FA0CF8C2F8148091F803C0BCF1480F05
:1007500007D100F1080C4FF0010808FA0CF8C2F8B4
:100760001080401C0828CED35460BDE8F0814FF6BD
:10077000FF710180022181700421C170704702461F
:10078000002093680B400BB1012000E0002070476F
:100790000146886880B2704702460020D3680B404B
:1007A0000BB1012000E0002070470146C86880B20C
:1007B000704701617047416170470AB1016100E013
:1007C00041617047C16070474FF480320A438261D3
:1007D0008161826182698269704702460020434BD1
:1007E00018684FF68073184040EA021008433F4BE8
:1007F000186070473E49C8617047F0B50A4600234B
:1008000000240021002500F00046B6F1004F02D17F
:10081000364EF16901E0354E7168C0F3034583B28D
:1008200000F44016B6F5401F08D121F070612F4E3C
:10083000766826F070662D4F7E6012E000F4801618
:10084000B6F5801F06D1032606FA05F4A14341F050
:10085000706106E0460D360103FA06F6B14341F039
:10086000706122B1460D360103FA06F6314300F0FD
:100870000046B6F1004F02D11C4EF16101E01B4E63
:100880007160F0BD30B500228B071C0F0F2303FAF7
:1008900004F2164B08338C1053F824309343134C56
:1008A00008348D1044F8253023468C1053F824303A
:1008B0008C07240F00FA04F423430C4C08348D10E9
:1008C00044F8253030BD0A49DC310860704700002B
:1008D00000080140000C01400010014000140140DC
:1008E00000180140001C01400020014000000140B0
:1008F00000002042DF48006840F00100DD49086048
:1009000008464068DC490840DA4948600846006803
:10091000DA490840D74908600846006820F480207A
:1009200008600846406820F4FE0048604FF41F004D
:1009300088607047CF49096821F48031CD4A116041
:100940001146096821F480211160B0F5803F03D081
:10095000B0F5802F0ED106E0C649096841F4803118
:10096000C44A116007E0C349096841F4A021C14AA3
:10097000116000E000BF00BF704710B501460022C3
:10098000002300204A11012A02D1BA4C236806E054
:10099000022A02D1B74C236A01E0B64C636A01F027
:1009A0001F02012494401C400CB1012000E00020F3
:1009B00010BD38B5002000900024002500BF312074
:1009C000FFF7DBFF05460098401C00900098B0F54B
:1009D000A06F01D0002DF2D03120FFF7CEFF08B17B
:1009E000012400E00024204638BD01460020A14A31
:1009F000106820F0F80040EAC10010607047A0497C
:100A000008607047024600209A4B586820F47C101A
:100A100042EA01031843974B5860704798490866AB
:100A2000704701460020934A506820F003000843B5
:100A3000506070478F48406800F00C0070470146D6
:100A400000208C4A506820F0F00008435060704746
:100A500001460020874A506820F4E0600843506057
:100A6000704701460020834A506820F4605040EAF5
:100A7000C1005060704729B17E4A527A02437D4BD3
:100A80005A7204E07B4A527A82437A4B5A72704718
:100A90007B49D8310860704701460020754A50688C
:100AA00020F440400843506070470021714A2032D2
:100AB0001170704A82F82010012802D004280AD14F
:100AC00004E001216B4A2032117005E00521694ADA
:100AD0002032117000E000BF00BF70476949086014
:100AE00070476449096A0143624A11627047654967
:100AF00044390860704730B50021002200240023EB
:100B00005C4D6D6805F00C0121B1042905D0082960
:100B100023D105E05C4D056022E05B4D05601FE0E0
:100B2000544D6D6805F47012524D6D6805F48034B3
:100B3000022505EB92421CB9544D554305600BE06C
:100B40004C4D6D6805F400351DB1504D55430560A1
:100B500002E04D4D5543056002E04B4D056000BF7E
:100B600000BF444D6D6805F0F0010909484D6B5C0C
:100B70000568DD4045603F4D6D6805F4E061090A98
:100B8000434D6B5C4568DD4085603A4D6D6805F40A
:100B90006051C90A3E4D6B5C4568DD40C560354D0E
:100BA0006D6805F44041890B3A4D6B5CC568B5FB37
:100BB000F3F5056130BD29B12E4A526902432D4B30
:100BC0005A6104E02B4A526982432A4B5A617047AA
:100BD00029B1284A92690243264B9A6104E0254ACA
:100BE00092698243234B9A61704729B1214AD269A5
:100BF0000243204BDA6104E01E4AD26982431D4B56
:100C0000DA61704729B11B4AD2680243194BDA6096
:100C100004E0184AD2688243164BDA60704729B163
:100C2000144A12690243134B1A6104E0114A126913
:100C30008243104B1A61704712494039086070476F
:100C40000F49C86470470B49C87170470948406A2A
:100C500040F0807007494862704701460020054A0D
:100C600092680A400AB1012000E000207047014963
:100C700088727047001002400000FFF8FFFFF6FE88
:100C8000000042428004424200127A0000093D0006
:100C9000140000202400002008B5002000904FF42C
:100CA0008040FFF75FFCE8B14FF48041F948FFF75F
:100CB00066FD40B9012000900023F74A6946F748D5
:100CC000006802F0EBFE4FF48040FFF75CFCF24856
:100CD000006838B14FF08050F1490860BFF34F8F82
:100CE000BFF36F8F4FF40040FFF73CFCE8B14FF4C7
:100CF0000041E848FFF743FD40B90220009000237F
:100D0000E54A6946E548006802F0C8FE4FF4004035
:100D1000FFF739FCE048006838B14FF08050E049F7
:100D20000860BFF34F8FBFF36F8F08BD0EB54FF054
:100D3000000900BF03F0A1FF029005F00EF902F0D8
:100D40008BF905F02DF9D7488078D7494870D548F8
:100D5000407808704FF47A7003F09CFC6CE100233B
:100D60005A1E1946D148006802F074FDD04890F828
:100D700000A000231A461946CC48006802F020FC67
:100D8000BAF1000F7DD005F0E8F802F065F905F042
:100D900007F9C44890F9068090F9047090F903604F
:100DA00090F9025090F9014090F9059001F062FC31
:100DB000032010212023BF4ACDE90010702182209A
:100DC00001F061FE032010212023BB4ACDE9001071
:100DD00070213C2001F057FE032010212023B74A48
:100DE000CDE900107021822001F04DFE032010217A
:100DF0002023B34ACDE900107021C82001F043FE42
:100E000001201021CDE90010AE480C230821826892
:100E1000282001F038FE01201021CDE90010A9485A
:100E20000C2308210268312001F02DFE0A2098FBD6
:100E3000F0F0A44951F820B0012010210C235A46AB
:100E4000CDE9001008213A2001F01DFE0A2098FB90
:100E5000F0F100FB11809B4951F820B001201021D6
:100E60000C235A46CDE900100821432001F00BFE67
:100E7000012010210C23944ACDE9001008214F20B5
:100E800000E0D3E001F0FFFD0A2097FBF0F08D4970
:100E900051F820B0012010210C235A46CDE9001052
:100EA00008215B2001F0EFFD0A2097FBF0F100FB29
:100EB0001170844951F820B0012010210C235A46AA
:100EC000CDE900100821642001F0DDFD0120102192
:100ED0000C237E4ACDE900100821702001F0D3FDDB
:100EE0000A2096FBF0F0774951F820B0012010213C
:100EF0000C235A46CDE9001008217C2001F0C3FDE7
:100F00000A2096FBF0F100FB11606E4951F820B009
:100F1000012010210C235A46CDE90010082185201C
:100F200001F0B1FD012010210C23694ACDE9001028
:100F30000821912001F0A7FD012010210C23654A12
:100F4000CDE900100821D22001F09DFD01201021E3
:100F50000C23614ACDE900100821E02001F093FD47
:100F600001201021CDE900105C4850F829200C2305
:100F70000821EE2001F087FD0A2095FBF0F058498A
:100F800051F820B00120402121235A46CDE900101C
:100F900028212C2001F077FD0A2095FBF0F100FBC1
:100FA00011504F4951F820B00120402121235A46C9
:100FB000CDE9001028215A2001F065FD012008210B
:100FC0000B46484ACDE900103F218E2001F05BFD21
:100FD000012008210B46434ACDE9001055218E20FF
:100FE00001F051FD0A2094FBF0F03D4951F820B08A
:100FF0000120402121235A46CDE900102821A920B3
:1010000001F041FD0A2094FBF0F100FB114034494E
:1010100051F820B00120402121235A46CDE900108B
:101020002821D72001F02FFD01F0F6FC4EF66021BB
:1010300002A803F0D4FA00BF91E609E02A4800684C
:1010400080F00200284908604FF47A7003F022FB18
:10105000F4E71CB500200090D7E000235A1E01A938
:101060000E48006802F0F6FB0128F5D1142003F0C9
:1010700011FB9DF80400012802D0022870D170E015
:101080004FF480410348FFF77AFB78BB03F0F5FD8E
:10109000044638E0000C0140480000203C000020DD
:1010A00004ED00E0D3000020CC000020440000202C
:1010B0004E0000206A700008AA7000082A7000081C
:1010C0006A71000850000020726F00088A6F0008E3
:1010D000A26F0008BA6F0008D26F0008A0000020BD
:1010E00078000020D26D00080C08014037E003F0C2
:1010F000C4FD001BB0F5487F02D30220009078E0C9
:101100000A2003F0C7FA4FF48041FE48FFF737FB8F
:101110000028ECD001234FF4967201A9FA48006828
:1011200002F098FB012818D1142003F0B3FA9DF8BF
:10113000040001280ED18103F248FFF720FB48B9D3
:101140000320009000231A4601A9EF48006802F02E
:1011500081FB04E00120009001E00120009046E0C6
:1011600042E04FF40041E748FFF709FBA8BB03F05A
:1011700084FD04460BE003F080FD001BB0F5487FC2
:1011800002D30520009034E00A2003F083FA4FF4E4
:101190000041DC48FFF7F3FA0028ECD001234FF4BC
:1011A000967201A9D848006802F054FB012818D1B2
:1011B000142003F06FFA9DF8040002280ED1810379
:1011C000D048FFF7DCFA48B90620009000231A4601
:1011D00001A9CD48006802F03DFB04E00420009026
:1011E00001E00420009002E00020009000BF00BF5A
:1011F00000BF9DF8000040B100231A466946C3486D
:10120000006802F0DDF90020009026E71CB501F02F
:1012100031FA032010212023BD4ACDE900107021AE
:101220003C2001F030FC032010212023B94ACDE9F5
:1012300000107021822001F026FC032010212023C1
:10124000B54ACDE900107021C82001F01CFCB3485C
:101250008079062801D1022000E0012010212023FE
:10126000AF4ACDE900107021822001F00CFCAB48A0
:101270008079052801D1022000E001201021CDE96C
:101280000010A8480C2308218268282001F0FBFBED
:10129000A2488079052801D1022000E00120102118
:1012A000CDE900109F480C2308210268312001F08D
:1012B000EAFB9A4800790A2190FBF1F0994951F82C
:1012C000204096488079052801D1022000E00120C5
:1012D00010210C232246CDE9001008213A2001F00C
:1012E000D2FB8E4800790A2190FBF1F201FB12003B
:1012F0008C4951F8204089488079052801D1022085
:1013000000E0012010210C232246CDE90010082125
:10131000432001F0B8FB012010210C23824ACDE9C3
:10132000001008214F2001F0AEFB7C48C0780A2154
:1013300090FBF1F07B4951F82040784880790428EF
:1013400001D1022000E0012010210C232246CDE92A
:10135000001008215B2001F096FB7048C0780A213C
:1013600090FBF1F201FB12006E4951F820406B48EE
:101370008079042801D1022000E0012010210C23F3
:101380002246CDE900100821642001F07CFB0120F9
:1013900010210C23654ACDE900100821702001F0CE
:1013A00072FB5E4880780A2190FBF1F05D4951F8AC
:1013B00020405A488079032801D1022000E0012012
:1013C00010210C232246CDE9001008217C2001F0D9
:1013D0005AFB524880780A2190FBF1F201FB12007F
:1013E000504951F820404D488079032801D102200E
:1013F00000E0012010210C232246CDE90010082135
:10140000852001F040FB012010210C23484ACDE942
:1014100000100821912001F036FB012010210C233F
:10142000444ACDE900100821D22001F02CFB012014
:1014300010210C23404ACDE900100821E02001F0E2
:1014400022FB36488079022800D100E001201021DB
:10145000CDE90010314890F90500384951F82020B5
:101460000C230821EE2001F00EFB2C4840780A21C5
:1014700090FBF1F0324951F820402848807901284A
:1014800001D1022000E00120402121232246CDE9A4
:10149000001028212C2001F0F6FA204840780A217B
:1014A00090FBF1F201FB1200254951F820401B4846
:1014B0008079012801D1022000E001204021212370
:1014C0002246CDE9001028215A2001F0DCFA012043
:1014D00008210B461B4ACDE900103F218E2001F068
:1014E000D2FA012008210B46164ACDE900105521F9
:1014F0008E2001F0C8FA094800780A2190FBF1F02B
:101500000F4921E0000C01403C0000204000002079
:10151000AA7000082A7000086A710008CC00002038
:101520006A70000850000020726F00088A6F00087F
:10153000A26F0008BA6F0008D26F0008A000002058
:1015400078000020D26D000851F82040FE488079D4
:1015500008B9022000E00120402121232246CDE9E4
:1015600000102821A92001F08EFAF74800780A21FE
:1015700090FBF1F201FB1200F44951F82040F248CF
:10158000807908B9022000E0012040212123224671
:10159000CDE900102821D72001F075FA01F03CFABE
:1015A0001CBD1CB501F066F8E948007808B90220B6
:1015B00000E0012010212023E64ACDE9001070212F
:1015C0003C2001F060FAE2480078012801D10220B5
:1015D00000E0012010212023DF4ACDE90010702116
:1015E000822001F050FADA480078022800D100E0A9
:1015F000012010212023D94ACDE900107021C820F4
:1016000001F041FAD248007808B9012000E0032037
:101610001021CDE90010D2480C230821826828202F
:1016200001F031FACA48007808B9012000E003202F
:101630001021CDE90010CA480C230821026831208E
:1016400001F021FAC04800790A2190FBF1F0C44969
:1016500051F82040BE48007808B9012000E003207E
:1016600010210C232246CDE9001008213A2001F078
:101670000AFAB54800790A2190FBF1F201FB120049
:10168000B74951F82040B248007808B9012000E07D
:10169000032010210C232246CDE90010082143200D
:1016A00001F0F1F9AA48007808B9012000E0032010
:1016B00010210C23AB4ACDE9001008214F2001F086
:1016C000E2F9A148C0780A2190FBF1F0A44951F851
:1016D00020409F48007808B9012000E00320102135
:1016E0000C232246CDE9001008215B2001F0CBF944
:1016F0009548C0780A2190FBF1F201FB120098494D
:1017000051F820409248007808B9012000E00320F9
:1017100010210C232246CDE900100821642001F09D
:10172000B2F98B48007808B9012000E003201021AD
:101730000C238D4ACDE900100821702001F0A3F997
:10174000814880780A2190FBF1F0854951F82040CA
:101750007F48007808B9012000E0032010210C2305
:101760002246CDE9001008217C2001F08CF9764852
:1017700080780A2190FBF1F201FB1200784951F8C0
:1017800020407348007808B9012000E003201021B0
:101790000C232246CDE900100821852001F073F9C1
:1017A0006B48007808B9012000E0032010210C23C9
:1017B0006E4ACDE900100821912001F064F96448D7
:1017C000007808B9012000E0032010210C23684AAA
:1017D000CDE900100821D22001F055F95C480078CD
:1017E00008B9012000E0032010210C23614ACDE953
:1017F00000100821E02001F046F95548007808B9AA
:10180000012000E003201021CDE900104E4890F99E
:101810000500594951F820200C230821EE2001F041
:1018200032F9494840780A2190FBF1F0474951F8D4
:1018300020404748007808B9012000E003204021FB
:1018400021232246CDE9001028212C2001F01BF98C
:101850003D4840780A2190FBF1F201FB12003B4920
:1018600051F820403A48007808B9012000E00320F0
:10187000402121232246CDE9001028215A2001F0E1
:1018800002F93348007808B9012000E0032008215C
:101890000B463A4ACDE900103F218E2001F0F3F8C3
:1018A0002B48007808B9012000E0032008210B46EE
:1018B000324ACDE9001055218E2001F0E4F822488B
:1018C00000780A2190FBF1F0204951F8204020488F
:1018D000007808B9012000E003204021212322469E
:1018E000CDE900102821A92001F0CDF81648007894
:1018F0000A2190FBF1F201FB1200144951F820403B
:101900001348007808B9012000E00320402121237A
:101910002246CDE900102821D72001F0B4F801F0CB
:101920007BF81CBD1FB50020029004F016FB01F0EF
:1019300093FB134840780449087011488078487038
:101940000F48C07888701DE0CC000020780000208F
:101950004C000020AA7000082A7000086A71000874
:1019600050000020726F00088A6F0008A26F000804
:10197000BA6F0008D26F0008A0000020D26D0008E6
:10198000D3000020F8480079C870F74880790871C2
:10199000F548407948710020887104F001FB00F09F
:1019A00069FE022010212023F04ACDE900107021A9
:1019B0003C2001F068F8012010212023EC4ACDE9F9
:1019C00000107021822001F05EF8012010212023F8
:1019D000E84ACDE900107021C82001F054F801F068
:1019E0001BF8E7E300235A1E03A9E348006801F04F
:1019F00031FF029830B101287CD002287BD0042826
:101A00007AD1EAE39DF80C00012804D0022874D0B2
:101A1000042873D132E0D9480078401C032190FBA0
:101A2000F1F201FB1200D54908700846007888B928
:101A300000235A1E1946D248006801F00BFF01200E
:101A4000D049087000231A461946CD48006801F0B5
:101A5000B7FD10E000235A1E1946C948006801F07E
:101A6000F9FE0020C749087000231A461946C448E9
:101A7000006801F0A5FDFFF794FD7BE0BF4800780A
:101A800020B1012805D002286AD138E0FFF7BEFB5B
:101A900067E002200290FFF784FD00F0EBFD0320D9
:101AA00010212023B24ACDE900107021822000F0DD
:101AB000EAFF022010212023B34ACDE90010702153
:101AC000822000F0E0FF032010212023A74ACDE967
:101AD000001070213C2000F0D6FF032010212023AD
:101AE000A44ACDE900107021C82000F0CCFF00F01E
:101AF00093FF36E0ABE03FE0FAE334E039E0012069
:101B0000029000F0B7FD032010212023984ACDE970
:101B100000107021822000F0B6FF03201021202346
:101B2000994ACDE900107021822000F0ACFF03201B
:101B3000102120238D4ACDE9001070213C2000F0B7
:101B4000A2FF0220102120238A4ACDE90010702133
:101B5000C82000F098FF00F05FFFFFF757FB00E0A0
:101B600000BF00BF06E004200290002083490870F7
:101B700000E000BF00BFFAE39DF80C00012819D077
:101B8000042861D181480078401CC117019000EB06
:101B9000917081100198A0EB81007C49087000F0E1
:101BA00079FD7B487949097850F82100019000F0CF
:101BB00075FE4AE000235A1E19467148006801F07C
:101BC00049FE01206F49087000231A4619466C48E7
:101BD000006801F0F5FC0020029000F04BFD00F0E1
:101BE00088FE6C4800F02EFF642000F0CBFC00F073
:101BF00041FD032010212023674ACDE90010702108
:101C0000822000F040FF012010212023574ACDE917
:101C1000001070213C2000F036FF0220102120230C
:101C2000534ACDE900107021822000F02CFF0120E2
:101C3000102120234F4ACDE900107021C82000F068
:101C400022FF00F0E9FE00E000BF00BF8FE3534831
:101C50008079072870D2DFE800F00470F7F6F5F419
:101C6000F3009DF80C00072863D2DFE800F062045F
:101C7000330A19622600012048498871FFF7C6FA25
:101C800058E046488079401E002801D5062002E031
:101C900042488079401E41498871FFF7B7FA49E010
:101CA0003E480078401C3C2190FBF1F201FB120001
:101CB0003A490870FFF7AAFA3CE03848007808B9BA
:101CC0003B2002E035480078401E34490870FFF799
:101CD0009DFA2FE00020029000F0CCFC03201021A0
:101CE00020232F4ACDE900107021822000F0CBFE86
:101CF0000120102120231D4ACDE9001070213C2035
:101D000000F0C1FE012010212023194ACDE9001066
:101D10007021822000F0B7FE022010212023154AF6
:101D2000CDE900107021C82000F0ADFE00F074FE77
:101D300000E000BF00BF12E310E39DF80C0007288D
:101D40007DD2DFE800F08704510A37874400022083
:101D500012498871FFF75AFA7DE010488079401ED9
:101D600000281FD5062020E0D3000020AA7000081C
:101D70002A7000086A710008400000204C00002012
:101D8000440000204E000020EA7100084D000020B1
:101D9000BC000020AA840008EA700008CC000020E3
:101DA0006A700008FE488079401EFD498871FFF77F
:101DB0002DFA50E0FA484078401C182190FBF1F2CF
:101DC00001FB1200F6494870FFF720FA43E0F4489F
:101DD000407808B9172002E0F1484078401EF049E9
:101DE0004870FFF713FA36E00020029000F042FC42
:101DF000032010212023EB4ACDE90010702182201E
:101E000000F041FE012010212023E74ACDE9001017
:101E100070213C2000F037FE012010212023E34AEE
:101E2000CDE900107021822000F02DFE022010214B
:101E30002023DF4ACDE900107021C82005E009E029
:101E4000CFE155E1E7E079E007E000F01CFE00F0AB
:101E5000E3FD00E000BF00BF81E29DF80C00072811
:101E600069D2DFE800F06804390A19682900032004
:101E7000CB498871FFF7CAF95EE0C9488079401EF6
:101E8000002801D5062002E0C5488079401EC449DB
:101E90008871FFF7BBF94FE0C1484079401C40B260
:101EA000BF494871084690F90500062801DD002069
:101EB0004871FFF7ABF93FE0B9484079401E40B2A6
:101EC000B7494871084690F90500002801DA062054
:101ED0004871FFF79BF92FE00020029000F0CAFB49
:101EE000032010212023AF4ACDE900107021822069
:101EF00000F0C9FD012010212023AB4ACDE90010DC
:101F000070213C2000F0BFFD012010212023A74AB2
:101F1000CDE900107021822000F0B5FD02201021D3
:101F20002023A34ACDE900107021C82000F0ABFDAA
:101F300000F072FD00E000BF00BF10E29DF80C0051
:101F4000072865D2DFE800F06404350A1964270029
:101F5000042093498871FFF759F95AE09048807935
:101F6000401E002801D5062002E08D488079401EE1
:101F70008B498871FFF74AF94BE089488078401C0B
:101F800087498870084680781F2801DD0120887005
:101F9000FFF73CF93DE082488078401E8049887018
:101FA00008468078012801DA1F208870FFF72EF993
:101FB0002FE00020029000F05DFB03201021202381
:101FC000784ACDE900107021822000F05CFD0120EC
:101FD00010212023744ACDE9001070213C2000F02C
:101FE00052FD012010212023704ACDE900107021FC
:101FF000822000F048FD0220102120236C4ACDE908
:1020000000107021C82000F03EFD00F005FD00E04A
:1020100000BF00BFA3E19DF80C00072865D2DFE8F0
:1020200000F06404350A1964270005205C498871B2
:10203000FFF7ECF85AE05A488079401E002801D595
:10204000062002E056488079401E55498871FFF706
:10205000DDF84BE05248C078401C5149C870084632
:10206000C0780C2801DD0120C870FFF7CFF83DE0F3
:102070004B48C078401E4A49C8700846C0780128BD
:1020800001DA0C20C870FFF7C1F82FE000200290A1
:1020900000F0F0FA032010212023424ACDE900107D
:1020A0007021822000F0EFFC0120102120233E4A05
:1020B000CDE9001070213C2000F0E5FC012010214A
:1020C00020233A4ACDE900107021822000F0DBFC89
:1020D000022010212023364ACDE900107021C820AB
:1020E00000F0D1FC00F098FC00E000BF00BF36E13A
:1020F0009DF80C00072871D2DFE800F07004330A65
:1021000019702600062026498871FFF77FF866E0DF
:1021100023488079401E002801D5062002E020488F
:102120008079401E1E498871FFF770F857E01C48FF
:102130000079401C642190FBF1F201FB1200184968
:102140000871FFF763F84AE01548007908B9632081
:1021500002E013480079401E11490871FFF756F854
:102160003DE00020029000F085FA0320102120239A
:102170000C4ACDE900107021822000F084FC01207F
:1021800010212023084ACDE9001070213C2000F0E6
:102190007AFC012010212023044ACDE900100AE036
:1021A000CC0000206A700008AA7000082A7000089D
:1021B0006A710008DCE07021822000F064FC0220DB
:1021C00010212023AE4ACDE900107021C82000F074
:1021D0005AFC00F021FC02E000E0C2E000BF00BFBA
:1021E000BDE09DF80C00012806D002287ED003280F
:1021F00008D004287BD114E00020A2498871FFF7A1
:1022000005F8A8E09F488079401E002801D50620E7
:1022100002E09C488079401E9A498871FEF7F6FFDB
:1022200099E00020029003F098FE9648007840B2B2
:10223000954948709348407840B2887091488078BA
:1022400040B2C8708F48C07840B208718D4800799C
:1022500040B288718B48407948710020087000F0C6
:102260006EFE03F09DFE00F005FA022010212023EF
:10227000864ACDE900107021822000F004FC00F0B5
:10228000CBFB4FF47A7002F005FA002002907D49F2
:10229000887100F0EFF90320102120237C4ACDE95A
:1022A00000107021822000F0EEFB0120102120237D
:1022B000784ACDE9001070213C2000F0E4FB0120B9
:1022C00010212023744ACDE900107021822000F0F3
:1022D000DAFB022010212023694ACDE90010702189
:1022E000C82000F0D0FB00F097FB34E001E031E0C3
:1022F0003AE0002002906349887100F0BBF90320A6
:1023000010212023624ACDE900107021822000F0C4
:10231000BAFB0120102120235E4ACDE90010702174
:102320003C2000F0B0FB0120102120235A4ACDE9C7
:1023300000107021822000F0A6FB02201021202333
:102340004F4ACDE900107021C82000F09CFB00F03E
:1023500063FB00E000BF00BF01E008E000BF00BF7A
:1023600005E00020029002E00020029000BF00BFC4
:10237000FFF738BB7CB50546012403F0EEFD474866
:10238000032100232202CDE9001045A1474801F0B6
:10239000FFFE04464648032100238022CDE90010B9
:1023A00044A1474801F0F4FE0446464804210023B6
:1023B0008022CDE9001044A1464801F0E9FE044620
:1023C0004548032100234FF48072CDE9001043A15A
:1023D000454801F0DDFE044603F0E2FD4348006895
:1023E00001F024FF7CBD1CB500F0A8F800F001FF4F
:1023F00000F0F6FB00F083FC00F07BFA3C4800F0B4
:1024000021FB4FF4FA7000F0BDF8012001F0CEF985
:10241000384908600846006820B902E002203649C1
:102420000860FBE700220121052000F0CEFF3349C0
:10243000086000213148006800F06EFF0022012191
:10244000052000F0C2FF2E49086000212C480068DA
:1024500000F062FF01242548012100238022CDE9FC
:10246000001028A12B4801F093FE0446012C01D155
:1024700002F0BBFB02E002201F490860FBE70000FE
:102480006A710008CC000020D3000020EA70000828
:102490006A700008AA7000082A7000082C0000204A
:1024A000436C6F636B5F5461736B00002D0D00080C
:1024B000300000204C65645F5461736B00000000C5
:1024C0003B100008340000204B65795F5461736B4A
:1024D0000000000053100008380000204D656E75A4
:1024E0005F5461736B00000025190008280000206C
:1024F000AA84000844000020140801403C00002089
:10250000400000204170704372656174655F5461E2
:10251000736B000075230008704700BFFEE700BF23
:10252000FEE700BFFEE700BFFEE7704710B502F010
:1025300024FD012801D003F04BFD10BD08B5012199
:102540000420FEF745FB0220ADF8000010208DF8B6
:10255000030003208DF8020069460948FEF77CF865
:102560000220ADF8000069460548FEF775F8022123
:102570000348FEF720F902210148FEF71CF908BDC7
:10258000000801400022002100BF06E0002200E018
:10259000521CB2F5205FFBD3491C8142F6D3704731
:1025A00070B5044625462021FE48FEF704F90026B2
:1025B00017E005F0800020B11021FA48FEF7F9F885
:1025C00003E01021F748FEF7F6F82021F548FEF762
:1025D000F0F82021F348FEF7EEF86806050E701CAF
:1025E000C6B2082EE5DB70BD10B505E00221EE484D
:1025F000FEF7C5F800B900E0F8E700BF10BD10B560
:1026000004464021E748FEF7D4F84021E548FEF7AC
:10261000D2F88021E348FEF7CEF82046FFF7C0FF4E
:102620004021E048FEF7C5F810BD10B50446402132
:10263000DC48FEF7BEF84021DA48FEF7BCF88021FE
:10264000D848FEF7B6F82046FFF7AAFF4021D54844
:10265000FEF7AFF810BD70B505463220FFF7CFFF8B
:10266000002404E0285DFFF7E0FF601CC4B2E32C07
:10267000F8DB70BD10B50121CB48FEF79CF8642053
:10268000FFF780FF0121C848FEF793F86420FFF7A9
:1026900079FF10BD2DE9F04700240F270025002603
:1026A0004FF027084FF00109FFF7E4FFFFF79CFF09
:1026B0001220FFF7A4FFFFF797FF0120FFF79FFF0E
:1026C0002720FFF7B2FF0120FFF7AFFF0020FFF741
:1026D000ACFF1120FFF793FF0320FFF7A6FF3C207C
:1026E000FFF78DFF0020FFF7A0FF2120FFF787FFF6
:1026F0000020FFF79AFF8020FFF797FF2C20FFF7BD
:102700007EFFAA4991F89E00FFF78FFF3F20FFF759
:1027100076FFA64991F89900FFF787FF0320FFF79E
:102720006EFFA24991F89A00FFF77FFF0420FFF7A0
:1027300066FF9E4991F89B00FFF777FF9B4991F850
:102740009C00FFF772FF994991F89D00FFF76DFF1C
:102750009648FFF780FF4420FFF751FF2046FFF720
:1027600064FF3846FFF761FF4520FFF748FF284622
:10277000FFF75BFF3046FFF758FF4046FFF755FF76
:102780004846FFF752FF4E20FFF739FF2046FFF77C
:102790004CFF4F20FFF733FF2846FFF746FF304638
:1027A000FFF743FFFFF720FFBDE8F08770B5044651
:1027B0000D46002022462B46002110E04606300E32
:1027C00002F0C006C02E03D002F0C006402E02D197
:1027D00040F0010000E000BF9606320E491C0429BB
:1027E000ECD3002110E04606300E03F0C006C02EE8
:1027F00003D003F0C006402E02D140F0010000E0FB
:1028000000BF9E06330E491C0429ECD370BD70B581
:1028100004460D46002022462B46002110E04606C5
:10282000300E02F0C006C02E03D002F0C006802E8B
:1028300002D140F0010000E000BF9606320E491CB4
:102840000429ECD3002110E04606300E03F0C00648
:10285000C02E03D003F0C006802E02D140F001004C
:1028600000E000BF9E06330E491C0429ECD370BD66
:1028700010B52220FFF7C3FEC720FFF7D6FE2020A9
:10288000FFF7BDFEFFF7B0FE1020FFF7B8FE0120F6
:10289000FFF7CBFE6420FFF775FE10BD70B505464F
:1028A0002420FFF7ACFE00240AE02A195178285DA5
:1028B000FFF77CFF0646F143C8B2FFF7B6FEA41C43
:1028C000B4F5145FF1D32620FFF799FE00240AE047
:1028D0002A195178285DFFF79AFF0646F143C8B2DE
:1028E000FFF7A3FEA41CB4F5145FF1D3FFF7C0FFFC
:1028F00070BD2DE9F04700240F2727250126A046AB
:10290000A146FFF7B7FEFFF76FFE1220FFF777FE35
:10291000FFF76AFE0120FFF772FE2720FFF785FE12
:102920000120FFF782FE0020FFF77FFE1120FFF756
:1029300066FE0120FFF779FE3C20FFF760FE0120D4
:10294000FFF773FE2120FFF75AFE0020FFF76DFE10
:102950008020FFF76AFE1820FFF751FE8020FFF766
:1029600064FE4420FFF74BFE2046FFF75EFE38462C
:10297000FFF75BFE4520FFF742FE2846FFF755FEB6
:102980003046FFF752FE4046FFF74FFE4846FFF73E
:102990004CFE4E20FFF733FE2046FFF746FE4F2049
:1029A00006E0000000080140000C0140BE3D0108A7
:1029B000FFF725FE2846FFF738FE3046FFF735FEC5
:1029C000FFF712FEBDE8F08710B52220FFF717FED3
:1029D000F720FFF72AFE2020FFF711FEFFF704FE85
:1029E0001020FFF70CFE0120FFF71FFE6420FFF709
:1029F000C9FD10BD70B504462420FFF700FE002578
:102A000004E02078FFF711FE641C6D1CB5F5945F9F
:102A1000F7D3FFF7D9FF70BD10B52220FFF7EFFD08
:102A2000FF20FFF702FE2020FFF7E9FDFFF7DCFDA6
:102A30001020FFF7E4FD0120FFF7F7FD3220FFF73C
:102A4000A1FD10BD70B5044626462420FFF7D7FD32
:102A5000002504E02078FFF7E8FD641C6D1CB5F547
:102A6000945FF7D334462620FFF7C9FD002504E024
:102A70002078FFF7DAFD641C6D1CB5F5945FF7D381
:102A8000FFF7A2FF70BD2DE9F04F85B004460D465B
:102A900017469946DDE90E8A2846E91705EB51717C
:102AA000CD1040464FEAE87108EB517105EBE101AA
:102AB000491E049140F22710041B2046E11704EB45
:102AC000116109120391E11704EB11610912A4EBE2
:102AD00001210291A4EB0900461C3046F11706EBD8
:102AE000116109120191F11706EB11610912A6EBB0
:102AF000012100914420FFF782FDE8B2FFF795FD28
:102B00000499C8B2FFF791FD4520FFF778FD0299BF
:102B1000C8B2FFF78AFD0399C8B2FFF786FD009996
:102B2000C8B2FFF782FD0199C8B2FFF77EFD4E20C3
:102B3000FFF765FDE8B2FFF778FD4F20FFF75FFD77
:102B40000299C8B2FFF771FD0399C8B2FFF76DFD96
:102B5000FFF74AFD2420FFF752FD4FF0000B17E06E
:102B6000BAF1010F03D13878FFF75FFD7F1CBAF18E
:102B7000020F05D13978C943C8B2FFF756FD7F1C53
:102B8000BAF1030F02D1FF20FFF74FFD0BF1010B4C
:102B900009FB08F0C11700EB5171BBEBE10FDFDB64
:102BA00005B0BDE8F08F10B52420FFF728FD002404
:102BB00003E0FF20FFF739FD641CB4F5945FF8D300
:102BC0002620FFF71CFD002403E0FF20FFF72DFD6A
:102BD000641CB4F5945FF8D3FFF7F6FE10BD000057
:102BE00008B501210820FDF7F3FF01210820FDF7BA
:102BF000EFFF01210420FDF7EBFF01210420FDF789
:102C0000E7FF01210420FDF7E3FF01210420FDF788
:102C1000DFFF4020ADF8000010208DF803000220F7
:102C20008DF8020069462248FDF716FD2020ADF818
:102C3000000010208DF8030002208DF80200694684
:102C40001B48FDF709FD1020ADF800008DF80300CA
:102C500002208DF8020069461548FDF7FDFC802032
:102C6000ADF8000010208DF8030002208DF802005E
:102C700069460F48FDF7F0FC0120ADF80000102078
:102C80008DF8030002208DF8020069460948FDF71F
:102C9000E3FC0220ADF8000004208DF803000220C0
:102CA0008DF8020069460348FDF7D6FC08BD000018
:102CB00000080140000C014010B500214FF0E02356
:102CC0005A69FE4B1B68FE4CB3FBF4F303FB00F1A7
:102CD0004FF0E0231B6923F001034FF0E024236150
:102CE00000E000BF0B1EA1F10101FAD14FF0E0237B
:102CF0001B6943F001034FF0E024236110BD08B5C8
:102D000001211820FDF764FF10208DF80300032037
:102D10008DF802004FF40050ADF800006946E94814
:102D2000FDF79AFC4FF48070ADF800006946E64864
:102D3000FDF792FC4FF40070ADF800006946E248E0
:102D4000FDF78AFC4FF40051DE48FDF734FD4FF4E7
:102D50008071DD48FDF72FFD08BD38B504464FF4FE
:102D60000070ADF8000003208DF8020014B1012CB2
:102D700010D107E010208DF803006946D248FDF716
:102D80006BFC08E048208DF803006946CE48FDF74B
:102D900063FC00E000BF00BF38BD70B504460D46BF
:102DA0000020FFF7DAFF4FF40051C648FDF701FDA0
:102DB0000320FFF781FF002623E004F0010028B183
:102DC0004FF40071C048FDF7F4FC04E04FF40071CB
:102DD000BD48FDF7F0FC64100120FFF76DFF4FF4D4
:102DE0008071B948FDF7E5FC0120FFF765FF4FF45E
:102DF0008071B548FDF7DFFC0120FFF75DFF701C17
:102E0000C6B2082ED9DB002623E005F0010028B168
:102E10004FF40071AC48FDF7CCFC04E04FF40071B6
:102E2000A948FDF7C8FC6D100120FFF745FF4FF4DE
:102E30008071A548FDF7BDFC0120FFF73DFF4FF471
:102E40008071A148FDF7B7FC0120FFF735FF701C2A
:102E5000C6B2082ED9DB4FF400519A48FDF7ABFCFF
:102E600070BD70B50446002644F001044FF40051D3
:102E70009448FDF79EFC0320FFF71EFF002523E08A
:102E800004F0010028B14FF400718F48FDF791FC68
:102E900004E04FF400718C48FDF78DFC64100120B4
:102EA000FFF70AFF4FF480718748FDF782FC01208D
:102EB000FFF702FF4FF480718348FDF77CFC01208F
:102EC000FFF7FAFE681CC5B2082DD9DB0120FFF719
:102ED00044FF0520FFF7F0FE00251FE04FF40071CE
:102EE0007948FDF74CFC20B10120A8403043C6B220
:102EF00002E00120A84086434FF480717248FDF73C
:102F000058FC0120FFF7D8FE4FF480716E48FDF7A2
:102F100052FC0120FFF7D0FE681CC5B2082DDDDB96
:102F20004FF400516748FDF746FC0020FFF715FFFE
:102F30004FF400716448FDF73EFC304670BD10B59B
:102F400000218E20FFF729FF604890F900000A2138
:102F500090FBF1F201FB12015C4890F900000A229B
:102F600090FBF2F001EB0010C4B221468020FFF785
:102F700014FF564890F901000A2190FBF1F201FB81
:102F80001201524890F901000A2290FBF2F001EB85
:102F90000010C4B221468220FFF7FFFE4B4890F993
:102FA00002000A2190FBF1F201FB1201474890F95F
:102FB00002000A2290FBF2F001EB0010C4B221469D
:102FC0008420FFF7EAFE414890F903000A2190FBB4
:102FD000F1F201FB12013D4890F903000A2290FB37
:102FE000F2F001EB0010C4B221468620FFF7D5FEB7
:102FF000364890F904000A2190FBF1F201FB12011E
:10300000324890F904000A2290FBF2F001EB001024
:10301000C4B221468820FFF7C0FE2C4841798A209F
:10302000FFF7BBFE294890F906000A2190FBF1F258
:1030300001FB1201254890F906000A2290FBF2F0EC
:1030400001EB0010C4B221468C20FFF7A6FE8021C0
:103050008E20FFF7A2FE10BD10B500248020FFF7E0
:1030600000FF04462046E21704EB12721211A4EB93
:1030700002122146E31704EB13731B1103EB8303C6
:1030800002EB430252B2114B1A708220FFF7E9FEA5
:1030900004462046E21704EB12721211A4EB02124E
:1030A0002146E31704EB13731B1103EB830302EBBD
:1030B000430252B2054B5A70842009E00000002000
:1030C00040420F0000100140000C0140D3000020DE
:1030D000FFF7C7FE04462046E21704EB12721211F6
:1030E000A4EB02122146E31704EB13731B1103EB4D
:1030F000830302EB430252B22F4B9A708620FFF7F4
:10310000B0FE04462046E21704EB12721211A4EB43
:1031100002122146E31704EB13731B1103EB830325
:1031200002EB430252B2244BDA708820FFF799FE7B
:1031300004462046E21704EB12721211A4EB0212AD
:103140002146E31704EB13731B1103EB830302EB1C
:10315000430252B2184B1A718A20FFF782FE0446CE
:103160002046E21704EB12721211A4EB0212214660
:10317000E31704EB13731B1103EB830302EB43020E
:1031800052B20D4B5A718C20FFF76BFE044620465D
:10319000E21704EB12721211A4EB02122146E3179C
:1031A00004EB13731B1103EB830302EB430252B2D4
:1031B000014B9A7110BD0000D300002008B54FF4F8
:1031C0004070FDF7EDF828208DF8000005208DF8FF
:1031D000010000208DF8020001208DF803006846F0
:1031E000FDF7E3F828208DF800006846FDF7DDF8CC
:1031F00008BD0EB501210920FDF7EAFCFFF7DEFF4F
:103200004FF48040ADF8080048208DF80B000320F3
:103210008DF80A0002A91A48FDF71EFA0E210120B6
:10322000FDF730FB4FF48040009000208DF8040043
:103230000C208DF8050001208DF806006846FDF78A
:103240002BF94FF40040ADF8080048208DF80B0032
:1032500002A90B48FDF700FA0F210120FDF712FB30
:103260004FF40040009000208DF804000C208DF8F1
:10327000050001208DF806006846FDF70DF90EBD2A
:10328000000C014000F1080141604FF0FF31816006
:1032900000F10801C1600161002101607047002157
:1032A0000161704742684A6093688B609368596017
:1032B0009160086103685B1C0360704710B50246AB
:1032C0000B685C1C0CB9106907E002F1080000E013
:1032D0004068446824689C42FAD944684C604C6851
:1032E000A160886041600A611468641C146010BDAC
:1032F00001460A69D1E901309860D1E901035860BB
:103300005068884201D188685060002008611068C8
:10331000401E10601068704770B505460E462C467A
:103320002CB940F21B12F8A1FEA002F025FF02F01A
:1033300014FED4E90F12206801FB02006060002037
:10334000A0632068A060E06B401E226C216800FB37
:103350000210E060FF2084F8440084F845009EB924
:10336000206908B9012000E00020A8B904F110008C
:1033700001F028FD80B14FF08050EE490860BFF3A6
:103380004F8FBFF36F8F07E004F11000FFF77AFF54
:1033900004F12400FFF776FF02F002FE012070BD69
:1033A0002DE9F04106460D4617469846069C0DB994
:1033B000246000E02760E663256401212046FFF7D2
:1033C000ABFF0020A064BDE8F0812DE9F84305467D
:1033D0000E4690460DB1012000E0002028B94FF4C0
:1033E000C472C9A1CFA002F0C7FE0EB9002701E048
:1033F00005FB06F707F14C0002F035FC044644B12A
:1034000004F14C0943464A46314628460094FFF7EA
:10341000C7FF2046BDE8F8832DE9F04104460F467A
:1034200015464FF00008A66B206C40B9206860BBC1
:10343000606801F000FE80460020606025E07DB9F4
:103440003946226CA06802F031FE216CA068084465
:10345000A060D4E90110884217D32068A06014E06E
:103460003946226CE06802F021FE216CE068401AC7
:10347000E0602168E068884203D2216C6068401AED
:10348000E060022D01D106B1761E701CA06340469B
:10349000BDE8F0812DE9F3410D460098846C0027CA
:1034A0002CB940F6CE1298A19EA002F065FEA06B4A
:1034B000E16B884201D2012000E0002028B940F6EB
:1034C000CF1291A197A002F057FEA06BE16B88424A
:1034D0001BD294F945602A4669462046FFF79CFFB7
:1034E0000746701C60B9606A08B9012000E000203E
:1034F00050B904F1240001F065FC28B1012703E074
:10350000701C40B284F8450000BF3846BDE8FC811D
:1035100070B5044602F021FD94F945501AE0A06C04
:1035200038B100212046FFF7B5FF88B101F01EFD3C
:103530000EE0606A08B9012000E0002038B904F10B
:10354000240001F03FFC18B101F010FD00E003E0A1
:10355000681E45B2002DE2DC00BFFF2084F8450064
:1035600002F01EFD02F0F9FC94F9445010E02069CD
:1035700008B9012000E0002048B904F1100001F072
:1035800021FC08B101F0F2FC681E45B200E001E048
:10359000002DECDC00BFFF2084F8440002F000FDA9
:1035A00070BD70B5054602F0D8FCA86BE96B884287
:1035B00001D1012400E0002402F0F2FC204670BD9D
:1035C0002DE9FF4383B0064688461D464FF00009AB
:1035D00034462CB940F2D9224BA152A002F0CCFDC6
:1035E000B8F1000F01D1206C08B9012000E00020E3
:1035F00028B940F2DA2244A14AA002F0BDFD022D12
:1036000002D1E06B012801D1012000E0002028B99F
:1036100040F2DB223CA143A002F0AEFD01F0ADFC84
:1036200008B9059808B9012000E0002028B940F247
:10363000DE2235A13BA002F09FFD00BF02F08DFC11
:10364000A06BE16B884201D3022D38D12A46414656
:103650002046FFF7E1FE0746A06C68B129462046E8
:10366000FFF718FF28B34FF0805032490860BFF3CE
:103670004F8FBFF36F8F1CE0606A08B9012000E034
:10368000002068B904F1240001F09CFB88B14FF0E0
:10369000805028490860BFF34F8FBFF36F8F08E059
:1036A0003FB14FF0805023490860BFF34F8FBFF305
:1036B0006F8F02F075FC012007B0BDE8F08305981C
:1036C00018B902F06DFC0020F6E7B9F1000F04D143
:1036D00001A801F0FBFB4FF0010902F061FC00F0D2
:1036E00078FF02F03AFC94F94400401C10B9002025
:1036F00084F8440094F94500401C10B9002084F877
:10370000450002F04DFC17E02E2E5C2E2E5C46721A
:10371000656552544F535C7372635C717565756572
:103720002E6300004572726F723A25732C25640D6A
:103730000A00000004ED00E005A901A801F0D8FB93
:10374000F8B92046FFF72DFFA8B104F11000059944
:1037500001F0DAFA2046FFF7DBFE00F08FFE0028CA
:103760007FF46CAF4FF08050FA490860BFF34F8F81
:10377000BFF36F8F62E72046FFF7CAFE00F07EFEC0
:103780005CE72046FFF7C4FE00F078FE002093E7D8
:1037900010B504464CB1002060602060E06000235A
:1037A0001A4619462046FFF70BFF10BD2DE9F041E0
:1037B000044601260027224600210120FFF705FECE
:1037C00005462846FFF7E4FF2846BDE8F08170B5BE
:1037D000064634463CB940F24122AFF2D401AFF282
:1037E000BC0002F0C9FC01F0C5FB616888420CD145
:1037F000E068401EE060E06828B900231A461946D8
:103800002046FFF7DDFE012500E00025284670BDBB
:1038100070B5054602F0A1FBA86B08B9012400E0D1
:10382000002402F0BDFB204670BD70B504460D4675
:10383000206C70B1216CE0680844E0606168E06869
:10384000884201D32068E0602846226CE16802F0DB
:103850002DFC70BD2DE9FF4782B005460E461F4680
:103860004FF0000A2C463CB940F2DC42AFF268113E
:10387000AFF2501002F080FC0EB9206C08B90120A4
:1038800000E0002038B940F2DD42AFF28411AFF21F
:103890006C1002F071FC01F070FB08B9049808B9D3
:1038A000012000E0002038B94FF49C62AFF2A8116B
:1038B000AFF2901002F060FC00BF02F04EFBD4F8B3
:1038C0003890B9F1000F3DD0D4F80C803146204635
:1038D000FFF7ABFFDFB9A9F10100A063206810B9C1
:1038E00001F020FC6060206908B9012000E00020A0
:1038F00010BB04F1100001F065FAE8B14FF0805000
:1039000094490860BFF34F8FBFF36F8F14E0C4F882
:103910000C80606A08B9012000E0002060B904F161
:10392000240001F04FFA38B14FF080508949086007
:10393000BFF34F8FBFF36F8F02F032FB012006B051
:10394000BDE8F087049818B902F02AFB0020F6E7DA
:10395000BAF1000F04D1684601F0B8FA4FF0010A3D
:1039600002F01EFB00F035FE02F0F7FA94F9440075
:10397000401C10B9002084F8440094F94500401C14
:1039800010B9002084F8450002F00AFB04A968463B
:1039900001F0AEFA40BB2046FFF73AFFF0B12068D5
:1039A00030B902F0DAFA606801F0F3FA02F0F8FADE
:1039B00004F12400049901F0A7F92046FFF7A8FDBF
:1039C00000F05CFD00287FF478AF4FF08050614933
:1039D0000860BFF34F8FBFF36F8F6EE72046FFF78E
:1039E00097FD00F04BFD68E72046FFF791FD00F0E2
:1039F00045FD2046FFF70CFF0028EED000209EE793
:103A00002DE9F04106460F4634463CB94FF41E728C
:103A1000AFF20C31AFF2F42002F0AEFB01F0AAFAE3
:103A20006168884204D1E068401CE06001250AE03A
:103A300000233A4619462046FFF70CFF054615B10C
:103A4000E068401CE0602846BDE8F08170B505469E
:103A50000E460DB1012000E0002038B940F2BD2231
:103A6000AFF25C31AFF2443002F086FBAE4201D8D7
:103A7000012000E0002038B940F2BE22AFF27831D8
:103A8000AFF2603002F078FB022200212846FFF7F7
:103A90009CFC044604B1A663204670BD2DE9F05F8E
:103AA00080468A4615461E4644463CB940F29F323F
:103AB000AFF2AC31AFF2943002F05EFBBAF1000F1E
:103AC00001D1206C08B9012000E0002038B94FF482
:103AD0006872AFF2CC31AFF2B43002F04DFB022E7F
:103AE00002D1E06B012801D1012000E0002038B9AB
:103AF00040F2A132AFF2F031AFF2D83002F03CFB2D
:103B000002F07EFA00BF5021EFF3118081F311889B
:103B1000BFF34F8FBFF36F8F00BF0746A06BE16B02
:103B2000884201D3022E2ED194F945B03246514637
:103B30002046FFF771FC0BF10100E0B9A06C58B111
:103B400031462046FFF7A6FCD0B1CDB10120286058
:103B500016E0000004ED00E0606A08B9012000E012
:103B6000002068B904F1240001F02CF940B13DB106
:103B70000120286004E00BF1010040B284F8450008
:103B80004FF0010901E04FF0000900BF87F31188F1
:103B900000BF4846BDE8F09F2DE9F04707460D46B7
:103BA0003C463CB940F23C42AFF2A441AFF28C40FB
:103BB00002F0E2FA206C08B9012000E0002038B9D8
:103BC0004FF48862AFF2C041AFF2A84002F0D4FADD
:103BD000206808B9606808B9012000E0002038B901
:103BE00040F24542AFF2E041AFF2C84002F0C4FA01
:103BF00002F006FA00BF5021EFF3118081F3118823
:103C0000BFF34F8FBFF36F8F00BF0646D4F83890D5
:103C1000E06B484529D994F945A009F10100A0635A
:103C20000AF10100C8B9A06C40B100212046FFF79D
:103C300031FCB8B1B5B10120286013E0606A08B961
:103C4000012000E0002068B904F1240001F0BAF876
:103C500040B13DB10120286004E00AF1010040B20A
:103C600084F845004FF0010801E04FF0000800BF64
:103C700086F3118800BF4046BDE8F0872DE9F05F6C
:103C800006468946174634463CB94FF4B462AFF253
:103C90008851AFF2705002F06FFAB9F1000F01D104
:103CA000206C08B9012000E0002038B940F2A15290
:103CB000AFF2AC51AFF2945002F05EFA02F0A0F90C
:103CC00000BF5021EFF3118081F31188BFF34F8FB4
:103CD000BFF36F8F00BF0546D4F838A0BAF1000FCC
:103CE00022D094F944B049462046FFF79EFDAAF140
:103CF0000100A0630BF1010070B9206908B901202F
:103D000000E0002068B904F1100001F05BF840B158
:103D10003FB10120386004E00BF1010040B284F8AB
:103D200044004FF0010801E04FF0000800BF85F3A8
:103D3000118800BF4046BDE8F09F2DE9F0470646D8
:103D4000884634463CB940F2FC52AFF24461AFF2CF
:103D50002C6002F011FAB8F1000F01D1206C08B903
:103D6000012000E0002038B940F2FD52AFF2686156
:103D7000AFF2506002F000FA206C08B1012000E0C0
:103D8000002038B940F2FE52AFF28461AFF26C60AD
:103D900002F0F2F902F034F900BF5021EFF3118084
:103DA00081F31188BFF34F8FBFF36F8F00BF0546BC
:103DB000A06B48B1D4F80C9041462046FFF735FD82
:103DC000C4F80C90012700E0002700BF85F311889C
:103DD00000BF3846BDE8F08770B504463CB940F2F4
:103DE0002F62AFF2DC61AFF2C46002F0C5F902F0FD
:103DF000B4F8A56B02F0D4F8284670BD70B504463F
:103E000025463DB940F24162AFF20471AFF2EC6079
:103E100002F0B2F902F0A1F8D5E90E10461A02F04C
:103E2000BFF8304670BD70B504463CB940F25162EF
:103E3000AFF22C71AFF2147002F09EF9A56B284618
:103E400070BD014600200EE0714A02EBC0025268CC
:103E50008A4207D100226E4B43F8302003EBC003A7
:103E60005A6002E0401C0A28EED300BF704770B5CC
:103E7000044625463DB940F25D62AFF27471AFF27F
:103E80005C7002F079F92846FFF7DBFF284601F065
:103E90006DFF70BD70B505463DB940F29372AFF24B
:103EA0009871AFF2807002F067F9A86B08B901242D
:103EB00000E00024204670BD70B504463CB940F2D5
:103EC000BA72AFF2BC71AFF2A47002F055F9A06BF8
:103ED000E16B884201D1012500E00025284670BD34
:103EE000024600200BE04A4B53F8303033B9484BC0
:103EF00043F8301003EBC0035A6002E0401C0A286C
:103F0000F1D300BF70470246002000210AE0404B79
:103F100003EBC1035B68934203D13D4B53F831007F
:103F200002E0491C0A29F2D300BF70472DE9F04195
:103F300005460E4617462C4602F00FF894F9440049
:103F4000401C10B9002084F8440094F94500401C3E
:103F500010B9002084F8450002F022F8A06B28B9BF
:103F60003A46314604F1240000F011FF2046FFF7E5
:103F7000CFFABDE8F08170B5044600220421204646
:103F8000FFF723FA0546284670BD70B504460E4675
:103F900001F0E3FFA06C08B1002505E0A06B08B1BB
:103FA000002501E0A664012501F0FAFF284670BD56
:103FB0002DE9F04105460F462E46B06CB84201D0BF
:103FC00000240AE0B06B08B1002406E001F0C5FF50
:103FD0000020B06401F0E4FF01242046BDE8F08138
:103FE00038B505460C46002000900023224669465D
:103FF0002846FFF72FFC009838BD38B5044600204E
:104000000090002269462046FFF738FE009838BD30
:104010005401002010B5002407E004EB8401F74AA6
:1040200002EB8100FFF72EF9641C202CF5D3F44835
:10403000FFF728F9F348FFF725F9F348FFF722F9CE
:10404000F248FFF71FF9F248FFF71CF9EC48F14975
:104050000860EC48F049086010BD10B5044601F056
:104060007CFFEE480068401CEC490860EC480068A2
:1040700040B9EB4804600846006801280DD1FFF7FD
:10408000C9FF0AE0E748006838B9E5480068C06A37
:10409000E16A884201D8E2480460E3480068401CB5
:1040A000E149086094F82C1001208840DF49096834
:1040B0000843DE490860E16A01EB8101CF4A02EB67
:1040C0008100211DFFF7EEF801F06AFFD548006876
:1040D00068B1D3480068C06AE16A884207D24FF0ED
:1040E0008050D3490860BFF34F8FBFF36F8F10BD6F
:1040F0002DE9FF5F81460F469246DDE90E6B109C6D
:10410000AAF10100216B01EB800828F0070808F0F4
:10411000070008B9012000E0002028B940F22B3246
:10412000C4A1CBA002F028F8002507E0795D04F1D6
:1041300034004155785D00B902E06D1C102DF5D3B7
:1041400000BF002143200155202E00D31F26E66228
:1041500066640020A064201DFFF7A1F804F1180098
:10416000FFF79DF82461C6F12000A0616462002081
:10417000E06484F8500049464046039A01F07AFE14
:104180002060BBF1000F01D0CBF80040BDE8FF9FDD
:104190002DE9FF4F85B0804689461746DDE912AB11
:1041A000B80001F060FD064656B1542001F05BFDF9
:1041B00004460CB1266304E0304601F0D7FD00E070
:1041C00000247CB10020CDE900ABCDE902403A46A5
:1041D00049464046089BFFF78BFF2046FFF73DFF0F
:1041E000012501E04FF0FF35284609B0BDE8F08F0A
:1041F00088490968096809B9012100E0002121B155
:104200004FF0FF31964A116006E082490968C9689B
:10421000C868934A41681160704710B50446206B26
:1042200001F0A4FD204601F0A1FD10BD70B50546CA
:1042300001F093FE15B97A48006800E0284604466C
:10424000201DFFF755F878B9E06A00EB80006B4954
:1042500051F8200040B994F82C100120884073498F
:104260000968814371480160A06A18B104F118001F
:10427000FFF73EF86C480068401C6B4908606848CE
:104280000068844209D1211D6048FFF70BF875488A
:104290000068401C7349086009E060480068401EDF
:1042A0005E4908602046FFF7B8FFFFF7A1FF01F065
:1042B00077FE5C480068C0B159480068844214D158
:1042C0006948006808B9012000E0002028B940F2E0
:1042D000654258A15EA001F04FFF4FF08050544955
:1042E0000860BFF34F8FBFF36F8F70BD2DE9F041B2
:1042F0004FF000085C480068002872D15B480068F5
:10430000451C5A480560EDB942480068006808B984
:10431000012000E0002028B940F6D91245A14CA0A8
:1043200001F02AFF3B4807683B48006839490860AC
:10433000394807604E480068401C4D490860FFF747
:1043400057FF00BF4648006885423CD300BF314854
:104350000068006808B9012000E0002020B14FF09B
:10436000FF303F4908602DE02A480068C068C468F3
:104370006668B54202D23A48066023E0201DFEF787
:10438000B7FFA06A18B104F11800FEF7B1FF94F866
:104390002C100120884025490968084323490860FA
:1043A000E16A01EB8101154A02EB8100211DFEF754
:1043B00079FF1B49E06A0968C96A8842C7D34FF090
:1043C0000108C4E700BF16480068C06A00EB80001F
:1043D0000A4951F82000012801D94FF0010805E0F1
:1043E000FFE724480068401C224908602248006812
:1043F00008B14FF001084046BDE8F081A40100205B
:1044000024040020380400204C0400206004002014
:1044100074040020E0000020E4000020EC000020F4
:10442000DC000020F800002008010020F40000203B
:1044300004ED00E02E2E5C2E2E5C46726565525413
:104440004F535C7372635C7461736B732E63000013
:104450004572726F723A25732C25640D0A000000B4
:104460000C010020E800002014010020F0000020D2
:1044700004010020FC0000200001002070B5002491
:104480000026FE48006838B94FF4FD62AFF25C01C7
:10449000AFF2440001F070FE01F05FFDF7480068E4
:1044A000401EF64908600846006800284FD1F448CD
:1044B000006800284BD024E0F248C068C46804F1CA
:1044C0001800FEF715FF201DFEF712FF94F82C10C0
:1044D00001208840EC4909680843EB490860E16A1B
:1044E00001EB8101E94A02EB8100211DFEF7DAFEB2
:1044F000E749E06A0968C96A884202D30120E549B0
:104500000860E048006808B9012000E000200028A9
:10451000D2D00CB1FFF76CFEDF48056865B100BF73
:10452000FFF7E4FE10B10120DA4908606D1E002D8E
:10453000F6D10020D8490860D648006838B1012675
:104540003007D6490860BFF34F8FBFF36F8F01F07C
:1045500027FD304670BD2DE9F04105460E46D04896
:104560000768CB480068001DFEF7C2FE50B9C84876
:10457000006890F82C1001208840C34909688143E5
:10458000C1480160681C38B936B1C1480168091DCD
:10459000C448FEF787FE1AE07C19BD4800684460F5
:1045A000BC4207D2BA480168091DBF480068FEF73F
:1045B00085FE0CE0B6480168091DBC480068FEF79E
:1045C0007DFEBB480068844201D2B9480460BDE862
:1045D000F081AA480068401CA849086070472DE98E
:1045E000F04704460F464FF000093CB940F27942CB
:1045F000AFF2C011AFF2A81001F0BEFD0FB1012063
:1046000000E0002038B940F27A42AFF2D811AFF2A0
:10461000C01001F0B1FD9948006808B9012000E020
:10462000002038B940F27B42AFF2F811AFF2E0104F
:1046300001F0A2FDFFF7CDFF994806682068C51973
:104640002068B04207D92068A8420BD9B54209D9E1
:104650004FF0010906E02068A84201D8B54201D90F
:104660004FF001092560B9F1000F03D0A81B00210C
:10467000FFF771FFFFF702FF8046B8F1000F07D187
:104680004FF0805085490860BFF34F8FBFF36F8FA5
:10469000BDE8F08770B504460025BCB177480068D6
:1046A00008B9012000E0002038B940F2CF42AFF253
:1046B0007C21AFF2642001F05FFDFFF78AFF00214B
:1046C0002046FFF748FFFFF7D9FE05463DB94FF0FA
:1046D000805072490860BFF34F8FBFF36F8F70BD7A
:1046E0002DE9F04107463E463EB940F2FB42AFF2AB
:1046F000BC21AFF2A42001F03FFD6548006886426E
:1047000001D100241EE001F028FC756901F048FC8D
:1047100066480068854203D063480068854201D13D
:1047200002240FE05F48854205D1B06A08B903242E
:1047300008E0022406E05F48854200D00DB9042459
:1047400000E001242046BDE8F08170B5044601F088
:1047500004FC14B94E48006800E020460646F56A9D
:1047600001F01EFC284670BD2DE9F041054601F020
:1047700047FC00BF5021EFF3118081F31188BFF394
:104780004F8FBFF36F8F00BF044615B940480068D4
:1047900000E028460746FE6A00BF84F3118800BF88
:1047A0003046BDE8F0812DE9F04780460D464FF0D8
:1047B0000009202D01D2012000E0002038B94FF47B
:1047C000B062AFF29031AFF2783001F0D5FC202D1D
:1047D00000D31F2501F0C1FBB8F1000F02D12C4816
:1047E000006800E040460446666CAE4277D0B542B1
:1047F0000BD92748006884420DD025480068C06A5C
:10480000A84208D84FF0010905E021480068844219
:1048100001D14FF00109E76AE16A606C884200D17A
:10482000E5626564A06900F0004010B9C5F12000A0
:10483000A06107EB8701154A02EB8101606988429C
:1048400001D1012000E00020B0B3201DFEF750FD93
:1048500030B90120B8400C49096881430A48016019
:1048600094F82C100120884007490968084306493C
:104870000860E16A01EB8101044A1FE01401002095
:10488000EC0000204C040020F4000020A4010020D3
:10489000DC00002000010020FC00002004ED00E00E
:1048A000F000002074040020E4000020E00000205C
:1048B0000C0100206004002005E010E002EB810004
:1048C000211DFEF7EFFCB9F1000F07D04FF080502B
:1048D000FB490860BFF34F8FBFF36F8F00BF01F03C
:1048E0005FFBBDE8F08710B5F648006818B10120FD
:1048F000F54908602FE00020F3490860F34800689C
:10490000B0FA80F0C0F11F0404EB8400F04951F8C4
:10491000200008B1012000E0002038B940F6F6225E
:10492000AFF2F041AFF2D84001F026FC04EB840175
:10493000E74A02EB810041684968416000F10801E3
:1049400042688A4202D14168496841604168C96849
:10495000E04A116000BF10BD70B5054601F0FDFAD8
:1049600015B9DC48006800E028460446201DFEF723
:10497000BFFC78B9E06A00EB8000D54951F820000F
:1049800040B994F82C1001208840D049096881432F
:10499000CE480160A06A18B104F11800FEF7A8FC27
:1049A000211DCD48FEF77EFC01F0FAFACB480068E5
:1049B00028B101F0D2FAFFF71BFC01F0F1FAC5486B
:1049C0000068844226D1C5480068B8B1BD48006877
:1049D00008B9012000E0002038B940F25762AFF278
:1049E000AC51AFF2945001F0C7FB4FF08050B44986
:1049F0000860BFF34F8FBFF36F8F0BE0B6480068BE
:104A0000B7490968884203D10020B249086001E033
:104A1000FFF769FF70BD70B5054600262C463DB90D
:104A200040F28162AFF2F451AFF2DC5001F0A4FB2E
:104A3000A9496069884201D1012000E0002070B1DD
:104A4000A849A06A884201D1012000E0002030B9C5
:104A5000A06A08B9012000E0002000B1012630461C
:104A600070BD70B505462C463DB940F2AB62AFF261
:104A70003C61AFF2246001F07FFB74B3954800689D
:104A800084422AD001F069FA2046FFF7C4FF10B330
:104A9000201DFEF72DFC94F82C10012088408B4936
:104AA0000968084389490860E16A01EB8101884A85
:104AB00002EB8100211DFEF7F5FB8649E06A0968DB
:104AC000C96A884207D34FF080507D490860BFF320
:104AD0004F8FBFF36F8F01F063FA70BD2DE9F04186
:104AE0000646002734463EB940F2E262AFF2BC61AE
:104AF000AFF2A46001F040FB01F082FA00BF502148
:104B0000EFF3118081F31188BFF34F8FBFF36F8FE5
:104B100000BF05462046FFF77EFF20B369480068C6
:104B2000E0B96C49E06A0968C96A884200D3012784
:104B3000201DFEF7DDFB94F82C100120884063490E
:104B40000968084361490860E16A01EB8101604A34
:104B500002EB8100211DFEF7A5FB04E004F1180122
:104B60006048FEF79FFB00BF85F3118800BF384601
:104B7000BDE8F08170B523E0FFF72BFD5A480068CF
:104B800008B9012000E000200546FFF777FCBDB919
:104B900001F0E3F95448C068C468201DFEF7A8FB83
:104BA0004F480068401E4E49086050480068401E4B
:104BB0004E49086001F0F4F92046FFF72EFB00BFD4
:104BC0004A4800680028D7D170BD00BFFFF7D2FF68
:104BD0003F4800680128F9D94FF0805038490860F3
:104BE000BFF34F8FBFF36F8FF0E71CB54048002134
:104BF0000B468022CDE900103EA14048FFF7C8FADD
:104C00000446012C02D100F087FE0446012C15D188
:104C100000BF502080F31188BFF34F8FBFF36F8F19
:104C200000BF4FF0FF303649086001202B49086073
:104C300000203449086001F039F90DE0601C08B12A
:104C4000012000E0002038B940F28472AFF61C0168
:104C5000AFF6040001F090FA1CBD10B500BF502063
:104C600080F31188BFF34F8FBFF36F8F00BF002019
:104C70001A49086001F060F910BD224908687047C0
:104C800070B501F0BDF900251E480468204670BDCE
:104C900013480068704770B5044614B90D480068A1
:104CA00000E0204605463DB940F68C02AFF67C0197
:104CB000AFF6640001F060FA05F1340070BD000049
:104CC00004ED00E01401002000010020F4000020A9
:104CD000A4010020DC00002074040020F800002063
:104CE000EC0000204C04002060040020E8000020BC
:104CF0001001002049444C4500000000CB4B000847
:104D00000C010020F000002070B504460D463CB9AF
:104D100040F60632AFF6E401AFF6CC0001F02CFA13
:104D2000F748016818312046FEF7C8FA01212846E5
:104D3000FFF711FC70BD70B504460D4616463CB930
:104D400040F61732AFF61411AFF6FC0001F014FA7A
:104D5000EC48006808B1012000E0002038B940F6B6
:104D60001B32AFF63011AFF6181001F005FA45F01E
:104D70000040E34909688861E1480168183120462C
:104D8000FEF790FA01213046FFF7E5FB70BD70B5E4
:104D900005460E4614463DB940F63132AFF66C1169
:104DA000AFF6541001F0E8F9D548016818312846EB
:104DB000FEF778FA0CB14FF0FF3621463046FFF788
:104DC000CAFB70BD70B50646F068C4683CB940F6D1
:104DD0006132AFF6A011AFF6881001F0CDF904F101
:104DE0001800FEF785FAC7480068A8B9201DFEF72D
:104DF0007FFA94F82C1001208840C34909680843C1
:104E0000C1490860E16A01EB8101C04A02EB8100FF
:104E1000211DFEF747FA04E004F11801BC48FEF733
:104E200041FAB749E06A0968C96A884204D901258C
:104E30000120B849086000E00025284670BD2DE932
:104E4000F04105460F46AF48006808B1012000E078
:104E5000002038B940F69932AFF62821AFF610207D
:104E600001F08AF947F000402860EC683CB940F650
:104E7000A132AFF64021AFF6282001F07DF9284697
:104E8000FEF736FA201DFEF733FA94F82C100120B5
:104E900088409D49096808439B490860E16A01EB25
:104EA00081019A4A02EB8100211DFEF7FBF994492A
:104EB000E06A0968C96A884204D901260120954937
:104EC000086000E000263046BDE8F08110B50446D9
:104ED0003CB940F6C132AFF6A421AFF68C2001F008
:104EE0004BF98D48006820608C480068606010BDF8
:104EF0002DE9F04104460D463CB940F6CB32AFF601
:104F0000CC21AFF6B42001F037F93DB940F6CC32F0
:104F1000AFF6E021AFF6C82001F02EF901F01DF840
:104F20007E4807682868401C08B9002619E07A49BD
:104F300020680968884204D06068B84201D8012618
:104F40000FE06068381A2968884209D228686168C9
:104F5000791A401A28602046FFF7B8FF002600E0C3
:104F6000012601F01DF83046BDE8F08101206949B5
:104F7000086070476249086870476949096809B95B
:104F8000012005E05F49096809B9022000E000201E
:104F9000704770B505462C46002D4BD05849E06A45
:104FA0000968C96A884245D2A06900F0004028B962
:104FB00053480068C06AC0F12000A061E16A01EBBB
:104FC0008101524A02EB81016069884201D10120CE
:104FD00000E0002050B3201DFEF78AF978B9E06A9E
:104FE00000EB8000494951F8200040B994F82C109A
:104FF0000120884044490968814343480160404892
:105000000068C06AE06294F82C10012088403E4994
:10501000096808433C490860E16A01EB81013B4AA9
:1050200002EB8100211DFEF73DF903E034480068E2
:10503000C06AE06270BD70B505462C460026002DA2
:105040004FD02F480068844201D1012000E00020A9
:1050500038B940F6C762AFF62441AFF60C4001F014
:105060008BF8A06C38B940F6C962AFF63841AFF69C
:10507000204001F081F8A06C401EA064616CE06AE1
:1050800088422ED0A06C60BB201DFEF731F978B9A4
:10509000E06A00EB80001D4951F8200040B994F807
:1050A0002C10012088401849096881431648016086
:1050B000606CE062E06AC0F12000A06194F82C10FE
:1050C000012088401049096808430F490860E16AD7
:1050D00001EB81010D4A02EB8100211DFEF7E2F890
:1050E0000126304670BD0649096888690449096887
:1050F000C96AC1F12001024A12689161704700003B
:10510000DC00002014010020F4000020A401002095
:105110004C0400200001002004010020F0000020C9
:10512000F8000020F948006830B1F849096801F139
:105130004800896C491C0160F4480068704770B5EC
:1051400006460D4600F009FFF0480068C06C88B9BB
:105150000120EE49096881F850005DB1012128461F
:10516000FFF7F9F94FF08050E9490860BFF34F8F1E
:10517000BFF36F8F00F014FF00F0EFFEE34800680C
:10518000C46C4CB126B10020E0490968C86403E052
:10519000601EDE490968C8640020DC49096881F89E
:1051A000500000F0FDFE204670BD2DE9F04107469D
:1051B000884614461D4600F0D0FED448006890F89A
:1051C0005000022818D0D149096801F14C00C96C7F
:1051D000B94301600120CD49096881F850005DB1F3
:1051E00001212846FFF7B7F94FF08050C849086001
:1051F000BFF34F8FBFF36F8F00F0D2FE00F0ADFE14
:105200001CB1C2480068C06C2060C048006890F8BB
:105210005000012801D1002608E0BC49096801F1CD
:105220004C00C96C21EA0801016001260020B74941
:10523000096881F8500000F0B3FE3046BDE8F08107
:105240002DE9F04706460D46174698464FF0010AED
:105250003EB941F2FD02AFF62461AFF60C6000F0FA
:105260008BFF344600F079FEB8F1000F02D0E06CFD
:10527000C8F8000094F85090022084F85000052FE0
:1052800017D2DFE807F01503070B0D00E06C284389
:10529000E0640EE0E06C401CE0640AE0E56408E0D5
:1052A000B9F1020F01D0E56401E04FF0000A00E01F
:1052B00000BF00BFB9F1010F30D1201DFEF718F873
:1052C00094F82C10012088409249096808439149BC
:1052D0000860E16A01EB81018F4A02EB8100211D28
:1052E000FDF7E0FFA06A08B9012000E0002038B90E
:1052F00041F23512AFF6C461AFF6AC6000F03CFF8E
:105300008249E06A0968C96A884207D94FF080502B
:105310007F490860BFF34F8FBFF36F8F00F040FEEF
:105320005046BDE8F0872DE9F84F07460E469046F7
:105330009946DDF828B0012000903FB941F268128B
:10534000AFF61071AFF6F86000F016FF00F058FEEF
:105350003C4600BF5021EFF3118081F31188BFF369
:105360004F8FBFF36F8F00BF0546B9F1000F02D01A
:10537000E06CC9F8000094F850A0022084F85000B6
:10538000B8F1050F17D2DFE808F01503070B0D0081
:10539000E06C3043E0640EE0E06C401CE0640AE046
:1053A000E66408E0BAF1020F01D0E66401E00020F3
:1053B000009000E000BF00BFBAF1010F3BD1A06A2E
:1053C00008B9012000E0002038B941F2AF12AFF671
:1053D0009C71AFF6847000F0CFFE50480068A8B909
:1053E000201DFDF785FF94F82C10012088404949C5
:1053F0000968084347490860E16A01EB8101464AB0
:1054000002EB8100211DFDF74DFF04E004F11801BE
:105410004348FDF747FF3D49E06A0968C96A884289
:1054200009D9BBF1000F03D00120CBF8000002E046
:1054300001203C49086000BF85F3118800BF009837
:10544000BDE8F88F2DE9F04105460F4635B941F228
:10545000E312354901F11C0000F08EFE00F0D0FD92
:105460002C4600BF5021EFF3118081F31188BFF368
:105470004F8FBFF36F8F00BF064694F85080022015
:1054800084F85000E06C401CE064B8F1010F37D1A3
:10549000A06A08B9012000E0002030B941F20922D9
:1054A000214901F11C0000F067FE1C480068A8B902
:1054B000201DFDF71DFF94F82C1001208840154990
:1054C0000968084313490860E16A01EB8101124A47
:1054D00002EB8100211DFDF7E5FE04E004F1180157
:1054E0000F48FDF7DFFE0949E06A0968C96A88428A
:1054F00006D917B10120386002E00120094908608F
:1055000000BF86F3118800BFBDE8F081DC000020F9
:1055100004ED00E0F4000020A401002014010020AC
:105520004C040020000100203444000870B50546FA
:1055300015B90A48006800E02846064600F00DFD4F
:1055400096F85000022804D1002086F8500001246B
:1055500000E0002400F024FD204670BDDC000020A7
:105560002DE9F04104460D4616461F464FF000084F
:1055700065602461B5420CD8F01BA169884202D352
:105580004FF0010811E0211DF7480068FDF796FE75
:105590000BE0BE4204D2BD4202D34FF0010804E04A
:1055A000211DF2480068FDF789FE4046BDE8F08104
:1055B0002DE9FF4704460D4616461F46DDF83080AC
:1055C0004FF000092CB94FF4D372E9A1EFA000F01D
:1055D000D3FDF248006810B3009501960294062DA1
:1055E00015DAFFF7CAFC022808D1002342466946B3
:1055F000EA480068FDF7E4FF814610E000231A4600
:105600006946E6480068FDF7DBFF814607E00023B6
:105610003A466946E1480068FEF740FA8146484646
:1056200004B0BDE8F0872DE9F8432DE0CF480068CD
:10563000C0680568CD480068C068C468201DFDF7D3
:1056400057FE2046616A8847E06901281CD1A0699D
:105650004619AE4207D966602461211DC34800681F
:10566000FDF72CFE10E0002003462A46014600907C
:105670002046FFF79DFF07462FB940F29232BCA1AA
:10568000C2A000F079FD00BFB8480068006808B902
:10569000012000E000200028C8D0B448D0F80080E5
:1056A000B1480068B1490860AF48C0F80080BDE863
:1056B000F88370B50446FFF7E0FA0546B84800687D
:1056C000854204D2FFF7AFFF0120206001E00020F7
:1056D0002060B3480560284670BDF0B587B070E023
:1056E000039800280CDA04AE2EB940F2E722A0A1FC
:1056F000A6A000F041FDD6E90020B168904700BFA8
:10570000039800285DDB059C606908B9012000E072
:10571000002010B9201DFDF7EBFD02A8FFF7C9FF1F
:10572000054603980A284AD2DFE800F00905072C4D
:105730002E4506082D2F00BF00BF00BF00BF0498F4
:10574000A269811803462A462046FFF709FFC0B127
:105750002046616A8847E069012812D10020009044
:105760000498A1694218002319462046FFF720FF3C
:1057700007462FB940F221327DA184A000F0FCFC45
:1057800000BF1DE000BF1BE000BF0498A061A0693E
:1057900008B1012000E0002028B94FF44E7274A136
:1057A0007AA000F0E9FCA06941192B462A46204660
:1057B000FFF7D6FE04E0204600F0D8FA00E000BF74
:1057C00000BF00231A4603A974480068FEF742F898
:1057D000002885D107B0F0BDF8B505460F466348EF
:1057E0000068C068C468201DFDF782FDE0690128DB
:1057F00018D1A06941192B463A462046FFF7B0FE62
:1058000080B1002003462A46014600902046FFF75B
:10581000CFFE06462EB94FF4027255A15BA000F0F0
:10582000ABFC00BF2046616A8847F8BDF8B5054665
:105830000C46FEF7CEFE6846FFF73BFF0646009893
:1058400020BB44B9B54206D8FEF718FE31462846BB
:10585000FFF7C2FF1CE03CB143480068006808B98C
:10586000012000E000200446A91B22464B480068A6
:10587000FEF75CFBFEF702FE50B94FF0805049493D
:105880000860BFF34F8FBFF36F8F01E0FEF7F6FDA7
:10589000F8BD0146354A126812680AB9012200E0D3
:1058A00000220A600A6822B9304A1268D268106879
:1058B00000E00020704708B500BF6846FFF7E9FF29
:1058C000044620460099FFF7B1FFFFF706FFF4E713
:1058D00010B500F042FB31480068D0B93248FDF7FE
:1058E000D1FC3248FDF7CEFC2F48204908602F48F4
:1058F0001D490860002210210A20FDF766FD274996
:1059000008600846006820B129A124480068FEF715
:10591000E7FA00F045FB10BD1CB50024FFF7D8FFE7
:105920001E48006858B124481F2100234FF480729C
:10593000CDE9001021A12348FEF72AFC04462CB92A
:1059400040F233120AA111A000F016FC20461CBD43
:105950002DE9F04706460D4617469846DDE90894BE
:105960000DB1012031E02FE01C01002018010020C2
:105970002E2E5C2E2E5C4672656552544F535C731E
:1059800072635C74696D6572732E63004572726F29
:10599000723A25732C25640D0A00000020010020B6
:1059A0002801002004ED00E0880400209C04002071
:1059B000546D72510000000024010020546D7220CB
:1059C00053766300B7580008002038B94FF4C67208
:1059D000AFF26401AFF24C0000F0CEFB5CB1FFF718
:1059E00077FF2660A561E761C4F82080C4F82490A1
:1059F000201DFDF754FCBDE8F0872DE9FC47054666
:105A00000E4617469846DDF82890282000F02BF91E
:105A100004463CB143463A4631462846CDE9009417
:105A2000FFF796FF2046BDE8FC8710B55B4800688D
:105A300008B1012000E0002038B94FF4E872AFF25D
:105A4000D001AFF2B80000F097FB5448006810BDD9
:105A500070B5044625463CB940F2D912AFF2F001C8
:105A6000AFF2D80000F088FBA86970BD70B504469D
:105A700025463CB940F2E312AFF20C11AFF2F4004C
:105A800000F07AFB6E68304670BD70B5044625465E
:105A90003CB940F2ED12AFF22811AFF2101000F055
:105AA0006BFB286870BD70B5044626463CB940F2D1
:105AB000DA32AFF24411AFF22C1000F05DFB00F0CF
:105AC0004CFA706908B9012000E0002080F001055F
:105AD00000F066FA284670BD70B5044626463CB90B
