:020000040800F2
:10000000B02800209D0100088522000887220008F2
:100010008B2200088F2200089322000800000000B5
:1000200000000000000000000000000005010008C2
:1000300097220008000000004901000899220008EA
:10004000B7010008B7010008B7010008B7010008B0
:10005000B7010008B7010008B7010008B7010008A0
:10006000B7010008B7010008B7010008B701000890
:10007000B7010008B7010008B7010008B701000880
:10008000B7010008B7010008B7010008B701000870
:10009000B7010008B7010008B7010008B701000860
:1000A000B7010008B7010008B7010008B701000850
:1000B000B7010008B7010008B7010008B701000840
:1000C000B7010008B7010008B7010008B701000830
:1000D000B7010008B7010008B7010008B701000820
:1000E000990C0008B7010008B7010008DFF810D02C
:1000F00005F0BAFE004800475D210008AFF300801C
:10010000B0280020224B19680868B0E8F00F80F38F
:100110000988BFF36F8F4FF0000080F311884EF015
:100120000D0E70470000000006480068006880F36C
:10013000088862B661B6BFF34F8FBFF36F8F00DFE1
:1001400000BF00BF08ED00E0EFF30980BFF36F8F41
:100150000F4B1A6820E9F00F106008B54FF05000FF
:1001600080F31188BFF34F8FBFF36F8F04F071FAE4
:100170004FF0000080F31188BDE808401968086856
:10018000B0E8F00F80F30988BFF36F8F704700BFAE
:10019000DC000020EFF30580704700000648804730
:1001A00006480047FEE7FEE7FEE7FEE7FEE7FEE75C
:1001B000FEE7FEE7FEE7FEE79F020008ED0000080D
:1001C0000CB50020019000906C48006840F480302D
:1001D0006A49086000BF6948006800F40030009078
:1001E0000198401C0190009818B90198B0F5A06FD3
:1001F000F1D16248006800F4003010B10120009095
:1002000001E0002000900098012843D15C4800687C
:1002100040F010005A4908600846006820F00300CA
:1002200008600846006840F00200086053484068D3
:10023000524948600846406848600846406840F4B3
:10024000806048600846406820F47C10486008469A
:10025000406840F4E81048600846006840F080704C
:10026000086000BF4548006800F000700028F9D021
:100270004248406820F00300404948600846406812
:1002800040F00200486000BF3C48406800F00C00AD
:100290000828F9D10CBD10B5FFF792FF10BD10B5BD
:1002A0003648006840F0010034490860084640685C
:1002B00034490840314948600846006832490840DE
:1002C0002E4908600846006820F48020086008462F
:1002D000406820F4FE0048604FF41F008860FFF77C
:1002E000DAFF4FF000602949086010BD10B5002109
:1002F00000200022214B5B6803F00C0121B104298E
:1003000006D0082928D107E0214B224C236027E0A2
:100310001F4B204C236023E0184B5B6803F47010E4
:10032000164B5B6803F48032022303EB904022B942
:10033000194B4343174C23600DE0104B5B6803F4EB
:10034000003323B1144B4343124C236003E0104BA2
:100350004343104C236003E00D4B0E4C236000BF61
:1003600000BF064B5B68C3F303130C4CE15C094B05
:100370001B68CB40074C236010BD000000100240FA
:10038000002002400000FFF8FFFFF6FE08ED00E04D
:1003900000127A000000002000093D000400002047
:1003A00031490143314A1160704770B50021002383
:1003B0000F22C47804B32D4C246804F4E064C4F51F
:1003C000E064210AC1F10403CA40447804FA03F14D
:1003D0008478144021430901254C0678A1550478FE
:1003E00004F01F050124AC4005786D11AD0005F146
:1003F000E025C5F8004109E0047804F01F05012458
:10040000AC401C4D0678761145F8264070BD1A4A5E
:100410000A400243154B1B1F1A60704739B1134A3B
:10042000121D12680243114B1B1D1A6006E00F4A91
:10043000121D126882430D4B1B1D1A607047042861
:1004400008D14FF0E021096941F004014FF0E022AA
:10045000116107E04FF0E021096921F004014FF03C
:10046000E0221161704700000000FA050CED00E089
:1004700000E400E080E100E080FFFF1F002044492D
:100480000860091D0860091D0860091D08604148D1
:100490003F4914310860704700213D498279002AA4
:1004A0003AD00A46126803689A430B461A600A1D3E
:1004B000126803689A430B1D1A60027911440A6896
:1004C00003681A430A60324A0832126803689A4382
:1004D0002F4B08331A601A1D126803689A432C4B7D
:1004E0000C331A604279102A0ED11A1F1268036861
:1004F0001A43274B08331A601A1D126803681A43FF
:10050000234B0C331A600DE02149427911440A68EB
:1005100003681A430A6005E0027911440A68036817
:100520009A430A6070470021016001710C214171FA
:100530000021817170471649103109680143144A3E
:1005400010321160704701460020114A14321268BF
:100550000A400AB1012000E0002070470C49143124
:1005600008607047014600200022094B1B6803EA1F
:100570000102074B14331B680B4013B10AB1012071
:1005800000E0002070470249143108607047000005
:1005900000040140FFFF0F0010B50446CC48844220
:1005A00008D10121042000F02DFB0021042000F0DF
:1005B00029FB46E0C748844208D10121082000F009
:1005C00021FB0021082000F01DFB3AE0C2488442D4
:1005D00008D10121102000F015FB0021102000F0AF
:1005E00011FB2EE0BD48844208D10121202000F0FB
:1005F00009FB0021202000F005FB22E0B8488442DE
:1006000008D10121402000F0FDFA0021402000F037
:10061000F9FA16E0B348844208D10121802000F0A5
:10062000F1FA0021802000F0EDFA0AE0AE488442A1
:1006300007D10121801500F0E5FA0021A01500F096
:10064000E1FA10BD10B50121084600F0DBFA0021E7
:10065000012000F0D7FA10BD2DE9F0410246002537
:100660000026002000230024002791F803C00CF08E
:100670000F0591F803C00CF0100CBCF1000F03D073
:1006800091F802C04CEA050591F800C0BCF1000FDA
:1006900031D0146800202BE04FF0010C0CFA00F36D
:1006A000B1F800C00CEA03069E4220D183004FF04F
:1006B0000F0C0CFA03F7BC4305FA03FC4CEA0404E4
:1006C00091F803C0BCF1280F06D14FF0010C0CFAD1
:1006D00000FCC2F814C00AE091F803C0BCF1480F56
:1006E00005D14FF0010C0CFA00FCC2F810C0401C00
:1006F0000828D1D31460B1F800C0BCF1FF0F34DD7D
:10070000546800202EE000F1080C4FF0010808FAB0
:100710000CF3B1F800C00CEA03069E4221D183001D
:100720004FF00F0C0CFA03F7BC4305FA03FC4CEA3C
:10073000040491F803C0BCF1280F05D100F1080CA6
:1007400008FA0CF8C2F8148091F803C0BCF1480F05
:1007500007D100F1080C4FF0010808FA0CF8C2F8B4
:100760001080401C0828CED35460BDE8F0814FF6BD
:10077000FF710180022181700421C170704702461F
:10078000002093680B400BB1012000E0002070476F
:100790000146886880B2704702460020D3680B404B
:1007A0000BB1012000E0002070470146C86880B20C
:1007B000704701617047416170470AB1016100E013
:1007C00041617047C16070474FF480320A438261D3
:1007D0008161826182698269704702460020434BD1
:1007E00018684FF68073184040EA021008433F4BE8
:1007F000186070473E49C8617047F0B50A4600234B
:1008000000240021002500F00046B6F1004F02D17F
:10081000364EF16901E0354E7168C0F3034583B28D
:1008200000F44016B6F5401F08D121F070612F4E3C
:10083000766826F070662D4F7E6012E000F4801618
:10084000B6F5801F06D1032606FA05F4A14341F050
:10085000706106E0460D360103FA06F6B14341F039
:10086000706122B1460D360103FA06F6314300F0FD
:100870000046B6F1004F02D11C4EF16101E01B4E63
:100880007160F0BD30B500228B071C0F0F2303FAF7
:1008900004F2164B08338C1053F824309343134C56
:1008A00008348D1044F8253023468C1053F824303A
:1008B0008C07240F00FA04F423430C4C08348D10E9
:1008C00044F8253030BD0A49DC310860704700002B
:1008D00000080140000C01400010014000140140DC
:1008E00000180140001C01400020014000000140B0
:1008F00000002042DF48006840F00100DD49086048
:1009000008464068DC490840DA4948600846006803
:10091000DA490840D74908600846006820F480207A
:1009200008600846406820F4FE0048604FF41F004D
:1009300088607047CF49096821F48031CD4A116041
:100940001146096821F480211160B0F5803F03D081
:10095000B0F5802F0ED106E0C649096841F4803118
:10096000C44A116007E0C349096841F4A021C14AA3
:10097000116000E000BF00BF704710B501460022C3
:10098000002300204A11012A02D1BA4C236806E054
:10099000022A02D1B74C236A01E0B64C636A01F027
:1009A0001F02012494401C400CB1012000E00020F3
:1009B00010BD38B5002000900024002500BF312074
:1009C000FFF7DBFF05460098401C00900098B0F54B
:1009D000A06F01D0002DF2D03120FFF7CEFF08B17B
:1009E000012400E00024204638BD01460020A14A31
:1009F000106820F0F80040EAC10010607047A0497C
:100A000008607047024600209A4B586820F47C101A
:100A100042EA01031843974B5860704798490866AB
:100A2000704701460020934A506820F003000843B5
:100A3000506070478F48406800F00C0070470146D6
:100A400000208C4A506820F0F00008435060704746
:100A500001460020874A506820F4E0600843506057
:100A6000704701460020834A506820F4605040EAF5
:100A7000C1005060704729B17E4A527A02437D4BD3
:100A80005A7204E07B4A527A82437A4B5A72704718
:100A90007B49D8310860704701460020754A50688C
:100AA00020F440400843506070470021714A2032D2
:100AB0001170704A82F82010012802D004280AD14F
:100AC00004E001216B4A2032117005E00521694ADA
:100AD0002032117000E000BF00BF70476949086014
:100AE00070476449096A0143624A11627047654967
:100AF00044390860704730B50021002200240023EB
:100B00005C4D6D6805F00C0121B1042905D0082960
:100B100023D105E05C4D056022E05B4D05601FE0E0
:100B2000544D6D6805F47012524D6D6805F48034B3
:100B3000022505EB92421CB9544D554305600BE06C
:100B40004C4D6D6805F400351DB1504D55430560A1
:100B500002E04D4D5543056002E04B4D056000BF7E
:100B600000BF444D6D6805F0F0010909484D6B5C0C
:100B70000568DD4045603F4D6D6805F4E061090A98
:100B8000434D6B5C4568DD4085603A4D6D6805F40A
:100B90006051C90A3E4D6B5C4568DD40C560354D0E
:100BA0006D6805F44041890B3A4D6B5CC568B5FB37
:100BB000F3F5056130BD29B12E4A526902432D4B30
:100BC0005A6104E02B4A526982432A4B5A617047AA
:100BD00029B1284A92690243264B9A6104E0254ACA
:100BE00092698243234B9A61704729B1214AD269A5
:100BF0000243204BDA6104E01E4AD26982431D4B56
:100C0000DA61704729B11B4AD2680243194BDA6096
:100C100004E0184AD2688243164BDA60704729B163
:100C2000144A12690243134B1A6104E0114A126913
:100C30008243104B1A61704712494039086070476F
:100C40000F49C86470470B49C87170470948406A2A
:100C500040F0807007494862704701460020054A0D
:100C600092680A400AB1012000E000207047014963
:100C700088727047001002400000FFF8FFFFF6FE88
:100C8000000042428004424200127A0000093D0006
:100C9000140000202400002008B5002000904FF42C
:100CA0008040FFF75FFCE8B14FF48041FB48FFF75D
:100CB00066FD40B9012000900023F94A6946F948D1
:100CC000006802F0A1FD4FF48040FFF75CFCF4489F
:100CD000006838B14FF08050F3490860BFF34F8F80
:100CE000BFF36F8F4FF40040FFF73CFCE8B14FF4C7
:100CF0000041EA48FFF743FD40B90220009000237D
:100D0000E74A6946E748006802F07EFD4FF400407C
:100D1000FFF739FCE248006838B14FF08050E249F3
:100D20000860BFF34F8FBFF36F8F08BD1FB54FF043
:100D3000000900BF03F057FE039004F0C4FF02F067
:100D400041F804F0E3FFD9488078D9494870D74882
:100D5000407808704FF47A7003F052FB6FE1002383
:100D60005A1E1946D348006802F02AFCD24800787F
:100D7000029000231A461946CE48006802F0D6FABF
:100D8000029800287ED004F09EFF02F01BF804F0C9
:100D9000BDFFC64890F9068090F9047090F9036091
:100DA00090F9025090F9014090F905A0A145E9D0D1
:100DB000A14601F015FB032010212023BF4ACDE9F5
:100DC00000107021822001F014FD03201021202347
:100DD000BB4ACDE9001070213C2001F00AFD03213F
:100DE00010202023B74ACDE900017021822001F0B4
:100DF00000FD032010212023B34ACDE9001070210B
:100E0000C82001F0F6FC01211020CDE90001AF4817
:100E10000C2308218268282001F0EBFC012010211E
:100E2000CDE90010A9480C2308210268312001F007
:100E3000E0FC0A2098FBF0F0A44951F820B0012012
:100E400010210C235A46CDE9001008213A2001F068
:100E5000D0FC0A2098FBF0F100FB11809B4951F86F
:100E600020B0012010210C235A46CDE900100821A2
:100E7000432001F0BEFC012010210C23944ACDE94F
:100E8000001000E0D5E008214F2001F0B2FC0A205C
:100E900097FBF0F08D4951F820B0012010210C2370
:100EA0005A46CDE9001008215B2001F0A2FC0A207F
:100EB00097FBF0F100FB1170844951F820B001203C
:100EC00010210C235A46CDE900100821642001F0BE
:100ED00090FC012010210C237E4ACDE9001008214E
:100EE000702001F086FC0A2096FBF0F0774951F85B
:100EF00020B0012010210C235A46CDE90010082112
:100F00007C2001F076FC0A2096FBF0F100FB1160DA
:100F10006E4951F820B0012010210C235A46CDE92A
:100F200000100821852001F064FC012010210C2311
:100F3000694ACDE900100821912001F05AFC0120F6
:100F400010210C23654ACDE900100821D22001F0C0
:100F500050FC012010210C23614ACDE9001008212A
:100F6000E02001F046FC01201021CDE900105D4891
:100F700050F82A200C230821EE2001F03AFC0A2028
:100F800095FBF0F0584951F820B001204021212371
:100F90005A46CDE9001028212C2001F02AFC0A2015
:100FA00095FBF0F100FB11504F4951F820B00120A2
:100FB000402121235A46CDE9001028215A2001F072
:100FC00018FC012008210B46484ACDE900103F21BA
:100FD0008E2001F00EFC012008210B46434ACDE98A
:100FE000001055218E2001F004FC0A2094FBF0F043
:100FF0003D4951F820B00120402121235A46CDE936
:1010000000102821A92001F0F4FB0A2094FBF0F144
:1010100000FB1140344951F820B001204021212328
:101020005A46CDE900102821D72001F0E2FB01F05B
:10103000A9FB42F2107103A803F087F900BF8EE606
:1010400009E02B48006880F00200294908604FF44D
:101050007A7003F0D5F9F4E71CB500200090D7E0D2
:1010600000235A1E01A90F48006802F0A9FA0128BE
:10107000F5D1142003F0C4F99DF80400012802D032
:10108000022870D170E04FF480410448FFF777FBED
:1010900018B903F0A8FC044638E063E0000C0140F6
:1010A000480000203C00002004ED00E0D3000020B8
:1010B000CC000020440000204E000020D66D000827
:1010C000566D0008966D0008D66E0008500000208E
:1010D000DE6C0008F66C00080E6D0008266D000836
:1010E0003E6D0008A0000020780000203E6B000844
:1010F0000C08014003F077FC001BB0F5487F02D3D9
:101100000220009078E00A2003F07AF94FF4804141
:10111000FE48FFF734FB0028ECD001234FF4967211
:1011200001A9FB48006802F04BFA012818D11420ED
:1011300003F066F99DF8040001280ED18103F348FD
:10114000FFF71DFB48B90320009000231A4601A9B0
:10115000EF48006802F034FA04E00120009001E05A
:101160000120009046E042E04FF40041E748FFF7DD
:1011700006FBA8BB03F037FC04460BE003F033FC8E
:10118000001BB0F5487F02D30520009034E00A2010
:1011900003F036F94FF40041DC48FFF7F0FA00287D
:1011A000ECD001234FF4967201A9D948006802F0EF
:1011B00007FA012818D1142003F022F99DF8040041
:1011C00002280ED18103D148FFF7D9FA48B9062089
:1011D000009000231A4601A9CD48006802F0F0F9FA
:1011E00004E00420009001E00420009002E00020D0
:1011F000009000BF00BF00BF9DF8000040B1002379
:101200001A466946C348006802F090F80020009032
:1012100026E71CB501F0E4F8032010212023BE4A84
:10122000CDE9001070213C2001F0E3FA03201021E9
:101230002023BA4ACDE900107021822001F0D9FAAA
:10124000032010212023B64ACDE900107021C820C8
:1012500001F0CFFAB3488079072810D0B1488079DF
:10126000062801D1022000E0012010212023AE4AEF
:10127000CDE900107021822001F0BBFA09E00320C3
:1012800010212023A84ACDE900107021822001F00E
:10129000B0FAA4488079052801D1022000E001209D
:1012A0001021CDE90010A1480C23082182682820D4
:1012B00001F09FFA9B488079052801D1022000E0C7
:1012C00001201021CDE9001098480C230821026864
:1012D000312001F08EFA934800790A2190FBF1F059
:1012E000924951F820408F488079052801D1022089
:1012F00000E0012010210C232246CDE90010082136
:101300003A2001F076FA874800790A2190FBF1F241
:1013100001FB1200854951F8204082488079052858
:1013200001D1022000E0012010210C232246CDE94A
:1013300000100821432001F05CFA012010210C2349
:101340007B4ACDE9001008214F2001F052FA754880
:10135000C0780A2190FBF1F0744951F8204071489F
:101360008079042801D1022000E0012010210C2303
:101370002246CDE9001008215B2001F03AFA6948C5
:10138000C0780A2190FBF1F201FB1200674951F885
:10139000204064488079042801D1022000E0012027
:1013A00010210C232246CDE900100821642001F011
:1013B00020FA012010210C235E4ACDE900100821FB
:1013C000702001F016FA574880780A2190FBF1F05E
:1013D000564951F8204053488079032801D1022012
:1013E00000E0012010210C232246CDE90010082145
:1013F0007C2001F0FEF94B4880780A2190FBF1F245
:1014000001FB1200494951F82040464880790328E1
:1014100001D1022000E0012010210C232246CDE959
:1014200000100821852001F0E4F9012010210C238F
:10143000414ACDE900100821912001F0DAF901209C
:1014400010210C233D4ACDE900100821D22001F0E3
:10145000D0F9012010210C23394ACDE900100821D0
:10146000E02001F0C6F92F488079022800D100E081
:1014700001201021CDE900102A4890F905003149DA
:1014800051F820200C230821EE2001F0B2F9254864
:1014900040780A2190FBF1F02B4951F82040214877
:1014A0008079012801D1022000E001204021212380
:1014B0002246CDE9001028212C2001F09AF9194884
:1014C00040780A2190FBF1F201FB12001E4951F80D
:1014D000204014488079012801D1022000E0012039
:1014E000402121232246CDE9001028215A2001F075
:1014F00080F9012008210B46144ACDE900103F2154
:101500008E2001F076F90120082121E0000C014035
:101510003C00002040000020566D0008966D000839
:10152000D66E0008CC000020D66D000850000020C8
:10153000DE6C0008F66C00080E6D0008266D0008D1
:101540003E6D0008A0000020780000203E6B0008DF
:101550000B46F74ACDE9001055218E2001F049F9DC
:10156000F44800780A2190FBF1F0F34951F820404B
:10157000F048807908B9022000E0012040212123B1
:101580002246CDE900102821A92001F032F9E948CE
:1015900000780A2190FBF1F201FB1200E64951F8B4
:1015A0002040E448807908B9022000E00120402171
:1015B00021232246CDE900102821D72001F019F976
:1015C00001F0E0F81CBD1CB500F00AFFDB48007814
:1015D00008B9022000E0012010212023D84ACDE9DB
:1015E000001070213C2001F004F9D4480078012853
:1015F00001D1022000E0012010212023D14ACDE9B1
:1016000000107021822001F0F4F8CC480078022804
:1016100000D100E0012010212023CB4ACDE90010A9
:101620007021C82001F0E5F8C448007808B901200D
:1016300000E003201021CDE90010C4480C2308214C
:101640008268282001F0D5F8BC48007808B901204C
:1016500000E003201021CDE90010BC480C23082134
:101660000268312001F0C5F8B24800790A2190FBE8
:10167000F1F0B64951F82040B048007808B901208F
:1016800000E0032010210C232246CDE900100821A0
:101690003A2001F0AEF8A74800790A2190FBF1F258
:1016A00001FB1200A94951F82040A448007808B96C
:1016B000012000E0032010210C232246CDE9001078
:1016C0000821432001F095F89C48007808B90120D2
:1016D00000E0032010210C239D4ACDE900100821D1
:1016E0004F2001F086F89348C0780A2190FBF1F072
:1016F000964951F820409148007808B9012000E04F
:10170000032010210C232246CDE9001008215B2084
:1017100001F06FF88748C0780A2190FBF1F201FBD5
:1017200012008A4951F820408448007808B9012005
:1017300000E0032010210C232246CDE900100821EF
:10174000642001F056F87D48007808B9012000E0D7
:10175000032010210C237F4ACDE9001008217020BE
:1017600001F047F8734880780A2190FBF1F077493F
:1017700051F820407148007808B9012000E00320AA
:1017800010210C232246CDE9001008217C2001F015
:1017900030F8684880780A2190FBF1F201FB1200D2
:1017A0006A4951F820406548007808B9012000E0F6
:1017B000032010210C232246CDE9001008218520AA
:1017C00001F017F85D48007808B9012000E0032017
:1017D00010210C23604ACDE900100821912001F06E
:1017E00008F85648007808B9012000E003201021CD
:1017F0000C235A4ACDE900100821D22000F0F9FF4D
:101800004E48007808B9012000E0032010210C2385
:10181000534ACDE900100821E02000F0EAFF4748D4
:10182000007808B9012000E003201021CDE9001064
:10183000404890F905004B4951F820200C2308211D
:10184000EE2000F0D6FF3B4840780A2190FBF1F0F3
:10185000394951F820403948007808B9012000E0A2
:101860000320402121232246CDE9001028212C20ED
:1018700000F0BFFF2F4840780A2190FBF1F201FBF6
:1018800012002D4951F820402C48007808B9012059
:1018900000E00320402121232246CDE90010282129
:1018A0005A2000F0A6FF2548007808B9012000E082
:1018B000032008210B461E4ACDE900103F218E204F
:1018C00000F097FF1D48007808B9012000E00320D0
:1018D00008210B46164ACDE9001055218E2000F054
:1018E00088FF144800780A2190FBF1F0124951F862
:1018F00020401248007808B9012000E00320402170
:1019000021232246CDE900102821A92000F071FFF3
:10191000084800780A2190FBF1F201FB1200064909
:1019200051F8204005480078F0B901201DE0000082
:101930003E6B0008CC000020780000204C00002006
:10194000566D0008966D0008D66E00085000002005
:10195000DE6C0008F66C00080E6D0008266D0008AD
:101960003E6D0008A00000200320402121232246D4
:10197000CDE900102821D72000F03BFF00F002FF46
:101980001CBD0EB5002404F09EF901F01BFAF648C8
:101990004078F6490870F44880784870F248C0787A
:1019A0008870F1480079C870EF4880790871EE4876
:1019B000407948710020887104F0A8F900F010FD0A
:1019C000022010212023EA4ACDE9001070213C209A
:1019D00000F00FFF012010212023E64ACDE900107E
:1019E0007021822000F005FF012010212023E24A0F
:1019F000CDE900107021C82000F0FBFE00F0C2FE0F
:101A000072E300235A1E02A9DC48006801F0D8FDE9
:101A100034B1012C7DD0022C7CD0042C7BD15EE330
:101A20009DF80800012804D0022875D0042874D13C
:101A300032E0D3480078401C032190FBF1F201FB17
:101A40001200CF4908700846007888B900235A1E52
:101A50001946CC48006801F0B3FD0120CA4908705E
:101A600000231A461946C748006801F05FFC10E0E1
:101A700000235A1E1946C348006801F0A1FD00204A
:101A8000C149087000231A461946BE48006801F093
:101A90004DFCFFF798FD9CE0B948007820B1012883
:101AA0000BD002287ED13EE00720B0498871FFF7B5
:101AB000B0FB0020AD49887183E00224FFF783FD6D
:101AC00000F08EFC032010212023AA4ACDE900104B
:101AD0007021822000F08DFE022010212023AB4ACD
:101AE000CDE900107021822000F083FE0320102138
:101AF00020239F4ACDE9001070213C2000F079FEA0
:101B00000320102120239C4ACDE900107021C82019
:101B100004E0C7E05FE0E4E255E059E000F069FE70
:101B200000F030FE4DE0012400F05AFC03201021AB
:101B30002023904ACDE900107021822000F059FE48
:101B4000032010212023914ACDE90010702182202A
:101B500000F04FFE032010212023854ACDE900101C
:101B600070213C2000F045FE022010212023824AF3
:101B7000CDE900107021C82000F03BFE00F002FE0D
:101B8000FFF747FB04F09FF801F01CF97648407816
:101B9000764908707448807848707348C0788870B7
:101BA000714800E00CE00079C8706F4880790871D6
:101BB0006D48407948710020887104F0A7F800E072
:101BC00000BF00BF05E0042400206D49087000E05C
:101BD00000BF00BF87E29DF80800012816D0042846
:101BE0005DD16B490978481CC11700EB91718910D0
:101BF000A0EB8101664A117000F002FC6549644A5D
:101C0000127851F8220000F0FFFC49E000235A1E30
:101C100019465C48006801F0D3FC01205A4908705D
:101C200000231A4619465748006801F07FFB00243C
:101C300000F0D6FB00F013FD574800F0B9FD64201A
:101C400000F056FB00F0CCFB032010212023534A68
:101C5000CDE900107021822000F0CBFD0120102181
:101C60002023434ACDE9001070213C2000F0C1FD43
:101C70000220102120233F4ACDE90010702182204C
:101C800000F0B7FD0120102120233B4ACDE90010D0
:101C90007021C82000F0ADFD00F074FD00E000BF31
:101CA00000BF20E23148807907285CD2DFE800F0ED
:101CB0000444A3E9FBFAF9009DF80800072838D28C
:101CC000DFE800F03704330A1937260001202749DE
:101CD0008871FFF79EFA2DE024488079401E002885
:101CE00001D5062002E021488079401E1F498871F5
:101CF000FFF78FFA1EE01D480078401C3C2190FB46
:101D0000F1F201FB120019490870FFF782FA11E0A5
:101D10001648007808B93B2002E014480078401EBD
:101D200012490870FFF775FA04E00024FFF74BFC36
:101D300000E000BF00BFD0E19DF80800072857D29F
:101D4000DFE800F05604500A3656430002200749E7
:101D50008871FFF75EFA4CE004488079401E002845
:101D60001ED506201FE0B7E1D3000020CC000020E4
:101D7000566D0008966D0008D66E000840000020E1
:101D80004C000020440000204E000020566F000848
:101D90004D000020BC00002016820008566E00088E
:101DA000FC488079401EFB498871FFF732FA20E039
:101DB000F8484078401C182190FBF1F201FB12001A
:101DC000F4494870FFF725FA13E0F248407808B963
:101DD000172002E0EF484078401EEE494870FFF7B8
:101DE00018FA06E00024FFF7EEFB00F0F9FA00E035
:101DF00000BF00BF71E19DF8080007283ED2DFE870
:101E000000F03D04390A193D29000320E149887199
:101E1000FFF7FFF933E0DF488079401E002801D545
:101E2000062002E0DB488079401EDA498871FFF71E
:101E3000F0F924E0D7484079401C40B2D5494871B8
:101E4000084690F90500062801DD00204871FFF7DB
:101E5000E0F914E0CF484079401E40B2CD494871C6
:101E6000084690F90500002801DA06204871FFF7BE
:101E7000D0F904E00024FFF7A6FB00E000BF00BF9C
:101E80002BE19DF8080007283DD2DFE800F03C0474
:101E9000380D1C3C2A000420BE498871FFF7B9F9AF
:101EA00032E0B5E074E031E0BA488079401E0028A5
:101EB00001D5062002E0B7488079401EB5498871F7
:101EC000FFF7A7F920E0B3488078401CB14988703B
:101ED000084680781F2801DD01208870FFF799F9F6
:101EE00012E0AC488078401EAA4988700846807885
:101EF000012801DA1F208870FFF78BF904E0002425
:101F0000FFF761FB00E000BF00BFE6E09DF80800BE
:101F100007283AD2DFE800F03904350A19392700DA
:101F200005209C498871FFF774F92FE09948807962
:101F3000401E002801D5062002E096488079401E08
:101F400094498871FFF765F920E09248C078401CF9
:101F50009049C8700846C0780C2801DD0120C8707F
:101F6000FFF757F912E08B48C078401E8949C870C6
:101F70000846C078012801DA0C20C870FFF749F93B
:101F800004E00024FFF71FFB00E000BF00BFA4E057
:101F90009DF80800072838D2DFE800F03704330A3C
:101FA0001937260006207B498871FFF732F92DE0AA
:101FB00078488079401E002801D5062002E0754847
:101FC0008079401E73498871FFF723F91EE071483C
:101FD0000079401C642190FBF1F201FB12006D4975
:101FE0000871FFF716F911E06A48007908B9632013
:101FF00002E068480079401E66490871FFF709F958
:1020000004E00024FFF7DFFA00E000BF00BF64E057
:102010009DF80800012806D0022853D0032808D0D4
:10202000042856D114E000205A498871FFF7F1F8CE
:1020300050E058488079401E002801D5062002E073
:1020400054488079401E53498871FFF7E2F841E017
:10205000002403F038FE4F48007840B24E494870E3
:102060004C48407840B288704A48807840B2C87086
:102070004848C07840B208714648007940B288713B
:102080004448407948710020087000F00EFE03F0CB
:102090003DFE00F0A5F90220102120233F4ACDE9A2
:1020A00000107021822000F0A4FB00F06BFB4FF4C5
:1020B0007A7002F0A5F900BF002036498871FFF759
:1020C00082FA07E00024002032498871FFF77BFA8A
:1020D00000E000BF00BF00E000BF00BF03E000243D
:1020E00001E0002400BF00BF8BE47CB5054601245D
:1020F00003F0E9FD2A48032100232202CDE9001064
:1021000028A12B4801F0FAFE04462A4803210023A7
:102110008022CDE9001028A12A4801F0EFFE0446F4
:102120002948042100238022CDE9001027A12A4854
:1021300001F0E4FE04462948032100234FF4807295
:10214000CDE9001026A1294801F0D8FE044603F08D
:10215000DDFD2748006801F01FFF7CBD1CB500F0C5
:10216000A3F800F0FCFE00F0F1FB00F07EFC00F0B4
:1021700076FA204800F01CFB4FF4FA7000F0B8F833
:10218000012001F0C9F91C4908600846006800B93F
:1021900037E037E0CC000020D3000020566E000866
:1021A0002C000020436C6F636B5F5461736B000005
:1021B0002D0D0008300000204C65645F5461736B86
:1021C0000000000041100008340000204B65795FDA
:1021D0005461736B000000005910000838000020A3
:1021E0004D656E755F5461736B00000083190008C4
:1021F0002800002016820008440000200220184910
:102200000860FBE700220121052000F094FF15493A
:10221000086000211348006800F034FF002201210B
:10222000052000F088FF1049086000210E48006872
:1022300000F028FF01240D48012100238022CDE970
:1022400000100BA10E4801F059FE0446012C01D1EB
:1022500002F081FB02E0022001490860FBE7000078
:10226000140801403C00002040000020280000200D
:102270004170704372656174655F5461736B0000F7
:10228000EB200008704700BFFEE700BFFEE700BF7D
:10229000FEE700BFFEE7704710B502F024FD0128FD
:1022A00001D003F04BFD10BD08B501210420FEF75D
:1022B0008FFC0220ADF8000010208DF803000320F1
:1022C0008DF8020069460948FEF7C6F90220ADF80C
:1022D000000069460548FEF7BFF902210348FEF7F2
:1022E0006AFA02210148FEF766FA08BD00080140BB
:1022F0000022002100BF06E0002200E0521CB2F5DF
:10230000205FFBD3491C8142F6D3704770B5044669
:1023100025462021FE48FEF74EFA002617E005F07C
:10232000800020B11021FA48FEF743FA03E01021A3
:10233000F748FEF740FA2021F548FEF73AFA202147
:10234000F348FEF738FA6806050E701CC6B2082E70
:10235000E5DB70BD10B505E00221EE48FEF70FFA8F
:1023600000B900E0F8E700BF10BD10B504464021F9
:10237000E748FEF71EFA4021E548FEF71CFA8021E7
:10238000E348FEF718FA2046FFF7C0FF4021E04877
:10239000FEF70FFA10BD10B504464021DC48FEF7E9
:1023A00008FA4021DA48FEF706FA8021D848FEF7FD
:1023B00000FA2046FFF7AAFF4021D548FEF7F9F9B9
:1023C00010BD70B505463220FFF7CFFF002404E0B2
:1023D000285DFFF7E0FF601CC4B2E32CF8DB70BDA2
:1023E00010B50121CB48FEF7E6F96420FFF780FF26
:1023F0000121C848FEF7DDF96420FFF779FF10BD21
:102400002DE9F04700240F27002500264FF027086C
:102410004FF00109FFF7E4FFFFF79CFF1220FFF7E1
:10242000A4FFFFF797FF0120FFF79FFF2720FFF78B
:10243000B2FF0120FFF7AFFF0020FFF7ACFF112034
:10244000FFF793FF0320FFF7A6FF3C20FFF78DFF68
:102450000020FFF7A0FF2120FFF787FF0020FFF7F4
:102460009AFF8020FFF797FF2C20FFF77EFFAA49F5
:1024700091F89E00FFF78FFF3F20FFF776FFA649F8
:1024800091F89900FFF787FF0320FFF76EFFA2493D
:1024900091F89A00FFF77FFF0420FFF766FF9E493F
:1024A00091F89B00FFF777FF9B4991F89C00FFF79D
:1024B00072FF994991F89D00FFF76DFF9648FFF76D
:1024C00080FF4420FFF751FF2046FFF764FF3846A6
:1024D000FFF761FF4520FFF748FF2846FFF75BFF46
:1024E0003046FFF758FF4046FFF755FF4846FFF7D5
:1024F00052FF4E20FFF739FF2046FFF74CFF4F20D9
:10250000FFF733FF2846FFF746FF3046FFF743FF4C
:10251000FFF720FFBDE8F08770B504460D460020A8
:1025200022462B46002110E04606300E02F0C0067F
:10253000C02E03D002F0C006402E02D140F00100B0
:1025400000E000BF9606320E491C0429ECD300219E
:1025500010E04606300E03F0C006C02E03D003F094
:10256000C006402E02D140F0010000E000BF9E06F0
:10257000330E491C0429ECD370BD70B504460D46DA
:10258000002022462B46002110E04606300E02F0C5
:10259000C006C02E03D002F0C006802E02D140F04B
:1025A000010000E000BF9606320E491C0429ECD35E
:1025B000002110E04606300E03F0C006C02E03D006
:1025C00003F0C006802E02D140F0010000E000BF01
:1025D0009E06330E491C0429ECD370BD10B5222091
:1025E000FFF7C3FEC720FFF7D6FE2020FFF7BDFE92
:1025F000FFF7B0FE1020FFF7B8FE0120FFF7CBFE7B
:102600006420FFF775FE10BD70B505462420FFF766
:10261000ACFE00240AE02A195178285DFFF77CFF00
:102620000646F143C8B2FFF7B6FEA41CB4F5145F2A
:10263000F1D32620FFF799FE00240AE02A195178E9
:10264000285DFFF79AFF0646F143C8B2FFF7A3FEE5
:10265000A41CB4F5145FF1D3FFF7C0FF70BD2DE9E2
:10266000F04700240F2727250126A046A146FFF7A3
:10267000B7FEFFF76FFE1220FFF777FEFFF76AFE47
:102680000120FFF772FE2720FFF785FE0120FFF7EC
:1026900082FE0020FFF77FFE1120FFF766FE01207B
:1026A000FFF779FE3C20FFF760FE0120FFF773FE85
:1026B0002120FFF75AFE0020FFF76DFE8020FFF774
:1026C0006AFE1820FFF751FE8020FFF764FE4420C9
:1026D000FFF74BFE2046FFF75EFE3846FFF75BFE36
:1026E0004520FFF742FE2846FFF755FE3046FFF72C
:1026F00052FE4046FFF74FFE4846FFF74CFE4E2085
:10270000FFF733FE2046FFF746FE4F2006E00000AD
:1027100000080140000C01402A3B0108FFF725FE9C
:102720002846FFF738FE3046FFF735FEFFF712FE6A
:10273000BDE8F08710B52220FFF717FEF720FFF75E
:102740002AFE2020FFF711FEFFF704FE1020FFF7FE
:102750000CFE0120FFF71FFE6420FFF7C9FD10BD2E
:1027600070B504462420FFF700FE002504E0207821
:10277000FFF711FE641C6D1CB5F5945FF7D3FFF7EE
:10278000D9FF70BD10B52220FFF7EFFDFF20FFF746
:1027900002FE2020FFF7E9FDFFF7DCFD1020FFF728
:1027A000E4FD0120FFF7F7FD3220FFF7A1FD10BD8A
:1027B00070B5044626462420FFF7D7FD002504E027
:1027C0002078FFF7E8FD641C6D1CB5F5945FF7D326
:1027D00034462620FFF7C9FD002504E02078FFF7E6
:1027E000DAFD641C6D1CB5F5945FF7D3FFF7A2FF0B
:1027F00070BD2DE9F04F85B004460D461746994649
:10280000DDE90E8A2846E91705EB5171CD104046E7
:102810004FEAE87108EB517105EBE101491E0491A3
:1028200040F22710041B2046E11704EB1161091246
:102830000391E11704EB11610912A4EB012102914C
:10284000A4EB0900461C3046F11706EB1161091292
:102850000191F11706EB11610912A6EB012100911C
:102860004420FFF782FDE8B2FFF795FD0499C8B256
:10287000FFF791FD4520FFF778FD0299C8B2FFF7F9
:102880008AFD0399C8B2FFF786FD0099C8B2FFF729
:1028900082FD0199C8B2FFF77EFD4E20FFF765FD6E
:1028A000E8B2FFF778FD4F20FFF75FFD0299C8B24D
:1028B000FFF771FD0399C8B2FFF76DFDFFF74AFD01
:1028C0002420FFF752FD4FF0000B17E0BAF1010F83
:1028D00003D13878FFF75FFD7F1CBAF1020F05D1F5
:1028E0003978C943C8B2FFF756FD7F1CBAF1030F10
:1028F00002D1FF20FFF74FFD0BF1010B09FB08F0A0
:10290000C11700EB5171BBEBE10FDFDB05B0BDE898
:10291000F08F10B52420FFF728FD002403E0FF20EE
:10292000FFF739FD641CB4F5945FF8D32620FFF758
:102930001CFD002403E0FF20FFF72DFD641CB4F50F
:10294000945FF8D3FFF7F6FE10BD000008B5012133
:102950000820FEF73DF901210820FEF739F9012191
:102960000420FEF735F901210420FEF731F9012199
:102970000420FEF72DF901210420FEF729F940205B
:10298000ADF8000010208DF8030002208DF8020041
:1029900069462248FDF760FE2020ADF800001020B7
:1029A0008DF8030002208DF8020069461B48FDF7F0
:1029B00053FE1020ADF800008DF8030002208DF8C2
:1029C000020069461548FDF747FE8020ADF800007B
:1029D00010208DF8030002208DF8020069460F4890
:1029E000FDF73AFE0120ADF8000010208DF803003D
:1029F00002208DF8020069460948FDF72DFE0220ED
:102A0000ADF8000004208DF8030002208DF80200CC
:102A100069460348FDF720FE08BD0000000801409C
:102A2000000C014010B500214FF0E0235A69FE4B25
:102A30001B68FE4CB3FBF4F303FB00F14FF0E02303
:102A40001B6923F001034FF0E024236100E000BF85
:102A50000B1EA1F10101FAD14FF0E0231B6943F0F5
:102A600001034FF0E024236110BD08B501211820B7
:102A7000FEF7AEF810208DF8030003208DF8020059
:102A80004FF40050ADF800006946E948FDF7E4FD59
:102A90004FF48070ADF800006946E648FDF7DCFDB4
:102AA0004FF40070ADF800006946E248FDF7D4FD30
:102AB0004FF40051DE48FDF77EFE4FF48071DD4893
:102AC000FDF779FE08BD38B504464FF40070ADF847
:102AD000000003208DF8020014B1012C10D107E092
:102AE00010208DF803006946D248FDF7B5FD08E0D7
:102AF00048208DF803006946CE48FDF7ADFD00E0A3
:102B000000BF00BF38BD70B504460D460020FFF77A
:102B1000DAFF4FF40051C648FDF74BFE0320FFF7E4
:102B200081FF002623E004F0010028B14FF400717A
:102B3000C048FDF73EFE04E04FF40071BD48FDF7CC
:102B40003AFE64100120FFF76DFF4FF48071B94821
:102B5000FDF72FFE0120FFF765FF4FF48071B548A8
:102B6000FDF729FE0120FFF75DFF701CC6B2082E9D
:102B7000D9DB002623E005F0010028B14FF40071F5
:102B8000AC48FDF716FE04E04FF40071A948FDF7CC
:102B900012FE6D100120FFF745FF4FF48071A5482C
:102BA000FDF707FE0120FFF73DFF4FF48071A148BC
:102BB000FDF701FE0120FFF735FF701CC6B2082E9D
:102BC000D9DB4FF400519A48FDF7F5FD70BD70B5A3
:102BD0000446002644F001044FF400519448FDF7E8
:102BE000E8FD0320FFF71EFF002523E004F00100AD
:102BF00028B14FF400718F48FDF7DBFD04E04FF47E
:102C000000718C48FDF7D7FD64100120FFF70AFF23
:102C10004FF480718748FDF7CCFD0120FFF702FFDC
:102C20004FF480718348FDF7C6FD0120FFF7FAFEDF
:102C3000681CC5B2082DD9DB0120FFF744FF052031
:102C4000FFF7F0FE00251FE04FF400717948FDF713
:102C500096FD20B10120A8403043C6B202E0012019
:102C6000A84086434FF480717248FDF7A2FD012011
:102C7000FFF7D8FE4FF480716E48FDF79CFD0120F0
:102C8000FFF7D0FE681CC5B2082DDDDB4FF4005104
:102C90006748FDF790FD0020FFF715FF4FF4007126
:102CA0006448FDF788FD304670BD10B500218E20C8
:102CB000FFF729FF604890F900000A2190FBF1F22C
:102CC00001FB12015C4890F900000A2290FBF2F02F
:102CD00001EB0010C4B221468020FFF714FF5648D4
:102CE00090F901000A2190FBF1F201FB1201524818
:102CF00090F901000A2290FBF2F001EB0010C4B23F
:102D000021468220FFF7FFFE4B4890F902000A217E
:102D100090FBF1F201FB1201474890F902000A22F0
:102D200090FBF2F001EB0010C4B221468420FFF7C3
:102D3000EAFE414890F903000A2190FBF1F201FB01
:102D400012013D4890F903000A2290FBF2F001EBDA
:102D50000010C4B221468620FFF7D5FE364890F910
:102D600004000A2190FBF1F201FB1201324890F9B4
:102D700004000A2290FBF2F001EB0010C4B22146DD
:102D80008820FFF7C0FE2C4841798A20FFF7BBFE60
:102D9000294890F906000A2190FBF1F201FB12018B
:102DA000254890F906000A2290FBF2F001EB001092
:102DB000C4B221468C20FFF7A6FE80218E20FFF7AB
:102DC000A2FE10BD10B500248020FFF700FF0446CE
:102DD0002046E21704EB12721211A4EB02122146F4
:102DE000E31704EB13731B1103EB830302EB4302A2
:102DF00052B2114B1A708220FFF7E9FE04462046BA
:102E0000E21704EB12721211A4EB02122146E3172F
:102E100004EB13731B1103EB830302EB430252B267
:102E2000054B5A70842009E00000002040420F004A
:102E300000100140000C0140D3000020FFF7C7FE46
:102E400004462046E21704EB12721211A4EB0212A0
:102E50002146E31704EB13731B1103EB830302EB0F
:102E6000430252B22F4B9A708620FFF7B0FE044601
:102E70002046E21704EB12721211A4EB0212214653
:102E8000E31704EB13731B1103EB830302EB430201
:102E900052B2244BDA708820FFF799FE0446204690
:102EA000E21704EB12721211A4EB02122146E3178F
:102EB00004EB13731B1103EB830302EB430252B2C7
:102EC000184B1A718A20FFF782FE04462046E2174B
:102ED00004EB12721211A4EB02122146E31704EB69
:102EE00013731B1103EB830302EB430252B20D4B2E
:102EF0005A718C20FFF76BFE04462046E21704EB64
:102F000012721211A4EB02122146E31704EB1373A1
:102F10001B1103EB830302EB430252B2014B9A7184
:102F200010BD0000D300002008B54FF44070FDF73D
:102F300037FA28208DF8000005208DF801000020C8
:102F40008DF8020001208DF803006846FDF72DFA88
:102F500028208DF800006846FDF727FA08BD0EB559
:102F600001210920FDF734FEFFF7DEFF4FF480401A
:102F7000ADF8080048208DF80B0003208DF80A00FA
:102F800002A91A48FDF768FB0E210120FDF77AFC23
:102F90004FF48040009000208DF804000C208DF844
:102FA000050001208DF806006846FDF775FA4FF41C
:102FB0000040ADF8080048208DF80B0002A90B482E
:102FC000FDF74AFB0F210120FDF75CFC4FF40040A8
:102FD000009000208DF804000C208DF805000120E1
:102FE0008DF806006846FDF757FA0EBD000C01404B
:102FF00000F1080141604FF0FF31816000F10801EC
:10300000C1600161002101607047002101617047CA
:1030100042684A6093688B60936859609160086168
:1030200003685B1C0360704710B502460B685C1CAC
:103030000CB9106907E002F1080000E0406844683C
:1030400024689C42FAD944684C604C68A16088604E
:1030500041600A611468641C146010BD01460A696D
:10306000D1E901309860D1E9010358605068884285
:1030700001D188685060002008611068401E10600F
:103080001068704770B505460E462C462CB940F2C4
:103090001B12F8A1FEA002F025FF02F014FED4E9F5
:1030A0000F12206801FB020060600020A06320680E
:1030B000A060E06B401E226C216800FB0210E06003
:1030C000FF2084F8440084F845009EB9206908B9BF
:1030D000012000E00020A8B904F1100001F028FD53
:1030E00080B14FF08050EE490860BFF34F8FBFF3BF
:1030F0006F8F07E004F11000FFF77AFF04F124005E
:10310000FFF776FF02F002FE012070BD2DE9F041CD
:1031100006460D4617469846069C0DB9246000E009
:103120002760E663256401212046FFF7ABFF0020FE
:10313000A064BDE8F0812DE9F84305460E469046AF
:103140000DB1012000E0002028B94FF4C472C9A1DC
:10315000CFA002F0C7FE0EB9002701E005FB06F77D
:1031600007F14C0002F035FC044644B104F14C096F
:1031700043464A46314628460094FFF7C7FF20469B
:10318000BDE8F8832DE9F04104460F4615464FF09F
:103190000008A66B206C40B9206860BB606801F035
:1031A00000FE80460020606025E07DB93946226C33
:1031B000A06802F031FE216CA0680844A060D4E948
:1031C0000110884217D32068A06014E03946226CB1
:1031D000E06802F021FE216CE068401AE06021689E
:1031E000E068884203D2216C6068401AE060022DDA
:1031F00001D106B1761E701CA0634046BDE8F08187
:103200002DE9F3410D460098846C00272CB940F657
:10321000CE1298A19EA002F065FEA06BE16B8842E1
:1032200001D2012000E0002028B940F6CF1291A180
:1032300097A002F057FEA06BE16B88421BD294F975
:1032400045602A4669462046FFF79CFF0746701CEA
:1032500060B9606A08B9012000E0002050B904F1AB
:10326000240001F065FC28B1012703E0701C40B286
:1032700084F8450000BF3846BDE8FC8170B50446BF
:1032800002F021FD94F945501AE0A06C38B10021FC
:103290002046FFF7B5FF88B101F01EFD0EE0606A21
:1032A00008B9012000E0002038B904F1240001F041
:1032B0003FFC18B101F010FD00E003E0681E45B2CC
:1032C000002DE2DC00BFFF2084F8450002F01EFD67
:1032D00002F0F9FC94F9445010E0206908B901208B
:1032E00000E0002048B904F1100001F021FC08B111
:1032F00001F0F2FC681E45B200E001E0002DECDCBC
:1033000000BFFF2084F8440002F000FD70BD70B5DE
:10331000054602F0D8FCA86BE96B884201D1012474
:1033200000E0002402F0F2FC204670BD2DE9FF43CE
:1033300083B0064688461D464FF0000934462CB936
:1033400040F2D9224BA152A002F0CCFDB8F1000FFF
:1033500001D1206C08B9012000E0002028B940F21A
:10336000DA2244A14AA002F0BDFD022D02D1E06B99
:10337000012801D1012000E0002028B940F2DB2221
:103380003CA143A002F0AEFD01F0ADFC08B90598E8
:1033900008B9012000E0002028B940F2DE2235A162
:1033A0003BA002F09FFD00BF02F08DFCA06BE16B23
:1033B000884201D3022D38D12A4641462046FFF7E4
:1033C000E1FE0746A06C68B129462046FFF718FFCA
:1033D00028B34FF0805032490860BFF34F8FBFF3DE
:1033E0006F8F1CE0606A08B9012000E0002068B916
:1033F00004F1240001F09CFB88B14FF08050284973
:103400000860BFF34F8FBFF36F8F08E03FB14FF0FD
:10341000805023490860BFF34F8FBFF36F8F02F0D6
:1034200075FC012007B0BDE8F083059818B902F0DB
:103430006DFC0020F6E7B9F1000F04D101A801F0FE
:10344000FBFB4FF0010902F061FC00F078FF02F095
:103450003AFC94F94400401C10B9002084F8440060
:1034600094F94500401C10B9002084F8450002F092
:103470004DFC17E02E2E5C2E2E5C46726565525474
:103480004F535C7372635C71756575652E630000E4
:103490004572726F723A25732C25640D0A00000084
:1034A00004ED00E005A901A801F0D8FBF8B9204619
:1034B000FFF72DFFA8B104F11000059901F0DAFA29
:1034C0002046FFF7DBFE00F08FFE00287FF46CAF94
:1034D0004FF08050FA490860BFF34F8FBFF36F8FF2
:1034E00062E72046FFF7CAFE00F07EFE5CE720465A
:1034F000FFF7C4FE00F078FE002093E710B5044605
:103500004CB1002060602060E06000231A4619463C
:103510002046FFF70BFF10BD2DE9F04104460126C0
:103520000027224600210120FFF705FE0546284618
:10353000FFF7E4FF2846BDE8F08170B50646344643
:103540003CB940F24122AFF2D401AFF2BC0002F02C
:10355000C9FC01F0C5FB616888420CD1E068401EDF
:10356000E060E06828B900231A4619462046FFF7B4
:10357000DDFE012500E00025284670BD70B505463A
:1035800002F0A1FBA86B08B9012400E0002402F0BE
:10359000BDFB204670BD70B504460D46206C70B171
:1035A000216CE0680844E0606168E068884201D30B
:1035B0002068E0602846226CE16802F02DFC70BDB6
:1035C0002DE9FF4782B005460E461F464FF0000A20
:1035D0002C463CB940F2DC42AFF26811AFF2501019
:1035E00002F080FC0EB9206C08B9012000E0002038
:1035F00038B940F2DD42AFF28411AFF26C1002F044
:1036000071FC01F070FB08B9049808B9012000E0D2
:10361000002038B94FF49C62AFF2A811AFF29010BD
:1036200002F060FC00BF02F04EFBD4F83890B9F114
:10363000000F3DD0D4F80C8031462046FFF7ABFF99
:10364000DFB9A9F10100A063206810B901F020FCE6
:103650006060206908B9012000E0002010BB04F17F
:10366000100001F065FAE8B14FF08050944908600D
:10367000BFF34F8FBFF36F8F14E0C4F80C80606A04
:1036800008B9012000E0002060B904F1240001F035
:103690004FFA38B14FF0805089490860BFF34F8F1F
:1036A000BFF36F8F02F032FB012006B0BDE8F08758
:1036B000049818B902F02AFB0020F6E7BAF1000FCF
:1036C00004D1684601F0B8FA4FF0010A02F01EFB7F
:1036D00000F035FE02F0F7FA94F94400401C10B9EE
:1036E000002084F8440094F94500401C10B90020E3
:1036F00084F8450002F00AFB04A9684601F0AEFA1E
:1037000040BB2046FFF73AFFF0B1206830B902F025
:10371000DAFA606801F0F3FA02F0F8FA04F1240032
:10372000049901F0A7F92046FFF7A8FD00F05CFD21
:1037300000287FF478AF4FF0805061490860BFF3F4
:103740004F8FBFF36F8F6EE72046FFF797FD00F0B6
:103750004BFD68E72046FFF791FD00F045FD204650
:10376000FFF70CFF0028EED000209EE72DE9F04186
:1037700006460F4634463CB94FF41E72AFF20C3188
:10378000AFF2F42002F0AEFB01F0AAFA61688842C1
:1037900004D1E068401CE06001250AE000233A46BD
:1037A00019462046FFF70CFF054615B1E068401C9E
:1037B000E0602846BDE8F08170B505460E460DB1C3
:1037C000012000E0002038B940F2BD22AFF25C31A8
:1037D000AFF2443002F086FBAE4201D8012000E097
:1037E000002038B940F2BE22AFF27831AFF260303B
:1037F00002F078FB022200212846FFF79CFC0446D9
:1038000004B1A663204670BD2DE9F05F80468A466C
:1038100015461E4644463CB940F29F32AFF2AC31E9
:10382000AFF2943002F05EFBBAF1000F01D1206CD0
:1038300008B9012000E0002038B94FF46872AFF2F7
:10384000CC31AFF2B43002F04DFB022E02D1E06B6E
:10385000012801D1012000E0002038B940F2A13256
:10386000AFF2F031AFF2D83002F03CFB02F07EFA5A
:1038700000BF5021EFF3118081F31188BFF34F8F08
:10388000BFF36F8F00BF0746A06BE16B884201D387
:10389000022E2ED194F945B0324651462046FFF70C
:1038A00071FC0BF10100E0B9A06C58B13146204623
:1038B000FFF7A6FCD0B1CDB10120286016E00000D2
:1038C00004ED00E0606A08B9012000E0002068B95A
:1038D00004F1240001F02CF940B13DB10120286031
:1038E00004E00BF1010040B284F845004FF00109FB
:1038F00001E04FF0000900BF87F3118800BF484680
:10390000BDE8F09F2DE9F04707460D463C463CB91F
:1039100040F23C42AFF2A441AFF28C4002F0E2FA36
:10392000206C08B9012000E0002038B94FF488620B
:10393000AFF2C041AFF2A84002F0D4FA206808B953
:10394000606808B9012000E0002038B940F2454223
:10395000AFF2E041AFF2C84002F0C4FA02F006FA5A
:1039600000BF5021EFF3118081F31188BFF34F8F17
:10397000BFF36F8F00BF0646D4F83890E06B484520
:1039800029D994F945A009F10100A0630AF10100C9
:10399000C8B9A06C40B100212046FFF731FCB8B196
:1039A000B5B10120286013E0606A08B9012000E089
:1039B000002068B904F1240001F0BAF840B13DB12B
:1039C0000120286004E00AF1010040B284F84500BB
:1039D0004FF0010801E04FF0000800BF86F31188A6
:1039E00000BF4046BDE8F0872DE9F05F06468946F6
:1039F000174634463CB94FF4B462AFF28851AFF287
:103A0000705002F06FFAB9F1000F01D1206C08B9C3
:103A1000012000E0002038B940F2A152AFF2AC51D1
:103A2000AFF2945002F05EFA02F0A0F900BF50210C
:103A3000EFF3118081F31188BFF34F8FBFF36F8FC6
:103A400000BF0546D4F838A0BAF1000F22D094F98F
:103A500044B049462046FFF79EFDAAF10100A0634D
:103A60000BF1010070B9206908B9012000E00020C5
:103A700068B904F1100001F05BF840B13FB10120DA
:103A8000386004E00BF1010040B284F844004FF0CC
:103A9000010801E04FF0000800BF85F3118800BF66
:103AA0004046BDE8F09F2DE9F0470646884634467B
:103AB0003CB940F2FC52AFF24461AFF22C6002F02C
:103AC00011FAB8F1000F01D1206C08B9012000E013
:103AD000002038B940F2FD52AFF26861AFF2506099
:103AE00002F000FA206C08B1012000E0002038B993
:103AF00040F2FE52AFF28461AFF26C6002F0F2F974
:103B000002F034F900BF5021EFF3118081F31188E6
:103B1000BFF34F8FBFF36F8F00BF0546A06B48B157
:103B2000D4F80C9041462046FFF735FDC4F80C90C0
:103B3000012700E0002700BF85F3118800BF384649
:103B4000BDE8F08770B504463CB940F22F62AFF291
:103B5000DC61AFF2C46002F0C5F902F0B4F8A56B05
:103B600002F0D4F8284670BD70B5044625463DB92C
:103B700040F24162AFF20471AFF2EC6002F0B2F9D0
:103B800002F0A1F8D5E90E10461A02F0BFF830464F
:103B900070BD70B504463CB940F25162AFF22C7171
:103BA000AFF2147002F09EF9A56B284670BD014675
:103BB00000200EE0714A02EBC00252688A4207D12F
:103BC00000226E4B43F8302003EBC0035A6002E042
:103BD000401C0A28EED300BF704770B50446254646
:103BE0003DB940F25D62AFF27471AFF25C7002F009
:103BF00079F92846FFF7DBFF284601F06DFF70BD1D
:103C000070B505463DB940F29372AFF29871AFF2CC
:103C1000807002F067F9A86B08B9012400E0002465
:103C2000204670BD70B504463CB940F2BA72AFF29E
:103C3000BC71AFF2A47002F055F9A06BE16B884241
:103C400001D1012500E00025284670BD0246002074
:103C50000BE04A4B53F8303033B9484B43F830103F
:103C600003EBC0035A6002E0401C0A28F1D300BFF6
:103C700070470246002000210AE0404B03EBC103DD
:103C80005B68934203D13D4B53F8310002E0491C7D
:103C90000A29F2D300BF70472DE9F04105460E46D0
:103CA00017462C4602F00FF894F94400401C10B956
:103CB000002084F8440094F94500401C10B900200D
:103CC00084F8450002F022F8A06B28B93A46314644
:103CD00004F1240000F011FF2046FFF7CFFABDE801
:103CE000F08170B50446002204212046FFF723FA34
:103CF0000546284670BD70B504460E4601F0E3FF48
:103D0000A06C08B1002505E0A06B08B1002501E01A
:103D1000A664012501F0FAFF284670BD2DE9F041A7
:103D200005460F462E46B06CB84201D000240AE08A
:103D3000B06B08B1002406E001F0C5FF0020B064BC
:103D400001F0E4FF01242046BDE8F08138B50546C6
:103D50000C46002000900023224669462846FFF7C3
:103D60002FFC009838BD38B5044600200090002292
:103D700069462046FFF738FE009838BD5401002000
:103D800010B5002407E004EB8401F74A02EB810040
:103D9000FFF72EF9641C202CF5D3F448FFF728F91F
:103DA000F348FFF725F9F348FFF722F9F248FFF748
:103DB0001FF9F248FFF71CF9EC48F1490860EC489C
:103DC000F049086010BD10B5044601F07CFFEE48D4
:103DD0000068401CEC490860EC48006840B9EB48BA
:103DE00004600846006801280DD1FFF7C9FF0AE00A
:103DF000E748006838B9E5480068C06AE16A884267
:103E000001D8E2480460E3480068401CE1490860CA
:103E100094F82C1001208840DF4909680843DE49E6
:103E20000860E16A01EB8101CF4A02EB8100211DAC
:103E3000FFF7EEF801F06AFFD548006868B1D34893
:103E40000068C06AE16A884207D24FF08050D349C7
:103E50000860BFF34F8FBFF36F8F10BD2DE9FF5F79
:103E600081460F469246DDE90E6B109CAAF10100D7
:103E7000216B01EB800828F0070808F0070008B95B
:103E8000012000E0002028B940F22B32C4A1CBA0D1
:103E900002F028F8002507E0795D04F1340041556F
:103EA000785D00B902E06D1C102DF5D300BF002134
:103EB00043200155202E00D31F26E66266640020B1
:103EC000A064201DFFF7A1F804F11800FFF79DF88A
:103ED0002461C6F12000A06164620020E06484F8DF
:103EE000500049464046039A01F07AFE2060BBF13B
:103EF000000F01D0CBF80040BDE8FF9F2DE9FF4F38
:103F000085B0804689461746DDE912ABB80001F05E
:103F100060FD064656B1542001F05BFD04460CB12D
:103F2000266304E0304601F0D7FD00E000247CB1B8
:103F30000020CDE900ABCDE902403A464946404673
:103F4000089BFFF78BFF2046FFF73DFF012501E0AF
:103F50004FF0FF35284609B0BDE8F08F8849096861
:103F6000096809B9012100E0002121B14FF0FF31BA
:103F7000964A116006E082490968C968C868934A90
:103F800041681160704710B50446206B01F0A4FD34
:103F9000204601F0A1FD10BD70B5054601F093FE6D
:103FA00015B97A48006800E028460446201DFFF74E
:103FB00055F878B9E06A00EB80006B4951F82000B1
:103FC00040B994F82C100120884073490968814356
:103FD00071480160A06A18B104F11800FFF73EF8BB
:103FE0006C480068401C6B4908606848006884425F
:103FF00009D1211D6048FFF70BF875480068401C87
:104000007349086009E060480068401E5E49086026
:104010002046FFF7B8FFFFF7A1FF01F077FE5C48ED
:104020000068C0B159480068844214D169480068EA
:1040300008B9012000E0002028B940F2654258A1EB
:104040005EA001F04FFF4FF0805054490860BFF36D
:104050004F8FBFF36F8F70BD2DE9F0414FF0000817
:104060005C480068002872D15B480068451C5A48CB
:104070000560EDB942480068006808B9012000E019
:10408000002028B940F6D91245A14CA001F02AFF22
:104090003B4807683B480068394908603948076071
:1040A0004E480068401C4D490860FFF757FF00BFAD
:1040B0004648006885423CD300BF3148006800682C
:1040C00008B9012000E0002020B14FF0FF303F4947
:1040D00008602DE02A480068C068C4686668B54278
:1040E00002D23A48066023E0201DFEF7B7FFA06A1F
:1040F00018B104F11800FEF7B1FF94F82C1001205C
:10410000884025490968084323490860E16A01EBB2
:104110008101154A02EB8100211DFEF779FF1B4941
:10412000E06A0968C96A8842C7D34FF00108C4E74A
:1041300000BF16480068C06A00EB80000A4951F8C9
:104140002000012801D94FF0010805E0FFE72448CD
:104150000068401C224908602248006808B14FF0FE
:1041600001084046BDE8F081A4010020240400209D
:10417000380400204C040020600400207404002057
:10418000E0000020E4000020EC000020DC00002023
:10419000F800002008010020F400002004ED00E0F9
:1041A0002E2E5C2E2E5C4672656552544F535C7306
:1041B00072635C7461736B732E6300004572726F7F
:1041C000723A25732C25640D0A0000000C010020B2
:1041D000E800002014010020F0000020040100206D
:1041E000FC0000200001002070B500240026FE48DD
:1041F000006838B94FF4FD62AFF25C01AFF24400E1
:1042000001F070FE01F05FFDF7480068401EF649BE
:1042100008600846006800284FD1F448006800286C
:104220004BD024E0F248C068C46804F11800FEF7DF
:1042300015FF201DFEF712FF94F82C100120884076
:10424000EC4909680843EB490860E16A01EB810128
:10425000E94A02EB8100211DFEF7DAFEE749E06A38
:104260000968C96A884202D30120E5490860E0482C
:10427000006808B9012000E000200028D2D00CB16D
:10428000FFF76CFEDF48056865B100BFFFF7E4FE8D
:1042900010B10120DA4908606D1E002DF6D1002012
:1042A000D8490860D648006838B101263007D64999
:1042B0000860BFF34F8FBFF36F8F01F027FD3046CB
:1042C00070BD2DE9F04105460E46D0480768CB4841
:1042D0000068001DFEF7C2FE50B9C848006890F89B
:1042E0002C1001208840C34909688143C1480160FE
:1042F000681C38B936B1C1480168091DC448FEF7C9
:1043000087FE1AE07C19BD4800684460BC4207D2B1
:10431000BA480168091DBF480068FEF785FE0CE039
:10432000B6480168091DBC480068FEF77DFEBB4821
:104330000068844201D2B9480460BDE8F081AA480F
:104340000068401CA849086070472DE9F047044602
:104350000F464FF000093CB940F27942AFF2C0116C
:10436000AFF2A81001F0BEFD0FB1012000E0002067
:1043700038B940F27A42AFF2D811AFF2C01001F072
:10438000B1FD9948006808B9012000E0002038B963
:1043900040F27B42AFF2F811AFF2E01001F0A2FD63
:1043A000FFF7CDFF994806682068C5192068B0421C
:1043B00007D92068A8420BD9B54209D94FF00109A5
:1043C00006E02068A84201D8B54201D94FF00109A2
:1043D0002560B9F1000F03D0A81B0021FFF771FF82
:1043E000FFF702FF8046B8F1000F07D14FF0805071
:1043F00085490860BFF34F8FBFF36F8FBDE8F0872B
:1044000070B504460025BCB17748006808B90120A2
:1044100000E0002038B940F2CF42AFF27C21AFF289
:10442000642001F05FFDFFF78AFF00212046FFF7BF
:1044300048FFFFF7D9FE05463DB94FF0805072495D
:104440000860BFF34F8FBFF36F8F70BD2DE9F04150
:1044500007463E463EB940F2FB42AFF2BC21AFF206
:10446000A42001F03FFD65480068864201D1002488
:104470001EE001F028FC756901F048FC6648006800
:10448000854203D063480068854201D102240FE0D1
:104490005F48854205D1B06A08B9032408E00224C8
:1044A00006E05F48854200D00DB9042400E00124F5
:1044B0002046BDE8F08170B5044601F004FC14B953
:1044C0004E48006800E020460646F56A01F01EFCF2
:1044D000284670BD2DE9F041054601F047FC00BFBC
:1044E0005021EFF3118081F31188BFF34F8FBFF399
:1044F0006F8F00BF044615B94048006800E02846A9
:104500000746FE6A00BF84F3118800BF3046BDE84D
:10451000F0812DE9F04780460D464FF00009202D2F
:1045200001D2012000E0002038B94FF4B062AFF2B0
:104530009031AFF2783001F0D5FC202D00D31F254B
:1045400001F0C1FBB8F1000F02D12C48006800E077
:1045500040460446666CAE4277D0B5420BD9274838
:10456000006884420DD025480068C06AA84208D877
:104570004FF0010905E021480068844201D14FF065
:104580000109E76AE16A606C884200D1E56265640E
:10459000A06900F0004010B9C5F12000A06107EB50
:1045A0008701154A02EB81016069884201D101202F
:1045B00000E00020B0B3201DFEF750FD30B901200F
:1045C000B8400C49096881430A48016094F82C10EE
:1045D0000120884007490968084306490860E16AE4
:1045E00001EB8101044A1FE014010020EC000020CF
:1045F0004C040020F4000020A4010020DC00002076
:1046000000010020FC00002004ED00E0F00000208C
:1046100074040020E4000020E00000200C010020D1
:104620006004002005E010E002EB8100211DFEF790
:10463000EFFCB9F1000F07D04FF08050FB49086044
:10464000BFF34F8FBFF36F8F00BF01F05FFBBDE87B
:10465000F08710B5F648006818B10120F5490860E8
:104660002FE00020F3490860F3480068B0FA80F0BA
:10467000C0F11F0404EB8400F04951F8200008B198
:10468000012000E0002038B940F6F622AFF2F041F8
:10469000AFF2D84001F026FC04EB8401E74A02EBBC
:1046A000810041684968416000F1080142688A421E
:1046B00002D14168496841604168C968E04A1160B7
:1046C00000BF10BD70B5054601F0FDFA15B9DC4814
:1046D000006800E028460446201DFEF7BFFC78B9BC
:1046E000E06A00EB8000D54951F8200040B994F809
:1046F0002C1001208840D04909688143CE480160D0
:10470000A06A18B104F11800FEF7A8FC211DCD48DD
:10471000FEF77EFC01F0FAFACB48006828B101F000
:10472000D2FAFFF71BFC01F0F1FAC5480068844299
:1047300026D1C5480068B8B1BD48006808B9012055
:1047400000E0002038B940F25762AFF2AC51AFF24E
:10475000945001F0C7FB4FF08050B4490860BFF39C
:104760004F8FBFF36F8F0BE0B6480068B7490968F9
:10477000884203D10020B249086001E0FFF769FFD9
:1047800070BD70B5054600262C463DB940F28162E9
:10479000AFF2F451AFF2DC5001F0A4FBA94960691B
:1047A000884201D1012000E0002070B1A849A06A30
:1047B000884201D1012000E0002030B9A06A08B988
:1047C000012000E0002000B10126304670BD70B528
:1047D00005462C463DB940F2AB62AFF23C61AFF208
:1047E000246001F07FFB74B39548006884422AD0AE
:1047F00001F069FA2046FFF7C4FF10B3201DFEF751
:104800002DFC94F82C10012088408B49096808433E
:1048100089490860E16A01EB8101884A02EB810065
:10482000211DFEF7F5FB8649E06A0968C96A8842DE
:1048300007D34FF080507D490860BFF34F8FBFF31F
:104840006F8F01F063FA70BD2DE9F0410646002735
:1048500034463EB940F2E262AFF2BC61AFF2A4600E
:1048600001F040FB01F082FA00BF5021EFF311800C
:1048700081F31188BFF34F8FBFF36F8F00BF0546E1
:104880002046FFF77EFF20B369480068E0B96C4915
:10489000E06A0968C96A884200D30127201DFEF733
:1048A000DDFB94F82C100120884063490968084317
:1048B00061490860E16A01EB8101604A02EB810015
:1048C000211DFEF7A5FB04E004F118016048FEF786
:1048D0009FFB00BF85F3118800BF3846BDE8F0811B
:1048E00070B523E0FFF72BFD5A48006808B9012096
:1048F00000E000200546FFF777FCBDB901F0E3F9C1
:104900005448C068C468201DFEF7A8FB4F480068E3
:10491000401E4E49086050480068401E4E490860DD
:1049200001F0F4F92046FFF72EFB00BF4A4800686B
:104930000028D7D170BD00BFFFF7D2FF3F48006805
:104940000128F9D94FF0805038490860BFF34F8FE4
:10495000BFF36F8FF0E71CB5404800210B46802263
:10496000CDE900103EA14048FFF7C8FA0446012CEB
:1049700002D100F087FE0446012C15D100BF502063
:1049800080F31188BFF34F8FBFF36F8F00BF4FF0DD
:10499000FF303649086001202B4908600020344967
:1049A000086001F039F90DE0601C08B1012000E059
:1049B000002038B940F28472AFF61C01AFF6040053
:1049C00001F090FA1CBD10B500BF502080F3118893
:1049D000BFF34F8FBFF36F8F00BF00201A490860ED
:1049E00001F060F910BD22490868704770B501F008
:1049F000BDF900251E480468204670BD13480068B4
:104A0000704770B5044614B90D48006800E02046B0
:104A100005463DB940F68C02AFF67C01AFF6640066
:104A200001F060FA05F1340070BD000004ED00E013
:104A30001401002000010020F4000020A401002047
:104A4000DC00002074040020F8000020EC000020AE
:104A50004C04002060040020E80000201001002029
:104A600049444C4500000000374900080C01002073
:104A7000F000002070B504460D463CB940F6063201
:104A8000AFF6E401AFF6CC0001F02CFAF74801686C
:104A900018312046FEF7C8FA01212846FFF711FC1D
:104AA00070BD70B504460D4616463CB940F6173247
:104AB000AFF61411AFF6FC0001F014FAEC480068F0
:104AC00008B1012000E0002038B940F61B32AFF6F3
:104AD0003011AFF6181001F005FA45F00040E34937
:104AE00009688861E148016818312046FEF790FAAC
:104AF00001213046FFF7E5FB70BD70B505460E4657
:104B000014463DB940F63132AFF66C11AFF6541091
:104B100001F0E8F9D548016818312846FEF778FA1F
:104B20000CB14FF0FF3621463046FFF7CAFB70BD8F
:104B300070B50646F068C4683CB940F66132AFF61D
:104B4000A011AFF6881001F0CDF904F11800FEF7BE
:104B500085FAC7480068A8B9201DFEF77FFA94F8C7
:104B60002C1001208840C34909680843C1490860E6
:104B7000E16A01EB8101C04A02EB8100211DFEF7D1
:104B800047FA04E004F11801BC48FEF741FAB749BE
:104B9000E06A0968C96A884204D901250120B84938
:104BA000086000E00025284670BD2DE9F04105466B
:104BB0000F46AF48006808B1012000E0002038B976
:104BC00040F69932AFF62821AFF6102001F08AF9AD
:104BD00047F000402860EC683CB940F6A132AFF6DF
:104BE0004021AFF6282001F07DF92846FEF736FA7D
:104BF000201DFEF733FA94F82C10012088409D49BF
:104C0000096808439B490860E16A01EB81019A4AFF
:104C100002EB8100211DFEF7FBF99449E06A096867
:104C2000C96A884204D9012601209549086000E03C
:104C300000263046BDE8F08110B504463CB940F688
:104C4000C132AFF6A421AFF68C2001F04BF98D48AC
:104C5000006820608C480068606010BD2DE9F0415C
:104C600004460D463CB940F6CB32AFF6CC21AFF648
:104C7000B42001F037F93DB940F6CC32AFF6E0216F
:104C8000AFF6C82001F02EF901F01DF87E48076844
:104C90002868401C08B9002619E07A49206809688C
:104CA000884204D06068B84201D801260FE06068ED
:104CB000381A2968884209D228686168791A401A26
:104CC00028602046FFF7B8FF002600E0012601F02B
:104CD0001DF83046BDE8F081012069490860704741
:104CE0006249086870476949096809B9012005E007
:104CF0005F49096809B9022000E00020704770B5DB
:104D000005462C46002D4BD05849E06A0968C96A0F
:104D1000884245D2A06900F0004028B95348006895
:104D2000C06AC0F12000A061E16A01EB8101524A32
:104D300002EB81016069884201D1012000E000207E
:104D400050B3201DFEF78AF978B9E06A00EB8000C5
:104D5000494951F8200040B994F82C1001208840AE
:104D60004449096881434348016040480068C06A7B
:104D7000E06294F82C10012088403E4909680843FD
:104D80003C490860E16A01EB81013B4A02EB81008A
:104D9000211DFEF73DF903E034480068C06AE06277
:104DA00070BD70B505462C460026002D4FD02F480B
:104DB0000068844201D1012000E0002038B940F6AB
:104DC000C762AFF62441AFF60C4001F08BF8A06C3F
:104DD00038B940F6C962AFF63841AFF6204001F06D
:104DE00081F8A06C401EA064616CE06A88422ED0FD
:104DF000A06C60BB201DFEF731F978B9E06A00EBCA
:104E000080001D4951F8200040B994F82C10012071
:104E1000884018490968814316480160606CE06267
:104E2000E06AC0F12000A06194F82C1001208840B5
:104E30001049096808430F490860E16A01EB8101E4
:104E40000D4A02EB8100211DFEF7E2F801263046F3
:104E500070BD06490968886904490968C96AC1F1D1
:104E60002001024A1268916170470000DC000020B6
:104E700014010020F4000020A40100204C040020B4
:104E80000001002004010020F0000020F8000020B4
:104E9000F948006830B1F849096801F14800896CA7
:104EA000491C0160F4480068704770B506460D461D
:104EB00000F009FFF0480068C06C88B90120EE4995
:104EC000096881F850005DB101212846FFF7F9F922
:104ED0004FF08050E9490860BFF34F8FBFF36F8FE9
:104EE00000F014FF00F0EFFEE3480068C46C4CB122
:104EF00026B10020E0490968C86403E0601EDE496D
:104F00000968C8640020DC49096881F8500000F095
:104F1000FDFE204670BD2DE9F04107468846144647
:104F20001D4600F0D0FED448006890F850000228DA
:104F300018D0D149096801F14C00C96CB94301602E
:104F40000120CD49096881F850005DB10121284652
:104F5000FFF7B7F94FF08050C8490860BFF34F8F93
:104F6000BFF36F8F00F0D2FE00F0ADFE1CB1C2485F
:104F70000068C06C2060C048006890F850000128AC
:104F800001D1002608E0BC49096801F14C00C96C58
:104F900021EA0801016001260020B749096881F86B
:104FA000500000F0B3FE3046BDE8F0812DE9F04737
:104FB00006460D46174698464FF0010A3EB941F2A3
:104FC000FD02AFF62461AFF60C6000F08BFF3446B3
:104FD00000F079FEB8F1000F02D0E06CC8F80000D4
:104FE00094F85090022084F85000052F17D2DFE883
:104FF00007F01503070B0D00E06C2843E0640EE09A
:10500000E06C401CE0640AE0E56408E0B9F1020FDE
:1050100001D0E56401E04FF0000A00E000BF00BFEE
:10502000B9F1010F30D1201DFEF718F894F82C10BB
:105030000120884092490968084391490860E16A63
:1050400001EB81018F4A02EB8100211DFDF7E0FF9A
:10505000A06A08B9012000E0002038B941F23512F9
:10506000AFF6C461AFF6AC6000F03CFF8249E06A85
:105070000968C96A884207D94FF080507F490860A3
:10508000BFF34F8FBFF36F8F00F040FE5046BDE877
:10509000F0872DE9F84F07460E4690469946DDF811
:1050A00028B0012000903FB941F26812AFF61071AC
:1050B000AFF6F86000F016FF00F058FE3C4600BF67
:1050C0005021EFF3118081F31188BFF34F8FBFF3AD
:1050D0006F8F00BF0546B9F1000F02D0E06CC9F830
:1050E000000094F850A0022084F85000B8F1050F99
:1050F00017D2DFE808F01503070B0D00E06C304312
:10510000E0640EE0E06C401CE0640AE0E66408E065
:10511000BAF1020F01D0E66401E00020009000E047
:1051200000BF00BFBAF1010F3BD1A06A08B901204E
:1051300000E0002038B941F2AF12AFF69C71AFF633
:10514000847000F0CFFE50480068A8B9201DFDF71C
:1051500085FF94F82C1001208840494909680843CC
:1051600047490860E16A01EB8101464A02EB810090
:10517000211DFDF74DFF04E004F118014348FDF740
:1051800047FF3D49E06A0968C96A884209D9BBF10D
:10519000000F03D00120CBF8000002E001203C49C1
:1051A000086000BF85F3118800BF0098BDE8F88F44
:1051B0002DE9F04105460F4635B941F2E312354974
:1051C00001F11C0000F08EFE00F0D0FD2C4600BF67
:1051D0005021EFF3118081F31188BFF34F8FBFF39C
:1051E0006F8F00BF064694F85080022084F850006C
:1051F000E06C401CE064B8F1010F37D1A06A08B937
:10520000012000E0002030B941F20922214901F1DA
:105210001C0000F067FE1C480068A8B9201DFDF7BF
:105220001DFF94F82C100120884015490968084397
:1052300013490860E16A01EB8101124A02EB810027
:10524000211DFDF7E5FE04E004F118010F48FDF70C
:10525000DFFE0949E06A0968C96A884206D917B1C0
:105260000120386002E001200949086000BF86F390
:10527000118800BFBDE8F081DC00002004ED00E0F3
:10528000F4000020A4010020140100204C040020A0
:1052900000010020A041000870B5054615B90A4874
:1052A000006800E02846064600F00DFD96F8500024
:1052B000022804D1002086F85000012400E00024D8
:1052C00000F024FD204670BDDC0000202DE9F041F7
:1052D00004460D4616461F464FF0000865602461DF
:1052E000B5420CD8F01BA169884202D34FF00108E7
:1052F00011E0211DF7480068FDF796FE0BE0BE4265
:1053000004D2BD4202D34FF0010804E0211DF2484F
:105310000068FDF789FE4046BDE8F0812DE9FF47B2
:1053200004460D4616461F46DDF830804FF0000952
:105330002CB94FF4D372E9A1EFA000F0D3FDF248ED
:10534000006810B3009501960294062D15DAFFF758
:10535000CAFC022808D1002342466946EA48006890
:10536000FDF7E4FF814610E000231A466946E6484F
:105370000068FDF7DBFF814607E000233A466946F7
:10538000E1480068FEF740FA8146484604B0BDE8AF
:10539000F0872DE9F8432DE0CF480068C068056824
:1053A000CD480068C068C468201DFDF757FE204640
:1053B000616A8847E06901281CD1A0694619AE429C
:1053C00007D966602461211DC3480068FDF72CFEE3
:1053D00010E0002003462A46014600902046FFF7D1
:1053E0009DFF07462FB940F29232BCA1C2A000F047
:1053F00079FD00BFB8480068006808B9012000E0E6
:1054000000200028C8D0B448D0F80080B148006817
:10541000B1490860AF48C0F80080BDE8F88370B5B6
:105420000446FFF7E0FA0546B8480068854204D212
:10543000FFF7AFFF0120206001E000202060B348AB
:105440000560284670BDF0B587B070E0039800286D
:105450000CDA04AE2EB940F2E722A0A1A6A000F01B
:1054600041FDD6E90020B168904700BF03980028AD
:105470005DDB059C606908B9012000E0002010B9DF
:10548000201DFDF7EBFD02A8FFF7C9FF05460398B5
:105490000A284AD2DFE800F00905072C2E45060845
:1054A0002D2F00BF00BF00BF00BF0498A269811864
:1054B00003462A462046FFF709FFC0B12046616A2D
:1054C0008847E069012812D1002000900498A16962
:1054D0004218002319462046FFF720FF07462FB940
:1054E00040F221327DA184A000F0FCFC00BF1DE051
:1054F00000BF1BE000BF0498A061A06908B10120B3
:1055000000E0002028B94FF44E7274A17AA000F098
:10551000E9FCA06941192B462A462046FFF7D6FE32
:1055200004E0204600F0D8FA00E000BF00BF0023EE
:105530001A4603A974480068FEF742F8002885D18E
:1055400007B0F0BDF8B505460F4663480068C0686F
:10555000C468201DFDF782FDE069012818D1A0690B
:1055600041192B463A462046FFF7B0FE80B1002095
:1055700003462A46014600902046FFF7CFFE064626
:105580002EB94FF4027255A15BA000F0ABFC00BF36
:105590002046616A8847F8BDF8B505460C46FEF717
:1055A000CEFE6846FFF73BFF0646009820BB44B995
:1055B000B54206D8FEF718FE31462846FFF7C2FF6F
:1055C0001CE03CB143480068006808B9012000E0D5
:1055D00000200446A91B22464B480068FEF75CFBEE
:1055E000FEF702FE50B94FF0805049490860BFF302
:1055F0004F8FBFF36F8F01E0FEF7F6FDF8BD014658
:10560000354A126812680AB9012200E000220A60D5
:105610000A6822B9304A1268D268106800E0002097
:10562000704708B500BF6846FFF7E9FF044620460B
:105630000099FFF7B1FFFFF706FFF4E710B500F0A0
:1056400042FB31480068D0B93248FDF7D1FC3248FE
:10565000FDF7CEFC2F48204908602F481D490860FF
:10566000002210210A20FDF766FD27490860084640
:10567000006820B129A124480068FEF7E7FA00F08D
:1056800045FB10BD1CB50024FFF7D8FF1E4800687D
:1056900058B124481F2100234FF48072CDE9001037
:1056A00021A12348FEF72AFC04462CB940F233120C
:1056B0000AA111A000F016FC20461CBD2DE9F04700
:1056C00006460D4617469846DDE908940DB10120BF
:1056D00031E02FE01C010020180100202E2E5C2E4E
:1056E0002E5C4672656552544F535C7372635C74F2
:1056F000696D6572732E63004572726F723A25731D
:105700002C25640D0A000000200100202801002043
:1057100004ED00E0880400209C040020546D7251C8
:105720000000000024010020546D722053766300B5
:1057300023560008002038B94FF4C672AFF2640156
:10574000AFF24C0000F0CEFB5CB1FFF777FF2660B4
:10575000A561E761C4F82080C4F82490201DFDF7FE
:1057600054FCBDE8F0872DE9FC4705460E46174678
:105770009846DDF82890282000F02BF904463CB12B
:1057800043463A4631462846CDE90094FFF796FF56
:105790002046BDE8FC8710B55B48006808B10120D1
:1057A00000E0002038B94FF4E872AFF2D001AFF258
:1057B000B80000F097FB5448006810BD70B504466F
:1057C00025463CB940F2D912AFF2F001AFF2D80051
:1057D00000F088FBA86970BD70B5044625463CB949
:1057E00040F2E312AFF20C11AFF2F40000F07AFBDA
:1057F0006E68304670BD70B5044625463CB940F22F
:10580000ED12AFF22811AFF2101000F06BFB286818
:1058100070BD70B5044626463CB940F2DA32AFF2AC
:105820004411AFF22C1000F05DFB00F04CFA7069EF
:1058300008B9012000E0002080F0010500F066FAC0
:10584000284670BD70B5044626463CB940F2EF329A
:10585000AFF27811AFF2601000F044FB00F033FAC1
:10586000356A00F053FA284670BD70B504460D46FF
:1058700026463CB940F2FF32AFF2A011AFF28810D9
:1058800000F030FB00F01FFA356200F03FFA70BD07
:105890002DE9FF4104460D4616461F466FF00100F4
:1058A000009001940295039600233A4669461748F2
:1058B0000068FDF7A9FF8046404604B0BDE8F081CE
:1058C0002DE9FF4104460D4616461F460F48006865
:1058D00038B940F22B42AFF2FC11AFF2E41000F005
:1058E00001FB4FF0FF3000900194029503960023D6
:1058F0003A46694605480068FDF718FD804640466F
:1059000004B0BDE8F0810000240100202001002047
:1059100010B50146924800E0006803688B42FBD353
:105920000246436813448B4204D143684C682344C5
:10593000436001460A464B6813440468A34211D1F0
:10594000884C03682468A34208D04B6804686468E4
:1059500023444B6003681B680B6005E0814B1B68A8
:105960000B6001E003680B60884200D0016010BD4D
:1059700030B54FF400537C4800F007042CB1C01D33
:1059800020F00700784C041B1B1B0246744C22605D
:105990000024734D6C60D018083820F00700714C5B
:1059A000206000246F4D2D686C606E4D2D682C605A
:1059B0001146441A4C606B4C24680C606B4D4C686B
:1059C0002C606B4D4C682C604FF00044694D2C608E
:1059D00030BD2DE9F04104464FF00008FEF7AFFC62
:1059E0006048006808B9FFF7C3FF624800682040BC
:1059F00000285FD1A4B1083404F0070080B104F09E
:105A00000700C0F10800044404F0070008B90120B1
:105A100000E0002020B9BF2257A161A000F062FA87
:105A2000002C47D052480068844243D84C4E304640
:105A3000056801E02E462D686868A04202D22868F9
:105A40000028F7D147480068854233D0306800F11C
:105A50000808286830606868001B102813D92F19BF
:105A600007F0070008B9012000E0002020B9EC226F
:105A700041A14BA000F036FA6868001B78606C60AA
:105A80003846FFF745FF3A4968680968081A3849F7
:105A900008600846006835490968884203D23448DE
:105AA00000683249086033496868096808436860DB
:105AB00000202860FEF798FB08F0070008B90120D5
:105AC00000E0002028B94FF496722BA134A000F01A
:105AD00009FA4046BDE8F08170B506463546002E0D
