:020000040800F2
:10000000982800209D0100089D2D00089F2D0008C4
:10001000A32D0008A72D0008AB2D0008000000004C
:1000200000000000000000000000000005010008C2
:10003000AF2D00080000000049010008B12D0008A4
:10004000B7010008B7010008B7010008B7010008B0
:10005000B7010008B7010008B7010008B7010008A0
:10006000B7010008B7010008B7010008B701000890
:10007000B7010008B7010008B7010008B701000880
:10008000B7010008B7010008B7010008B701000870
:10009000B7010008B7010008B7010008B701000860
:1000A000B7010008B7010008B7010008B701000850
:1000B000B7010008B7010008B7010008B701000840
:1000C000B7010008B7010008B7010008B701000830
:1000D000B7010008B7010008B7010008B701000820
:1000E000990C0008B7010008B7010008DFF810D02C
:1000F00006F046FC00480047712C0008AFF3008072
:1001000098280020224B19680868B0E8F00F80F3A7
:100110000988BFF36F8F4FF0000080F311884EF015
:100120000D0E70470000000006480068006880F36C
:10013000088862B661B6BFF34F8FBFF36F8F00DFE1
:1001400000BF00BF08ED00E0EFF30980BFF36F8F41
:100150000F4B1A6820E9F00F106008B54FF05000FF
:1001600080F31188BFF34F8FBFF36F8F04F0FDFF53
:100170004FF0000080F31188BDE808401968086856
:10018000B0E8F00F80F30988BFF36F8F704700BFAE
:10019000C4000020EFF30580704700000648804748
:1001A00006480047FEE7FEE7FEE7FEE7FEE7FEE75C
:1001B000FEE7FEE7FEE7FEE79F020008ED0000080D
:1001C0000CB50020019000906C48006840F480302D
:1001D0006A49086000BF6948006800F40030009078
:1001E0000198401C0190009818B90198B0F5A06FD3
:1001F000F1D16248006800F4003010B10120009095
:1002000001E0002000900098012843D15C4800687C
:1002100040F010005A4908600846006820F00300CA
:1002200008600846006840F00200086053484068D3
:10023000524948600846406848600846406840F4B3
:10024000806048600846406820F47C10486008469A
:10025000406840F4E81048600846006840F080704C
:10026000086000BF4548006800F000700028F9D021
:100270004248406820F00300404948600846406812
:1002800040F00200486000BF3C48406800F00C00AD
:100290000828F9D10CBD10B5FFF792FF10BD10B5BD
:1002A0003648006840F0010034490860084640685C
:1002B00034490840314948600846006832490840DE
:1002C0002E4908600846006820F48020086008462F
:1002D000406820F4FE0048604FF41F008860FFF77C
:1002E000DAFF4FF000602949086010BD10B5002109
:1002F00000200022214B5B6803F00C0121B104298E
:1003000006D0082928D107E0214B224C236027E0A2
:100310001F4B204C236023E0184B5B6803F47010E4
:10032000164B5B6803F48032022303EB904022B942
:10033000194B4343174C23600DE0104B5B6803F4EB
:10034000003323B1144B4343124C236003E0104BA2
:100350004343104C236003E00D4B0E4C236000BF61
:1003600000BF064B5B68C3F303130C4CE15C094B05
:100370001B68CB40074C236010BD000000100240FA
:10038000002002400000FFF8FFFFF6FE08ED00E04D
:1003900000127A000000002000093D000400002047
:1003A00031490143314A1160704770B50021002383
:1003B0000F22C47804B32D4C246804F4E064C4F51F
:1003C000E064210AC1F10403CA40447804FA03F14D
:1003D0008478144021430901254C0678A1550478FE
:1003E00004F01F050124AC4005786D11AD0005F146
:1003F000E025C5F8004109E0047804F01F05012458
:10040000AC401C4D0678761145F8264070BD1A4A5E
:100410000A400243154B1B1F1A60704739B1134A3B
:10042000121D12680243114B1B1D1A6006E00F4A91
:10043000121D126882430D4B1B1D1A607047042861
:1004400008D14FF0E021096941F004014FF0E022AA
:10045000116107E04FF0E021096921F004014FF03C
:10046000E0221161704700000000FA050CED00E089
:1004700000E400E080E100E080FFFF1F002044492D
:100480000860091D0860091D0860091D08604148D1
:100490003F4914310860704700213D498279002AA4
:1004A0003AD00A46126803689A430B461A600A1D3E
:1004B000126803689A430B1D1A60027911440A6896
:1004C00003681A430A60324A0832126803689A4382
:1004D0002F4B08331A601A1D126803689A432C4B7D
:1004E0000C331A604279102A0ED11A1F1268036861
:1004F0001A43274B08331A601A1D126803681A43FF
:10050000234B0C331A600DE02149427911440A68EB
:1005100003681A430A6005E0027911440A68036817
:100520009A430A6070470021016001710C214171FA
:100530000021817170471649103109680143144A3E
:1005400010321160704701460020114A14321268BF
:100550000A400AB1012000E0002070470C49143124
:1005600008607047014600200022094B1B6803EA1F
:100570000102074B14331B680B4013B10AB1012071
:1005800000E0002070470249143108607047000005
:1005900000040140FFFF0F0010B50446CC48844220
:1005A00008D10121042000F02DFB0021042000F0DF
:1005B00029FB46E0C748844208D10121082000F009
:1005C00021FB0021082000F01DFB3AE0C2488442D4
:1005D00008D10121102000F015FB0021102000F0AF
:1005E00011FB2EE0BD48844208D10121202000F0FB
:1005F00009FB0021202000F005FB22E0B8488442DE
:1006000008D10121402000F0FDFA0021402000F037
:10061000F9FA16E0B348844208D10121802000F0A5
:10062000F1FA0021802000F0EDFA0AE0AE488442A1
:1006300007D10121801500F0E5FA0021A01500F096
:10064000E1FA10BD10B50121084600F0DBFA0021E7
:10065000012000F0D7FA10BD2DE9F0410246002537
:100660000026002000230024002791F803C00CF08E
:100670000F0591F803C00CF0100CBCF1000F03D073
:1006800091F802C04CEA050591F800C0BCF1000FDA
:1006900031D0146800202BE04FF0010C0CFA00F36D
:1006A000B1F800C00CEA03069E4220D183004FF04F
:1006B0000F0C0CFA03F7BC4305FA03FC4CEA0404E4
:1006C00091F803C0BCF1280F06D14FF0010C0CFAD1
:1006D00000FCC2F814C00AE091F803C0BCF1480F56
:1006E00005D14FF0010C0CFA00FCC2F810C0401C00
:1006F0000828D1D31460B1F800C0BCF1FF0F34DD7D
:10070000546800202EE000F1080C4FF0010808FAB0
:100710000CF3B1F800C00CEA03069E4221D183001D
:100720004FF00F0C0CFA03F7BC4305FA03FC4CEA3C
:10073000040491F803C0BCF1280F05D100F1080CA6
:1007400008FA0CF8C2F8148091F803C0BCF1480F05
:1007500007D100F1080C4FF0010808FA0CF8C2F8B4
:100760001080401C0828CED35460BDE8F0814FF6BD
:10077000FF710180022181700421C170704702461F
:10078000002093680B400BB1012000E0002070476F
:100790000146886880B2704702460020D3680B404B
:1007A0000BB1012000E0002070470146C86880B20C
:1007B000704701617047416170470AB1016100E013
:1007C00041617047C16070474FF480320A438261D3
:1007D0008161826182698269704702460020434BD1
:1007E00018684FF68073184040EA021008433F4BE8
:1007F000186070473E49C8617047F0B50A4600234B
:1008000000240021002500F00046B6F1004F02D17F
:10081000364EF16901E0354E7168C0F3034583B28D
:1008200000F44016B6F5401F08D121F070612F4E3C
:10083000766826F070662D4F7E6012E000F4801618
:10084000B6F5801F06D1032606FA05F4A14341F050
:10085000706106E0460D360103FA06F6B14341F039
:10086000706122B1460D360103FA06F6314300F0FD
:100870000046B6F1004F02D11C4EF16101E01B4E63
:100880007160F0BD30B500228B071C0F0F2303FAF7
:1008900004F2164B08338C1053F824309343134C56
:1008A00008348D1044F8253023468C1053F824303A
:1008B0008C07240F00FA04F423430C4C08348D10E9
:1008C00044F8253030BD0A49DC310860704700002B
:1008D00000080140000C01400010014000140140DC
:1008E00000180140001C01400020014000000140B0
:1008F00000002042DF48006840F00100DD49086048
:1009000008464068DC490840DA4948600846006803
:10091000DA490840D74908600846006820F480207A
:1009200008600846406820F4FE0048604FF41F004D
:1009300088607047CF49096821F48031CD4A116041
:100940001146096821F480211160B0F5803F03D081
:10095000B0F5802F0ED106E0C649096841F4803118
:10096000C44A116007E0C349096841F4A021C14AA3
:10097000116000E000BF00BF704710B501460022C3
:10098000002300204A11012A02D1BA4C236806E054
:10099000022A02D1B74C236A01E0B64C636A01F027
:1009A0001F02012494401C400CB1012000E00020F3
:1009B00010BD38B5002000900024002500BF312074
:1009C000FFF7DBFF05460098401C00900098B0F54B
:1009D000A06F01D0002DF2D03120FFF7CEFF08B17B
:1009E000012400E00024204638BD01460020A14A31
:1009F000106820F0F80040EAC10010607047A0497C
:100A000008607047024600209A4B586820F47C101A
:100A100042EA01031843974B5860704798490866AB
:100A2000704701460020934A506820F003000843B5
:100A3000506070478F48406800F00C0070470146D6
:100A400000208C4A506820F0F00008435060704746
:100A500001460020874A506820F4E0600843506057
:100A6000704701460020834A506820F4605040EAF5
:100A7000C1005060704729B17E4A527A02437D4BD3
:100A80005A7204E07B4A527A82437A4B5A72704718
:100A90007B49D8310860704701460020754A50688C
:100AA00020F440400843506070470021714A2032D2
:100AB0001170704A82F82010012802D004280AD14F
:100AC00004E001216B4A2032117005E00521694ADA
:100AD0002032117000E000BF00BF70476949086014
:100AE00070476449096A0143624A11627047654967
:100AF00044390860704730B50021002200240023EB
:100B00005C4D6D6805F00C0121B1042905D0082960
:100B100023D105E05C4D056022E05B4D05601FE0E0
:100B2000544D6D6805F47012524D6D6805F48034B3
:100B3000022505EB92421CB9544D554305600BE06C
:100B40004C4D6D6805F400351DB1504D55430560A1
:100B500002E04D4D5543056002E04B4D056000BF7E
:100B600000BF444D6D6805F0F0010909484D6B5C0C
:100B70000568DD4045603F4D6D6805F4E061090A98
:100B8000434D6B5C4568DD4085603A4D6D6805F40A
:100B90006051C90A3E4D6B5C4568DD40C560354D0E
:100BA0006D6805F44041890B3A4D6B5CC568B5FB37
:100BB000F3F5056130BD29B12E4A526902432D4B30
:100BC0005A6104E02B4A526982432A4B5A617047AA
:100BD00029B1284A92690243264B9A6104E0254ACA
:100BE00092698243234B9A61704729B1214AD269A5
:100BF0000243204BDA6104E01E4AD26982431D4B56
:100C0000DA61704729B11B4AD2680243194BDA6096
:100C100004E0184AD2688243164BDA60704729B163
:100C2000144A12690243134B1A6104E0114A126913
:100C30008243104B1A61704712494039086070476F
:100C40000F49C86470470B49C87170470948406A2A
:100C500040F0807007494862704701460020054A0D
:100C600092680A400AB1012000E000207047014963
:100C700088727047001002400000FFF8FFFFF6FE88
:100C8000000042428004424200127A0000093D0006
:100C9000140000202400002008B5002000904FF42C
:100CA0008040FFF75FFCE8B14FF48041FE48FFF75A
:100CB00066FD40B9012000900023FC4A6946FC48CB
:100CC000006803F02DFB4FF48040FFF75CFCF74811
:100CD000006838B14FF08050F6490860BFF34F8F7D
:100CE000BFF36F8F4FF40040FFF73CFCE8B14FF4C7
:100CF0000041ED48FFF743FD40B90220009000237A
:100D0000EA4A6946EA48006803F00AFB4FF40040EB
:100D1000FFF739FCE548006838B14FF08050E549ED
:100D20000860BFF34F8FBFF36F8F08BD08B500BFDA
:100D300000BF04F0E4FB009000BF00BF05F04FFDD2
:100D400002F0CCFD05F06EFDDB488078DB49487091
:100D5000D9484078087003E04FF47A7004F0DCF86A
:100D6000FAE709E0D648006880F00200D44908603C
:100D70004FF47A7004F0D0F8F4E71CB5002000902E
:100D800000BFACE000235A1E01A9C948006803F067
:100D9000A3F90128F5D1142004F0BEF89DF8040051
:100DA000012802D002287DD142E04FF48041BE48A4
:100DB000FFF7E5FCA8BB04F0A2FB04460BE004F03F
:100DC0009EFB001BB0F5487F02D3022000907AE022
:100DD0000A2004F0A1F84FF48041B348FFF7CFFC9C
:100DE0000028ECD001234FF4167201A9B048006826
:100DF00003F072F9012818D1142004F08DF89DF841
:100E0000040001280ED18103A748FFF7B8FC48B9B8
:100E10000320009000231A4601A9A548006803F0AA
:100E20005BF904E00120009001E00120009048E01F
:100E30004FF400419C48FFF7A2FCA0BB04F05FFB0D
:100E400004460BE004F05BFB001BB0F5487F02D3C7
:100E50000520009037E00A2004F05EF84FF40041CE
:100E60009148FFF78CFC0028ECD001234FF4167258
:100E700001A98F48006803F02FF901281BD1142025
:100E800004F04AF89DF80400022811D18103864835
:100E9000FFF775FC60B90620009000231A4601A9EF
:100EA000834801E00AE008E0006803F015F904E077
:100EB0000420009001E00420009002E00020009057
:100EC00000BF00BF00BF9DF8000040B100231A46DC
:100ED00069467C48006802F0B5FF0020009051E7A9
:100EE00086B00020049005F07AFC02F0F7FC72480E
:100EF0004078724908707048807848706E48C078B1
:100F000088706D480079C8706B48807908716A48AC
:100F1000407948710020887105F084FC01F0ECFFF5
:100F2000012010212023684ACDE9001050210F2014
:100F300002F0EBF9012010212023644ACDE90010D2
:100F400068210F2002F0E1F902F0A8F901F056BE85
:100F500000235A1E05A95B48006803F0BDF80498F9
:100F600048B101287ED0022801F01586032841F0FF
:100F7000448601F03FBE9DF81400012804D00228E9
:100F800071D0042870D18EE10120049001F0B4FFEB
:100F90000220102120234C4ACDE9001050210F20BF
:100FA00002F0B3F9012010212023484ACDE90010B6
:100FB00068210F2002F0A9F9012010212023444AC2
:100FC000CDE900103C210F2002F09FF93B4840780A
:100FD0000A2190FBF1F03F4951F8200003900120D5
:100FE00040212123CDE9001028213C20039A02F062
:100FF0008CF9324840780A2190FBF1F201FB120093
:10100000344951F820000390012040212123CDE9EB
:10101000001028216920039A02F077F901200821A5
:101020000B462D4ACDE900103F21962002F06DF9C4
:10103000012008210B46284ACDE9001055219620B1
:1010400002F063F91D4800780A2190FBF1F0214974
:1010500051F820000390022040212123CDE9001007
:10106000282102E041E139E13BE1AF20039A02F09F
:101070004CF9124800780A2190FBF1F201FB1200B2
:10108000144951F820000390022040212123CDE98A
:1010900000102821DC20039A02F037F90748007974
:1010A0004FF47A711AE00000000C01404400002067
:1010B0003C00002004ED00E0BB000020B400002054
:1010C0000C080140400000202E790008AE7800088E
:1010D000EE780008700000205676000890FBF1F0D2
:1010E000FE4951F820000390012010210C23CDE986
:1010F000001008212820039A02F007F9F848007927
:10110000642190FBF1F00A2190FBF1F201FB120047
:10111000F24951F820000390012010210C23CDE961
:10112000001008213120039A02F0EFF8EC48007912
:101130000A2190FBF1F0E94951F8200003900120C9
:1011400010210C23CDE9001008213A20039A02F067
:10115000DCF8E34800790A2190FBF1F201FB120070
:10116000DE4951F820000390012010210C23CDE925
:10117000001008214320039A02F0C7F80120102133
:101180000C23D84ACDE9001008214F2002F0BDF809
:10119000D348C0780A2190FBF1F0D04951F82000E3
:1011A0000390012010210C23CDE9001008215B20C1
:1011B000039A02F0AAF8CA48C0780A2190FBF1F21B
:1011C00001FB1200C54951F82000039001201021B5
:1011D0000C23CDE9001008216420039A02F095F851
:1011E000012010210C23C04ACDE9001008217020F5
:1011F00002F08BF8BA4880780A2190FBF1F0B749E9
:1012000051F820000390012010210C23CDE900109B
:1012100008217C20039A02F078F8B14880780A21EE
:1012200090FBF1F201FB1200AC4951F82000039051
:10123000012010210C23CDE9001008218520039AFC
:1012400002F063F8012010210C23A84ACDE9001018
:101250000821912002F059F8012010210C23A44A02
:10126000CDE900100821DC2002F04FF80120102108
:101270000C23A04ACDE900100821EA2002F045F82D
:1012800001201021CDE90010954840799A4951F884
:1012900020000C23024608210390F82002F035F8C4
:1012A00001F0FCFF1EE00220049001F025FE012069
:1012B00010212023914ACDE9001050210F2002F087
:1012C00024F80220102120238D4ACDE90010682146
:1012D0000F2002F01AF801F0E1FF03E00320049070
:1012E00000E000BF00BF01F088BC9DF81400012899
:1012F00009D0022801F0378404287DD0062841F067
:10130000478401F010B976488079072875D2DFE864
:1013100010F0070096012002C802E303D304A405DD
:1013200001206F49887101F0E7FD02201021202380
:10133000724ACDE9001050210F2001F0E6FF012094
:10134000102120236E4ACDE9001068210F2001F002
:10135000DCFF0120102120236A4ACDE900103C2146
:101360000F2001F0D2FF5E4840780A2190FBF1F097
:10137000654951F820000390022040212123CDE946
:10138000001028213C20039A01F0BFFF5448407808
:101390000A2190FBF1F201FB12005B4951F8200099
:1013A0000390022040212123CDE90010282169204B
:1013B000039A01F0AAFF012008210B46534ACDE908
:1013C00000103F21962001F0A0FF012008210B46CC
:1013D0004E4ACDE900105521962001F096FF404875
:1013E00000780A2190FBF1F0474951F82000039062
:1013F00001204021212301E0FDE351E2CDE900106D
:101400002821AF20039A01F080FF354800780A2197
:1014100090FBF1F201FB12003B4951F820000390D0
:10142000012040212123CDE900102821DC20039A4E
:1014300001F06BFF2A4800794FF47A7190FBF1F0CC
:10144000264951F820000390012010210C23CDE9FA
:10145000001008212820039A01F057FF2048007946
:10146000642190FBF1F00A2190FBF1F201FB1200E4
:101470001A4951F820000390012010210C23CDE9D6
:10148000001008213120039A01F03FFF1448007931
:101490000A2190FBF1F0114951F82000039001203E
:1014A00010210C23CDE9001008213A20039A01F005
:1014B0002CFF0B4800790A2190FBF1F201FB12008E
:1014C000064951F820000390012010210C23CDE99A
:1014D000001008214320039A1AE000004800002071
:1014E000B4000020F67700080E780008267800087F
:1014F0003E78000856780008980000202E790008F1
:10150000AE780008EE7800087000002056760008DB
:1015100001F0FBFE012010210C23FE4ACDE9001052
:1015200008214F2001F0F1FEFB48C0780A2190FB12
:10153000F1F0FA4951F820000390012010210C230A
:10154000CDE9001008215B20039A01F0DEFEF2488D
:10155000C0780A2190FBF1F201FB1200EF4951F82B
:1015600020000390012010210C23CDE90010082158
:101570006420039A01F0C9FE012010210C23E84ADF
:10158000CDE900100821702001F0BFFEE24880780C
:101590000A2190FBF1F0E14951F82000039001206D
:1015A00010210C23CDE9001008217C20039A01F0C2
:1015B000ACFED94880780A2190FBF1F201FB1200C1
:1015C000D64951F820000390012010210C23CDE9C9
:1015D000001008218520039A01F097FE01201021B8
:1015E0000C23D04ACDE900100821912001F08DFE96
:1015F000012010210C23CC4ACDE900100821DC2069
:1016000001F083FE012010210C23C84ACDE900100F
:101610000821EA2001F079FE01201021CDE9001017
:10162000BD484079C24951F820000C2302460821E8
:101630000390F82001F069FE01F030FE30E1022055
:10164000B549887101F058FC012010212023B94AC6
:10165000CDE900103C210F2001F057FEAE48407844
:101660000A2190FBF1F0B44951F8200003900120C9
:1016700040212123CDE9001028213C20039A01F0CC
:1016800044FEA54840780A2190FBF1F201FB1200CC
:10169000A94951F820000390012040212123CDE9E0
:1016A000001028216920039A01F02FFE9A48007843
:1016B0000A2190FBF1F0A04951F82000039001208D
:1016C00040212123CDE900102821AF20039A01F009
:1016D0001CFE914800780A2190FBF1F201FB1200F8
:1016E000954951F820000390012040212123CDE9A4
:1016F00000102821DC20039A01F007FE864880783C
:101700000A2190FBF1F0854951F820000221039055
:1017100010200C23CDE9000108217C20039A01F060
:10172000F4FD7D4880780A2190FBF1F201FB120064
:101730007A4951F820000390022010210C23CDE9B2
:10174000001008218520039A01F0DFFD01F0A6FDBD
:10175000F5E303207049887101F0CEFB6E484078B4
:101760000A2190FBF1F0744951F820000390012008
:1017700040212123CDE9001028213C20039A01F0CB
:10178000C4FD654840780A2190FBF1F201FB12008C
:10179000694951F820000390012040212123CDE91F
:1017A000001028216920039A01F0AFFD5A48007803
:1017B0000A2190FBF1F0604951F8200003900120CC
:1017C00040212123CDE900102821AF20039A01F008
:1017D0009CFD514800780A2190FBF1F201FB1200B8
:1017E000554951F820000390012040212123CDE9E3
:1017F00000102821DC20039A01F087FD4648C078BC
:101800000A2190FBF1F0454951F820000221039094
:1018100010200C23CDE9000108215B20039A01F080
:1018200074FD3D48C0780A2190FBF1F201FB1200E3
:101830003A4951F820000390022010210C23CDE9F1
:10184000001008216420039A01F05FFD324880787F
:101850000A2190FBF1F0314951F82000039001205A
:1018600010210C23CDE9001008217C20039A01F0FF
:101870004CFD294880780A2190FBF1F201FB12000F
:10188000264951F820000390012010210C23CDE9B6
:10189000001008218520039A01F037FD01F0FEFCBD
:1018A0004DE304201C49887101F026FB0120102122
:1018B0002023204ACDE900103C210F2001F025FD16
:1018C000154840780A2190FBF1F01B4951F820009F
:1018D0000390012040212123CDE9001028213C2044
:1018E000039A01F012FD0C4840780A2190FBF1F2B6
:1018F00001FB1200104951F8200003900120402103
:101900002123CDE9001028216920039A01F0FDFC74
:10191000014813E0F6770008B400002048000020DA
:101920000E780008267800083E78000856780008EF
:1019300098000020EE7800087000002000780A214E
:1019400090FBF1F0FE4951F8200003900120402166
:101950002123CDE900102821AF20039A01F0D5FC06
:10196000F84800780A2190FBF1F201FB1200F449DB
:1019700051F820000390012040212123CDE90010DF
:101980002821DC20039A01F0C0FCEE4800794FF4D6
:101990007A7190FBF1F0EC4951F82000039002209D
:1019A00010210C23CDE9001008212820039A01F012
:1019B000ACFCE4480079642190FBF1F00A2190FB33
:1019C000F1F201FB1200E04951F8200003900220DF
:1019D00010210C23CDE9001008213120039A01F0D9
:1019E00094FCD84800790A2190FBF1F0D64951F8CF
:1019F00020000390022010210C23CDE900100821C3
:101A00003A20039A01F081FCCE4800790A2190FB2C
:101A1000F1F201FB1200CC4951F8200003900220A2
:101A200010210C23CDE9001008214320039A01F076
:101A30006CFCC448C0780A2190FBF1F0C24951F80F
:101A400020000390012010210C23CDE90010082173
:101A50005B20039A01F059FCBA48C0780A2190FB38
:101A6000F1F201FB1200B84951F820000121039066
:101A700010200C23CDE9000108216420039A01F015
:101A800044FCB04880780A2190FBF1F0AE4951F84F
:101A900020000390012010210C23CDE90010082123
:101AA0007C20039A01F031FCA64880780A2190FB43
:101AB000F1F201FB1200A44951F82000039001202B
:101AC00010210C23CDE9001008218520039A01F094
:101AD0001CFC01F0E3FB32E205209A49887101F019
:101AE0000BFA012010212023984ACDE900103C2157
:101AF0000F2001F00AFC934840780A2190FBF1F096
:101B00008F4951F820000390012040212123CDE985
:101B1000001028213C20039A01F0F7FB8948407807
:101B20000A2190FBF1F201FB1200854951F82000D7
:101B30000390012040212123CDE9001028216920B4
:101B4000039A01F0E2FB7F4800780A2190FBF1F054
:101B50007B4951F820000390012040212123CDE949
:101B600000102821AF20039A01F0CFFB75480078C0
:101B70000A2190FBF1F201FB1200714951F820009B
:101B80000390012040212123CDE900102821DC20F1
:101B9000039A01F0BAFB6B4800794FF47A7190FB1D
:101BA000F1F0694951F820000390012010210C2325
:101BB000CDE9001008212820039A01F0A6FB614816
:101BC0000079642190FBF1F00A2190FBF1F201FB16
:101BD00012005D4951F820000390012010210C23D0
:101BE000CDE9001008213120039A01F08EFB554801
:101BF00000790A2100E0A4E190FBF1F0524951F88C
:101C000020000121039010200C23CDE900010821C0
:101C10003A20039A01F079FB4A4800790A2190FBA7
:101C2000F1F201FB1200484951F820000390012015
:101C300010210C23CDE9001008214320039A01F064
:101C400064FB4048C0780A2190FBF1F03E4951F80E
:101C500020000390012010210C23CDE90010082161
:101C60005B20039A01F051FB3648C0780A2190FBB3
:101C7000F1F201FB1200344951F8200003900120D9
:101C800010210C23CDE9001008216420039A01F0F3
:101C90003CFB02201021CDE900102A4840792C4954
:101CA00051F820000C23024608210390F82001F08F
:101CB0002CFB01F0F3FA42E106202249887101F081
:101CC0001BF9022010212023204ACDE900103C21DD
:101CD0000F2001F01AFB1B4840780A2190FBF1F01D
:101CE000174951F820000390012040212123CDE91C
:101CF000001028213C20039A01F007FB114840788E
:101D00000A2190FBF1F201FB12000D4951F820006D
:101D10000390012040212123CDE9001028216920D2
:101D2000039A01F0F2FA074800780A2190FBF1F0DB
:101D3000034951F82000039001204021212309E0AC
:101D400070000020B400002048000020EE78000859
:101D500098000020CDE900102821AF20039A01F05F
:101D6000D4FAFE4800780A2190FBF1F201FB120040
:101D7000FB4951F820000390012040212123CDE9A7
:101D800000102821DC20039A01F0BFFAF348007903
:101D90004FF47A7190FBF1F0F24951F82000039072
:101DA000012010210C23CDE9001008212820039ADE
:101DB00001F0ABFAE9480079642190FBF1F00A21C7
:101DC00090FBF1F201FB1200E64951F8200003906C
:101DD000012010210C23CDE9001008213120039AA5
:101DE00001F093FADD4800790A2190FBF1F0DD491A
:101DF00051F820000390012010210C23CDE90010A0
:101E000008213A20039A01F080FAD44800790A2187
:101E100090FBF1F201FB1200D24951F8200003902F
:101E2000012010210C23CDE9001008214320039A42
:101E300001F06BFA01201021CDE90010C74840796C
:101E4000C94951F820000C23024608210390F820CC
:101E500001F05BFA01F022FA71E00020BF498871BD
:101E600001F04AF8012010212023C04ACDE90010DA
:101E70003C210F2001F049FAB84840780A2190FB34
:101E8000F1F0B74951F820000390012040212123AF
:101E9000CDE9001028213C20039A01F036FAAF4822
:101EA00040780A2190FBF1F201FB1200AC4951F895
:101EB00020000390012040212123CDE9001028219A
:101EC0006920039A01F021FAA44800780A2190FBC6
:101ED000F1F0A34951F82000039002204021212372
:101EE000CDE900102821AF20039A01F00EFA9B489B
:101EF00000780A2190FBF1F201FB1200984951F899
:101F000020000390022040212123CDE90010282148
:101F1000DC20039A01F0F9F901201021CDE900102D
:101F20008E484079904951F820000C230246082140
:101F30000390F82001F0E9F901F0B0F900BF00BF0B
:101F4000F0E28648807907286FD2DFE800F0390494
:101F50006FA5DBFEFD0081484078401C182190FBF6
:101F6000F1F201FB12007D49487000F0C5FF7B488B
:101F700040780A2190FBF1F0794951F82000039054
:101F8000022040212123CDE9001028213C20039A82
:101F900001F0BBF9714840780A2190FBF1F201FB96
:101FA00012006F4951F820000390022040212123A4
:101FB000CDE9001028216920039A01F0A6F9A4E2D6
:101FC00066480078401C3C2190FBF1F201FB1200B6
:101FD0006249087000F090FF604800780A2190FB89
:101FE000F1F05F4951F820000390022040212123A5
:101FF000CDE900102821AF20039A01F086F9574857
:1020000000780A2190FBF1F201FB1200544951F8CB
:1020100020000390022040212123CDE90010282137
:10202000DC20039A01F071F96FE26DE24B48807891
:10203000401C4A49887008468078202801D1012038
:10204000887000F059FF454880780A2190FBF1F034
:10205000444951F820000390022010210C23CDE9BF
:10206000001008217C20039A01F04FF93B4880784A
:102070000A2190FBF1F201FB12003A4951F82000CD
:102080000390022010210C23CDE9001008218520A7
:10209000039A01F03AF938E23048C078401C2F49E1
:1020A000C8700846C0780D2801D10120C87000F022
:1020B00023FF2A48C0780A2190FBF1F0294951F802
:1020C00020000390022010210C23CDE900100821EC
:1020D0005B20039A01F019F92048C0780A2190FB8F
:1020E000F1F201FB12001F4951F820000221039078
:1020F00010200C23CDE9000108216420039A01F08F
:1021000004F902E215480079401C1449087100F0F6
:10211000F3FE124800794FF47A7190FBF1F0114907
:1021200051F820000390022010210C23CDE900106B
:1021300008212820039A01F0E8F808480079642172
:1021400090FBF1F00A2101E064E045E090FBF1F240
:1021500001FB1200034951F8200009E0B4000020FF
:10216000700000204800002098000020EE78000851
:102170000221039010200C23CDE900010821312019
:10218000039A01F0C2F8FE4800790A2190FBF1F0B1
:10219000FC4951F820000390022010210C23CDE9C6
:1021A000001008213A20039A01F0AFF8F4480079B2
:1021B0000A2190FBF1F201FB1200F24951F82000D4
:1021C0000221039010200C23CDE9000108214320B7
:1021D000039A01F09AF898E1E9484079401CE849EF
:1021E000487108464079082801D10120487100F063
:1021F00083FE02201021CDE90010E1484079E24938
:1022000051F820000C23024608210390F82001F029
:102210007CF87AE10320049004F0E1FAD8480078D1
:1022200040B2DA494870D648407840B28870D44805
:10223000807840B2C870D248C07840B20871D048A7
:10224000007940B28871CE48407940B24871002090
:10225000087001F0B6FA04F0E5FA00F04DFE012036
:1022600010212023CA4ACDE900103C210F2001F0A3
:102270004CF8C34840780A2190FBF1F0C54951F869
:1022800020000390032040212123CDE900102821C4
:102290003C20039A01F039F8B94840780A2190FBB4
:1022A000F1F201FB1200BB4951F820000321039019
:1022B00040202123CDE9000128216920039A01F063
:1022C00024F8032008210B46B34ACDE900103F2132
:1022D000962001F01AF8032008210B46AE4ACDE9FA
:1022E00000105521962001F010F8A54800780A2129
:1022F00090FBF1F0A74951F8200003210390402002
:102300002123CDE900012821AF20039A00F0FDFF31
:102310009B4800780A2190FBF1F201FB12009D49D5
:1023200051F820000390032040212123CDE9001023
:102330002821DC20039A00F0E8FF914800794FF44F
:102340007A7190FBF1F08F4951F82000032103903E
:1023500010200C23CDE9000108212820039A00F069
:10236000D4FF87480079642190FBF1F00A2190FBAB
:10237000F1F201FB1200834951F820000390032081
:1023800010210C23CDE9001008213120039A00F020
:10239000BCFF7B4800790A2190FBF1F0794951F8A4
:1023A00020000390032010210C23CDE90010082108
:1023B0003A20039A00F0A9FF714800790A2190FBA6
:1023C000F1F201FB12006F4951F820000390032045
:1023D00010210C23CDE9001008214320039A00F0BE
:1023E00094FF032010210C236C4ACDE90010082132
:1023F0004F2000F08AFF6248C0780A2190FBF1F07C
:10240000604951F820000390032010210C23CDE9EE
:10241000001008215B20039A00F077FF5848C0782D
:102420000A2190FBF1F201FB1200564951F82000FD
:102430000321039010200C23CDE900010821642022
:10244000039A00F062FF032010210C23544ACDE9C7
:1024500000100821702000F058FF494880780A21B8
:1024600090FBF1F0474951F8200003900320102120
:102470000C23CDE9001008217C20039A00F045FFD1
:102480003F4880780A2190FBF1F201FB12003D49A0
:1024900051F820000390032010210C23CDE90010F7
:1024A00008218520039A00F030FF032010210C231F
:1024B0003C4ACDE900100821912000F026FF0320BE
:1024C00010210C23384ACDE900100821DC2000F04F
:1024D0001CFF032010210C23344ACDE900100821F1
:1024E000EA2000F012FF03201021CDE9001024485B
:1024F0004079254951F820000C2302460821039019
:10250000F82000F002FF00E000BF00BF0120102112
:102510002023274ACDE900103C210F2000F0F5FED2
:1025200000F0BCFE35E31648807907287ED2DFE84C
:1025300000F056048FC6FDFCFB0011484078401E99
:10254000182190FBF1F201FB12000D49487000F0D8
:10255000D3FC0B4840780A2190FBF1F00D4951F86B
:1025600020000390022040212123CDE900102821E2
:102570003C20039A00F0C9FE014840780A2119E086
:10258000B40000204800002098000020BB0000207C
:102590006E7900087000002056760008F677000873
:1025A0000E780008267800083E7800085678000863
:1025B000EE78000890FBF1F201FB1200FE4951F8A1
:1025C00020000390022040212123CDE90010282182
:1025D0006920039A00F099FE00F060FEB3E2F7482C
:1025E0000078401E062190FBF1F201FB1200F34936
:1025F000087000F081FCF14800780A2190FBF1F0AE
:10260000ED4951F820000390022040212123CDE91B
:1026100000102821AF20039A00F077FEE7480078E9
:102620000A2190FBF1F201FB120000E08AE2E2498C
:1026300051F820000390022040212123CDE9001011
:102640002821DC20039A00F060FE00F027FE7AE2E9
:10265000DA488078401ED94988700846807808B9E1
:102660001F20887000F048FCD44880780A2190FB35
:10267000F1F0D34951F820000390022010210C23DF
:10268000CDE9001008217C20039A00F03EFECB48E3
:1026900080780A2190FBF1F201FB1200C84951F841
:1026A00020000390022010210C23CDE90010082106
:1026B0008520039A00F029FE00F0F0FD43E2BF48B8
:1026C000C078401EBD49C8700846C07808B90C20C3
:1026D000C87000F011FCB948C0780A2190FBF1F0F5
:1026E000B74951F820000221039010200C23CDE9B6
:1026F000000108215B20039A00F007FEAF48C07874
:102700000A2190FBF1F201FB1200AD4951F82000C3
:102710000390022010210C23CDE900100821642031
:10272000039A00F0F2FD02E081E061E002E000F0D7
:10273000B5FD08E2A1480079401EA049087100F0EB
:10274000DBFB9E4800794FF47A7190FBF1F09C49D5
:1027500051F820000390022010210C23CDE9001035
:1027600008212820039A00F0D0FD944800796421C4
:1027700090FBF1F00A2190FBF1F201FB120090496D
:1027800051F820000390022010210C23CDE9001005
:1027900008213120039A00F0B8FD884800790A2109
:1027A00090FBF1F0864951F820000221039010209F
:1027B0000C23CDE9000108213A20039A00F0A5FD81
:1027C0007E4800790A2190FBF1F201FB12007C495E
:1027D00051F820000390022010210C23CDE90010B5
:1027E00008214320039A00F090FD00F057FDAAE174
:1027F00072484079401E714948710846407908B9CD
:102800000720487100F078FB02201021CDE900106C
:102810006A4840796B4951F820000C230246082190
:102820000390F82000F071FD00F038FD8BE10320EB
:10283000049003F0D4FF6148007840B262494870C8
:102840005E48407840B288705C48807840B2C8707A
:102850005A48C07840B208715848007940B288712F
:102860005648407940B248710020087000F0A9FF36
:1028700003F0D8FF00F040FB012010212023534A31
:10288000CDE900103C210F2000F03FFD4B4840787F
:102890000A2190FBF1F0484951F8200003900320F1
:1028A00040212123CDE9001028213C20039A00F08B
:1028B0002CFD424840780A2190FBF1F201FB120006
:1028C0003D4951F820000390032040212123CDE908
:1028D000001028216920039A00F017FD0320082129
:1028E0000B463B4ACDE900103F21962000F00DFD3C
:1028F000032008210B46364ACDE9001055219620C9
:1029000000F003FD2D4800780A2190FBF1F02A49E0
:1029100051F820000390032040212123CDE900102D
:102920002821AF20039A00F0F0FC244800780A2107
:1029300090FBF1F201FB12001F4951F820000390B7
:10294000032040212123CDE900102821DC20039A17
:1029500000F0DBFC194800794FF47A7190FBF1F03C
:10296000174951F820000321039010200C23CDE9D2
:10297000000108212820039A00F0C7FC0F480079C5
:10298000642190FBF1F00A2190FBF1F201FB1200AF
:102990000B4951F820000321039010200C23CDE9AE
:1029A000000108213120039A00F0AFFC03480079B0
:1029B0000A2190FBF1F00DE070000020B40000202F
:1029C0004800002098000020BB0000206E7900081D
:1029D00056760008C64951F82000032103901020C4
:1029E0000C23CDE9000108213A20039A00F08DFC68
:1029F000C04800790A2190FBF1F201FB1200BC49AA
:102A000051F820000390032010210C23CDE9001081
:102A100008214320039A00F078FC032010210C23A6
:102A2000B54ACDE9001008214F2000F06EFCB148F6
:102A3000C0780A2190FBF1F0AD4951F82000032144
:102A4000039010200C23CDE9000108215B20039A9C
:102A500000F05BFCA748C0780A2190FBF1F201FB73
:102A60001200A34951F820000390032010210C23E9
:102A7000CDE9001008216420039A00F046FC0320F1
:102A800010210C239D4ACDE900100821702000F090
:102A90003CFC984880780A2190FBF1F0944951F869
:102AA00020000390032010210C23CDE90010082101
:102AB0007C20039A00F029FC8E4880780A2190FB44
:102AC000F1F201FB12008A4951F820000390032023
:102AD00010210C23CDE9001008218520039A00F075
:102AE00014FC032010210C23854ACDE90010082195
:102AF000912000F00AFC032010210C23814ACDE92B
:102B000000100821DC2000F000FC032010210C2321
:102B10007D4ACDE900100821EA2000F0F6FB0320F1
:102B20001021CDE9001073484079784951F8200010
:102B30000C23024608210390F82000F0E6FB00F089
:102B4000ADFB00E000BF00BF00F0D6F9012010216E
:102B500020236F4ACDE900103C210F2000F0D5FB67
:102B600000F09CFB15E00320049000F0C5F9022062
:102B700010212023674ACDE900103C21192000F0E4
:102B8000C4FB00F08BFB4FF47A7002F0C5F900E053
:102B900000BF00BF31E09DF81400012802D00428D6
:102BA00025D109E000F0A8F900F0B6F95A4800F084
:102BB000B7FA00F073FB1BE00020049000F09CF9D2
:102BC000012010212023554ACDE900106821192049
:102BD00000F09BFB022010212023514ACDE9001078
:102BE0006821552000F091FB00F058FB00E000BF89
:102BF00000BF02E00020049000BF00BFFEF7A8B9AC
:102C00007CB50546012403F0EAFD46480321002374
:102C10002202CDE9001044A1464801F0FBFE044623
:102C20004548032100238022CDE9001043A14648F6
:102C300001F0F0FE04464548042100238022CDE93E
:102C4000001043A1454801F0E5FE04464448032135
:102C500000238022CDE9001042A1454801F0DAFEB0
:102C6000044603F0DFFD4348006801F021FF7CBD0E
:102C70001CB500F0A5F800F0FEFE00F0F3FB00F03C
:102C800080FC00F078FA3C4800F01EFB4FF4FA702C
:102C900000F0BAF800220121052000F0D8FF3749E2
:102CA000086000213548006800F078FF002201210B
:102CB000052000F0CCFF3249086000213048006850
:102CC00000F06CFF01242B48012100238022CDE974
:102CD00000102CA12F4801F09DFE0446012C01D1CB
:102CE00002F0C5FB02E002202B490860FBE7000070
:102CF00048000020B4000020F67700080E78000895
:102D0000267800083E7800085678000898000020D1
:102D1000EE780008AE7900089AD600086E780008B0
:102D2000AE7800082C000020436C6F636B5F546129
:102D3000736B00002D0D0008300000204C65645FAF
:102D40005461736B00000000630D00083400002024
:102D50004B65795F5461736B000000007B0D0008C8
:102D6000380000204D656E755F5461736B00000084
:102D7000E10E0008280000206E8C00083C000020B6
:102D8000400000204170704372656174655F54615A
:102D9000736B0000012C000814080140704700BF4D
:102DA000FEE700BFFEE700BFFEE700BFFEE770479B
:102DB00010B502F024FD012801D003F04BFD10BD39
:102DC00008B501210420FDF703FF0220ADF8000043
:102DD00010208DF8030003208DF802006946094891
:102DE000FDF73AFC0220ADF8000069460548FDF702
:102DF00033FC02210348FDF7DEFC02210148FDF708
:102E0000DAFC08BD000801400022002100BF06E0F6
:102E1000002200E0521CB2F5205FFBD3491C814226
:102E2000F6D3704770B5044625462021FE48FDF7CD
:102E3000C2FC002617E005F0800020B11021FA48FE
:102E4000FDF7B7FC03E01021F748FDF7B4FC2021A3
:102E5000F548FDF7AEFC2021F348FDF7ACFC680611
:102E6000050E701CC6B2082EE5DB70BD10B505E07E
:102E70000221EE48FDF783FC00B900E0F8E700BF4F
:102E800010BD10B504464021E748FDF792FC4021F3
:102E9000E548FDF790FC8021E348FDF78CFC2046D7
:102EA000FFF7C0FF4021E048FDF783FC10BD10B5DF
:102EB00004464021DC48FDF77CFC4021DA48FDF760
:102EC0007AFC8021D848FDF774FC2046FFF7AAFF62
:102ED0004021D548FDF76DFC10BD70B50546322088
:102EE000FFF7CFFF002404E0285DFFF7E0FF601C40
:102EF000C4B2E32CF8DB70BD10B50121CB48FDF75F
:102F00005AFC6420FFF780FF0121C848FDF751FCFF
:102F10006420FFF779FF10BD2DE9F04700240F274B
:102F2000002500264FF027084FF00109FFF7E4FFC6
:102F3000FFF79CFF1220FFF7A4FFFFF797FF012088
:102F4000FFF79FFF2720FFF7B2FF0120FFF7AFFF3A
:102F50000020FFF7ACFF1120FFF793FF0320FFF7DE
:102F6000A6FF3C20FFF78DFF0020FFF7A0FF2120E8
:102F7000FFF787FF0020FFF79AFF8020FFF797FFFA
:102F80002C20FFF77EFFAA4991F89E00FFF78FFFE4
:102F90003F20FFF776FFA64991F89900FFF787FFDA
:102FA0000320FFF76EFFA24991F89A00FFF77FFF19
:102FB0000420FFF766FF9E4991F89B00FFF777FF1B
:102FC0009B4991F89C00FFF772FF994991F89D0089
:102FD000FFF76DFF9648FFF780FF4420FFF751FF92
:102FE0002046FFF764FF3846FFF761FF4520FFF7F3
:102FF00048FF2846FFF75BFF3046FFF758FF404683
:10300000FFF755FF4846FFF752FF4E20FFF739FF05
:103010002046FFF74CFF4F20FFF733FF2846FFF70E
:1030200046FF3046FFF743FFFFF720FFBDE8F0877C
:1030300070B504460D46002022462B46002110E0C4
:103040004606300E02F0C006C02E03D002F0C006C5
:10305000402E02D140F0010000E000BF9606320E83
:10306000491C0429ECD3002110E04606300E03F081
:10307000C006C02E03D003F0C006402E02D140F09F
:10308000010000E000BF9E06330E491C0429ECD36A
:1030900070BD70B504460D46002022462B46002127
:1030A00010E04606300E02F0C006C02E03D002F03B
:1030B000C006802E02D140F0010000E000BF96065D
:1030C000320E491C0429ECD3002110E04606300ED4
:1030D00003F0C006C02E03D003F0C006802E02D13C
:1030E00040F0010000E000BF9E06330E491C042999
:1030F000ECD370BD10B52220FFF7C3FEC720FFF749
:10310000D6FE2020FFF7BDFEFFF7B0FE1020FFF730
:10311000B8FE0120FFF7CBFE6420FFF775FE10BD5F
:1031200070B505462420FFF7ACFE00240AE02A19FA
:103130005178285DFFF77CFF0646F143C8B2FFF7E0
:10314000B6FEA41CB4F5145FF1D32620FFF799FE58
:1031500000240AE02A195178285DFFF79AFF0646F5
:10316000F143C8B2FFF7A3FEA41CB4F5145FF1D37A
:10317000FFF7C0FF70BD2DE9F04700240F2727257A
:103180000126A046A146FFF7B7FEFFF76FFE12200B
:10319000FFF777FEFFF76AFE0120FFF772FE272098
:1031A000FFF785FE0120FFF782FE0020FFF77FFE7C
:1031B0001120FFF766FE0120FFF779FE3C20FFF7A4
:1031C00060FE0120FFF773FE2120FFF75AFE00206A
:1031D000FFF76DFE8020FFF76AFE1820FFF751FE13
:1031E0008020FFF764FE4420FFF74BFE2046FFF7E8
:1031F0005EFE3846FFF75BFE4520FFF742FE28469D
:10320000FFF755FE3046FFF752FE4046FFF74FFEF0
:103210004846FFF74CFE4E20FFF733FE2046FFF7EF
:1032200046FE4F2006E0000000080140000C01406F
:103230009AFB0008FFF725FE2846FFF738FE3046C8
:10324000FFF735FEFFF712FEBDE8F08710B522202C
:10325000FFF717FEF720FFF72AFE2020FFF711FEE9
:10326000FFF704FE1020FFF70CFE0120FFF71FFE02
:103270006420FFF7C9FD10BD70B504462420FFF798
:1032800000FE002504E02078FFF711FE641C6D1C91
:10329000B5F5945FF7D3FFF7D9FF70BD10B52220C5
:1032A000FFF7EFFDFF20FFF702FE2020FFF7E9FD0B
:1032B000FFF7DCFD1020FFF7E4FD0120FFF7F7FD2D
:1032C0006420FFF7A1FD10BD70B5044626462420FA
:1032D000FFF7D7FD002504E02078FFF7E8FD641C28
:1032E0006D1CB5F5945FF7D334462620FFF7C9FD72
:1032F000002504E02078FFF7DAFD641C6D1CB5F5AD
:10330000945FF7D3FFF7A2FF70BD2DE9F04F85B0B2
:1033100004460D4617469946DDE90E8A2846E91708
:1033200005EB5171CD1040464FEAE87108EB517141
:1033300005EBE101491E049140F22710041B2046D1
:10334000E11704EB116109120391E11704EB11611C
:103350000912A4EB01210291A4EB0900461C30469E
:10336000F11706EB116109120191F11706EB1161DA
:103370000912A6EB012100914420FFF782FDE8B27B
:10338000FFF795FD0499C8B2FFF791FD4520FFF7BF
:1033900078FD0299C8B2FFF78AFD0399C8B2FFF71A
:1033A00086FD0099C8B2FFF782FD0199C8B2FFF708
:1033B0007EFD4E20FFF765FDE8B2FFF778FD4F2058
:1033C000FFF75FFD0299C8B2FFF771FD0399C8B21C
:1033D000FFF76DFDFFF74AFD2420FFF752FD4FF088
:1033E000000B17E0BAF1010F03D13878FFF75FFD4A
:1033F0007F1CBAF1020F05D13978C943C8B2FFF773
:1034000056FD7F1CBAF1030F02D1FF20FFF74FFDDD
:103410000BF1010B09FB08F0C11700EB5171BBEB7D
:10342000E10FDFDB05B0BDE8F08F10B52420FFF71A
:1034300028FD002403E0FF20FFF739FD641CB4F5EC
:10344000945FF8D32620FFF71CFD002403E0FF2043
:10345000FFF72DFD641CB4F5945FF8D3FFF7F6FE7B
:1034600010BD000008B501210820FDF7B1FB0121C6
:103470000820FDF7ADFB01210420FDF7A9FB012188
:103480000420FDF7A5FB01210420FDF7A1FB01218C
:103490000420FDF79DFB4020ADF8000010208DF8C2
:1034A000030002208DF8020069462248FDF7D4F897
:1034B0002020ADF8000010208DF8030002208DF8C8
:1034C000020069461B48FDF7C7F81020ADF8000060
:1034D0008DF8030002208DF8020069461548FDF7BB
:1034E000BBF88020ADF8000010208DF8030002200A
:1034F0008DF8020069460F48FDF7AEF80120ADF8DF
:10350000000010208DF8030002208DF802006946AB
:103510000948FDF7A1F80220ADF8000004208DF85D
:10352000030002208DF8020069460348FDF794F875
:1035300008BD000000080140000C014010B500214A
:103540004FF0E0235A69FE4B1B68FE4CB3FBF4F3CB
:1035500003FB00F14FF0E0231B6923F001034FF060
:10356000E024236100E000BF0B1EA1F10101FAD1AC
:103570004FF0E0231B6943F001034FF0E024236187
:1035800010BD08B501211820FDF722FB10208DF891
:10359000030003208DF802004FF40050ADF8000046
:1035A0006946E948FDF758F84FF48070ADF800001F
:1035B0006946E648FDF750F84FF40070ADF800009A
:1035C0006946E248FDF748F84FF40051DE48FDF740
:1035D000F2F84FF48071DD48FDF7EDF808BD38B51D
:1035E00004464FF40070ADF8000003208DF802008F
:1035F00014B1012C10D107E010208DF803006946AA
:10360000D248FDF729F808E048208DF80300694604
:10361000CE48FDF721F800E000BF00BF38BD70B50F
:1036200004460D460020FFF7DAFF4FF40051C6486C
:10363000FDF7BFF80320FFF781FF002623E004F029
:10364000010028B14FF40071C048FDF7B2F804E062
:103650004FF40071BD48FDF7AEF864100120FFF78C
:103660006DFF4FF48071B948FDF7A3F80120FFF713
:1036700065FF4FF48071B548FDF79DF80120FFF715
:103680005DFF701CC6B2082ED9DB002623E005F0D2
:10369000010028B14FF40071AC48FDF78AF804E04E
:1036A0004FF40071A948FDF786F86D100120FFF76F
:1036B00045FF4FF48071A548FDF77BF80120FFF727
:1036C0003DFF4FF48071A148FDF775F80120FFF729
:1036D00035FF701CC6B2082ED9DB4FF400519A4852
:1036E000FDF769F870BD70B50446002644F001048A
:1036F0004FF400519448FDF75CF80320FFF71EFFDC
:10370000002523E004F0010028B14FF400718F4838
:10371000FDF74FF804E04FF400718C48FDF74BF8CB
:1037200064100120FFF70AFF4FF480718748FDF70E
:1037300040F80120FFF702FF4FF480718348FDF746
:103740003AF80120FFF7FAFE681CC5B2082DD9DB54
:103750000120FFF744FF0520FFF7F0FE00251FE0E2
:103760004FF400717948FDF70AF820B10120A84014
:103770003043C6B202E00120A84086434FF4807176
:103780007248FDF716F80120FFF7D8FE4FF480715C
:103790006E48FDF710F80120FFF7D0FE681CC5B297
:1037A000082DDDDB4FF400516748FDF704F80020D9
:1037B000FFF715FF4FF400716448FCF7FCFF30463B
:1037C00070BD10B500218E20FFF729FF604890F9E9
:1037D00000000A2190FBF1F201FB12015C4890F914
:1037E00000000A2290FBF2F001EB0010C4B2214667
:1037F0008020FFF714FF564890F901000A2190FB42
:10380000F1F201FB1201524890F901000A2290FBEB
:10381000F2F001EB0010C4B221468220FFF7FFFE58
:103820004B4890F902000A2190FBF1F201FB1201D2
:10383000474890F902000A2290FBF2F001EB0010D9
:10384000C4B221468420FFF7EAFE414890F9030004
:103850000A2190FBF1F201FB12013D4890F90300AF
:103860000A2290FBF2F001EB0010C4B22146862040
:10387000FFF7D5FE364890F904000A2190FBF1F2DB
:1038800001FB1201324890F904000A2290FBF2F089
:1038900001EB0010C4B221468820FFF7C0FE2C487F
:1038A00041798A20FFF7BBFE294890F906000A21DA
:1038B00090FBF1F201FB1201254890F906000A2263
:1038C00090FBF2F001EB0010C4B221468C20FFF710
:1038D000A6FE80218E20FFF7A2FE10BD10B50024A9
:1038E0008020FFF700FF04462046E21704EB127227
:1038F0001211A4EB02122146E31704EB13731B1100
:1039000003EB830302EB430252B2114B1A70822085
:10391000FFF7E9FE04462046E21704EB127212118B
:10392000A4EB02122146E31704EB13731B1103EB04
:10393000830302EB430252B2054B5A70842009E024
:103940000000002040420F0000100140000C014028
:10395000BB000020FFF7C7FE04462046E21704EB39
:1039600012721211A4EB02122146E31704EB137337
:103970001B1103EB830302EB430252B22F4B9A70ED
:103980008620FFF7B0FE04462046E21704EB1272D1
:103990001211A4EB02122146E31704EB13731B115F
:1039A00003EB830302EB430252B2244BDA7088200C
:1039B000FFF799FE04462046E21704EB127212113B
:1039C000A4EB02122146E31704EB13731B1103EB64
:1039D000830302EB430252B2184B1A718A20FFF79D
:1039E00082FE04462046E21704EB12721211A4EB89
:1039F00002122146E31704EB13731B1103EB83033D
:103A000002EB430252B20D4B5A718C20FFF76BFE52
:103A100004462046E21704EB12721211A4EB0212C4
:103A20002146E31704EB13731B1103EB830302EB33
:103A3000430252B2014B9A7110BD0000BB0000203E
:103A400008B54FF44070FCF7ABFC28208DF800005F
:103A500005208DF8010000208DF8020001208DF86E
:103A600003006846FCF7A1FC28208DF8000068469A
:103A7000FCF79BFC08BD0EB501210920FDF7A8F855
:103A8000FFF7DEFF4FF48040ADF8080048208DF8C6
:103A90000B0003208DF80A0002A91A48FCF7DCFD90
:103AA0000E210120FCF7EEFE4FF480400090002034
:103AB0008DF804000C208DF8050001208DF806001B
:103AC0006846FCF7E9FC4FF40040ADF808004820D8
:103AD0008DF80B0002A90B48FCF7BEFD0F21012059
:103AE000FCF7D0FE4FF40040009000208DF8040059
:103AF0000C208DF8050001208DF806006846FCF7C3
:103B0000CBFC0EBD000C014000F1080141604FF0FC
:103B1000FF31816000F10801C16001610021016095
:103B2000704700210161704742684A6093688B606A
:103B3000936859609160086103685B1C036070477B
:103B400010B502460B685C1C0CB9106907E002F165
:103B5000080000E04068446824689C42FAD9446840
:103B60004C604C68A160886041600A611468641C04
:103B7000146010BD01460A69D1E901309860D1E9AD
:103B8000010358605068884201D188685060002065
:103B900008611068401E10601068704770B50546D7
:103BA0000E462C462CB940F21B12F8A1FEA002F0E2
:103BB00025FF02F014FED4E90F12206801FB020079
:103BC00060600020A0632068A060E06B401E226C53
:103BD000216800FB0210E060FF2084F8440084F8B4
:103BE00045009EB9206908B9012000E00020A8B96D
:103BF00004F1100001F028FD80B14FF08050EE4933
:103C00000860BFF34F8FBFF36F8F07E004F1100020
:103C1000FFF77AFF04F12400FFF776FF02F002FEBF
:103C2000012070BD2DE9F04106460D461746984625
:103C3000069C0DB9246000E02760E663256401213D
:103C40002046FFF7ABFF0020A064BDE8F0812DE91E
:103C5000F84305460E4690460DB1012000E00020D5
:103C600028B94FF4C472C9A1CFA002F0C7FE0EB9A3
:103C7000002701E005FB06F707F14C0002F035FCD8
:103C8000044644B104F14C0943464A4631462846AD
:103C90000094FFF7C7FF2046BDE8F8832DE9F04107
:103CA00004460F4615464FF00008A66B206C40B93D
:103CB000206860BB606801F000FE80460020606004
:103CC00025E07DB93946226CA06802F031FE216CF6
:103CD000A0680844A060D4E90110884217D3206886
:103CE000A06014E03946226CE06802F021FE216CED
:103CF000E068401AE0602168E068884203D2216CE5
:103D00006068401AE060022D01D106B1761E701C79
:103D1000A0634046BDE8F0812DE9F3410D460098CF
:103D2000846C00272CB940F6CE1298A19EA002F018
:103D300065FEA06BE16B884201D2012000E000200B
:103D400028B940F6CF1291A197A002F057FEA06BC0
:103D5000E16B88421BD294F945602A4669462046A9
:103D6000FFF79CFF0746701C60B9606A08B9012024
:103D700000E0002050B904F1240001F065FC28B1F6
:103D8000012703E0701C40B284F8450000BF3846AC
:103D9000BDE8FC8170B5044602F021FD94F9455060
:103DA0001AE0A06C38B100212046FFF7B5FF88B1BA
:103DB00001F01EFD0EE0606A08B9012000E000205D
:103DC00038B904F1240001F03FFC18B101F010FDF6
:103DD00000E003E0681E45B2002DE2DC00BFFF20DA
:103DE00084F8450002F01EFD02F0F9FC94F94450FD
:103DF00010E0206908B9012000E0002048B904F172
:103E0000100001F021FC08B101F0F2FC681E45B27F
:103E100000E001E0002DECDC00BFFF2084F844004E
:103E200002F000FD70BD70B5054602F0D8FCA86B2D
:103E3000E96B884201D1012400E0002402F0F2FC89
:103E4000204670BD2DE9FF4383B0064688461D46D7
:103E50004FF0000934462CB940F2D9224BA152A0B0
:103E600002F0CCFDB8F1000F01D1206C08B901209F
:103E700000E0002028B940F2DA2244A14AA002F072
:103E8000BDFD022D02D1E06B012801D1012000E02F
:103E9000002028B940F2DB223CA143A002F0AEFD95
:103EA00001F0ADFC08B9059808B9012000E0002038
:103EB00028B940F2DE2235A13BA002F09FFD00BFF1
:103EC00002F08DFCA06BE16B884201D3022D38D14A
:103ED0002A4641462046FFF7E1FE0746A06C68B13E
:103EE00029462046FFF718FF28B34FF0805032498B
:103EF0000860BFF34F8FBFF36F8F1CE0606A08B993
:103F0000012000E0002068B904F1240001F09CFBCE
:103F100088B14FF0805028490860BFF34F8FBFF33E
:103F20006F8F08E03FB14FF0805023490860BFF326
:103F30004F8FBFF36F8F02F075FC012007B0BDE813
:103F4000F083059818B902F06DFC0020F6E7B9F18E
:103F5000000F04D101A801F0FBFB4FF0010902F0B2
:103F600061FC00F078FF02F03AFC94F94400401C38
:103F700010B9002084F8440094F94500401C10B9A1
:103F8000002084F8450002F04DFC17E02E2E5C2E38
:103F90002E5C4672656552544F535C7372635C715C
:103FA000756575652E6300004572726F723A2573F0
:103FB0002C25640D0A00000004ED00E005A901A80D
:103FC00001F0D8FBF8B92046FFF72DFFA8B104F1A6
:103FD0001000059901F0DAFA2046FFF7DBFE00F049
:103FE0008FFE00287FF46CAF4FF08050FA490860D4
:103FF000BFF34F8FBFF36F8F62E72046FFF7CAFE14
:1040000000F07EFE5CE72046FFF7C4FE00F078FE7D
:10401000002093E710B504464CB10020606020609A
:10402000E06000231A4619462046FFF70BFF10BD3B
:104030002DE9F041044601260027224600210120F7
:10404000FFF705FE05462846FFF7E4FF2846BDE8D2
:10405000F08170B5064634463CB940F24122AFF2D9
:10406000D401AFF2BC0002F0C9FC01F0C5FB6168ED
:1040700088420CD1E068401EE060E06828B9002367
:104080001A4619462046FFF7DDFE012500E000250F
:10409000284670BD70B5054602F0A1FBA86B08B9B3
:1040A000012400E0002402F0BDFB204670BD70B585
:1040B00004460D46206C70B1216CE0680844E06055
:1040C0006168E068884201D32068E0602846226C7D
:1040D000E16802F02DFC70BD2DE9FF4782B0054676
:1040E0000E461F464FF0000A2C463CB940F2DC4217
:1040F000AFF26811AFF2501002F080FC0EB9206CE4
:1041000008B9012000E0002038B940F2DD42AFF2EA
:104110008411AFF26C1002F071FC01F070FB08B971
:10412000049808B9012000E0002038B94FF49C62DF
:10413000AFF2A811AFF2901002F060FC00BF02F0E5
:104140004EFBD4F83890B9F1000F3DD0D4F80C8074
:1041500031462046FFF7ABFFDFB9A9F10100A063AC
:10416000206810B901F020FC6060206908B90120C6
:1041700000E0002010BB04F1100001F065FAE8B186
:104180004FF0805094490860BFF34F8FBFF36F8F9B
:1041900014E0C4F80C80606A08B9012000E0002037
:1041A00060B904F1240001F04FFA38B14FF08050AB
:1041B00089490860BFF34F8FBFF36F8F02F032FB66
:1041C000012006B0BDE8F087049818B902F02AFB78
:1041D0000020F6E7BAF1000F04D1684601F0B8FA02
:1041E0004FF0010A02F01EFB00F035FE02F0F7FA74
:1041F00094F94400401C10B9002084F8440094F95C
:104200004500401C10B9002084F8450002F00AFB6C
:1042100004A9684601F0AEFA40BB2046FFF73AFF1A
:10422000F0B1206830B902F0DAFA606801F0F3FA10
:1042300002F0F8FA04F12400049901F0A7F92046ED
:10424000FFF7A8FD00F05CFD00287FF478AF4FF089
:10425000805061490860BFF34F8FBFF36F8F6EE7E7
:104260002046FFF797FD00F04BFD68E72046FFF77B
:1042700091FD00F045FD2046FFF70CFF0028EED031
:1042800000209EE72DE9F04106460F4634463CB932
:104290004FF41E72AFF20C31AFF2F42002F0AEFB1D
:1042A00001F0AAFA6168884204D1E068401CE0602D
:1042B00001250AE000233A4619462046FFF70CFF85
:1042C000054615B1E068401CE0602846BDE8F08175
:1042D00070B505460E460DB1012000E0002038B94A
:1042E00040F2BD22AFF25C31AFF2443002F086FB07
:1042F000AE4201D8012000E0002038B940F2BE22D1
:10430000AFF27831AFF2603002F078FB0222002188
:104310002846FFF79CFC044604B1A663204670BD06
:104320002DE9F05F80468A4615461E4644463CB954
:1043300040F29F32AFF2AC31AFF2943002F05EFB4C
:10434000BAF1000F01D1206C08B9012000E0002073
:1043500038B94FF46872AFF2CC31AFF2B43002F03A
:104360004DFB022E02D1E06B012801D1012000E0BB
:10437000002038B940F2A132AFF2F031AFF2D830BC
:1043800002F03CFB02F07EFA00BF5021EFF31180F7
:1043900081F31188BFF34F8FBFF36F8F00BF0746C4
:1043A000A06BE16B884201D3022E2ED194F945B067
:1043B000324651462046FFF771FC0BF10100E0B98F
:1043C000A06C58B131462046FFF7A6FCD0B1CDB164
:1043D0000120286016E0000004ED00E0606A08B9E2
:1043E000012000E0002068B904F1240001F02CF95C
:1043F00040B13DB10120286004E00BF1010040B262
:1044000084F845004FF0010901E04FF0000900BFBA
:1044100087F3118800BF4846BDE8F09F2DE9F047BB
:1044200007460D463C463CB940F23C42AFF2A4413F
:10443000AFF28C4002F0E2FA206C08B9012000E0F3
:10444000002038B94FF48862AFF2C041AFF2A84003
:1044500002F0D4FA206808B9606808B9012000E0C9
:10446000002038B940F24542AFF2E041AFF2C84017
:1044700002F0C4FA02F006FA00BF5021EFF31180F7
:1044800081F31188BFF34F8FBFF36F8F00BF0646D4
:10449000D4F83890E06B484529D994F945A009F142
:1044A0000100A0630AF10100C8B9A06C40B100216D
:1044B0002046FFF731FCB8B1B5B10120286013E008
:1044C000606A08B9012000E0002068B904F1240006
:1044D00001F0BAF840B13DB10120286004E00AF1D2
:1044E000010040B284F845004FF0010801E04FF0B0
:1044F000000800BF86F3118800BF4046BDE8F08782
:104500002DE9F05F06468946174634463CB94FF41C
:10451000B462AFF28851AFF2705002F06FFAB9F1A5
:10452000000F01D1206C08B9012000E0002038B94B
:1045300040F2A152AFF2AC51AFF2945002F05EFAE9
:1045400002F0A0F900BF5021EFF3118081F3118830
:10455000BFF34F8FBFF36F8F00BF0546D4F838A06D
:10456000BAF1000F22D094F944B049462046FFF733
:104570009EFDAAF10100A0630BF1010070B9206952
:1045800008B9012000E0002068B904F1100001F032
:104590005BF840B13FB10120386004E00BF101004D
:1045A00040B284F844004FF0010801E04FF00008E9
:1045B00000BF85F3118800BF4046BDE8F09F2DE99C
:1045C000F0470646884634463CB940F2FC52AFF20A
:1045D0004461AFF22C6002F011FAB8F1000F01D182
:1045E000206C08B9012000E0002038B940F2FD52EB
:1045F000AFF26861AFF2506002F000FA206C08B1CF
:10460000012000E0002038B940F2FE52AFF2846190
:10461000AFF26C6002F0F2F902F034F900BF502101
:10462000EFF3118081F31188BFF34F8FBFF36F8FCA
:1046300000BF0546A06B48B1D4F80C904146204617
:10464000FFF735FDC4F80C90012700E0002700BFFC
:1046500085F3118800BF3846BDE8F08770B5044681
:104660003CB940F22F62AFF2DC61AFF2C46002F0FD
:10467000C5F902F0B4F8A56B02F0D4F8284670BD75
:1046800070B5044625463DB940F24162AFF204716F
:10469000AFF2EC6002F0B2F902F0A1F8D5E90E1029
:1046A000461A02F0BFF8304670BD70B504463CB9FA
:1046B00040F25162AFF22C71AFF2147002F09EF929
:1046C000A56B284670BD014600200EE0714A02EB42
:1046D000C00252688A4207D100226E4B43F8302054
:1046E00003EBC0035A6002E0401C0A28EED300BF6F
:1046F000704770B5044625463DB940F25D62AFF2A1
:104700007471AFF25C7002F079F92846FFF7DBFFB5
:10471000284601F06DFF70BD70B505463DB940F209
:104720009372AFF29871AFF2807002F067F9A86BE4
:1047300008B9012400E00024204670BD70B504468D
:104740003CB940F2BA72AFF2BC71AFF2A47002F0A1
:1047500055F9A06BE16B884201D1012500E00025ED
:10476000284670BD024600200BE04A4B53F830301B
:1047700033B9484B43F8301003EBC0035A6002E0F2
:10478000401C0A28F1D300BF7047024600200021D8
:104790000AE0404B03EBC1035B68934203D13D4BFE
:1047A00053F8310002E0491C0A29F2D300BF7047D8
:1047B0002DE9F04105460E4617462C4602F00FF84B
:1047C00094F94400401C10B9002084F8440094F986
:1047D0004500401C10B9002084F8450002F022F882
:1047E000A06B28B93A46314604F1240000F011FFCD
:1047F0002046FFF7CFFABDE8F08170B504460022ED
:1048000004212046FFF723FA0546284670BD70B5FF
:1048100004460E4601F0E3FFA06C08B1002505E058
:10482000A06B08B1002501E0A664012501F0FAFFA4
:10483000284670BD2DE9F04105460F462E46B06C66
:10484000B84201D000240AE0B06B08B1002406E0B1
:1048500001F0C5FF0020B06401F0E4FF0124204610
:10486000BDE8F08138B505460C46002000900023D5
:10487000224669462846FFF72FFC009838BD38B518
:10488000044600200090002269462046FFF738FECB
:10489000009838BD3C01002010B5002407E004EB6F
:1048A0008401F74A02EB8100FFF72EF9641C202CEB
:1048B000F5D3F448FFF728F9F348FFF725F9F34853
:1048C000FFF722F9F248FFF71FF9F248FFF71CF94A
:1048D000EC48F1490860EC48F049086010BD10B59B
:1048E000044601F07CFFEE480068401CEC4908607B
:1048F000EC48006840B9EB480460084600680128AD
:104900000DD1FFF7C9FF0AE0E748006838B9E5486C
:104910000068C06AE16A884201D8E2480460E3485E
:104920000068401CE149086094F82C100120884080
:10493000DF4909680843DE490860E16A01EB81014B
:10494000CF4A02EB8100211DFFF7EEF801F06AFF6C
:10495000D548006868B1D3480068C06AE16A8842F7
:1049600007D24FF08050D3490860BFF34F8FBFF399
:104970006F8F10BD2DE9FF5F81460F469246DDE93E
:104980000E6B109CAAF10100216B01EB800828F04E
:10499000070808F0070008B9012000E0002028B946
:1049A00040F22B32C4A1CBA002F028F8002507E08A
:1049B000795D04F134004155785D00B902E06D1C69
:1049C000102DF5D300BF002143200155202E00D328
:1049D0001F26E66266640020A064201DFFF7A1F890
:1049E00004F11800FFF79DF82461C6F12000A061D2
:1049F00064620020E06484F8500049464046039A0F
:104A000001F07AFE2060BBF1000F01D0CBF800402E
:104A1000BDE8FF9F2DE9FF4F85B0804689461746C8
:104A2000DDE912ABB80001F060FD064656B1542036
:104A300001F05BFD04460CB1266304E0304601F052
:104A4000D7FD00E000247CB10020CDE900ABCDE92A
:104A500002403A4649464046089BFFF78BFF2046F6
:104A6000FFF73DFF012501E04FF0FF35284609B073
:104A7000BDE8F08F88490968096809B9012100E09B
:104A8000002121B14FF0FF31964A116006E08249C2
:104A90000968C968C868934A41681160704710B5D1
:104AA0000446206B01F0A4FD204601F0A1FD10BDDD
:104AB00070B5054601F093FE15B97A48006800E02C
:104AC00028460446201DFFF755F878B9E06A00EB48
:104AD00080006B4951F8200040B994F82C10012057
:104AE000884073490968814371480160A06A18B120
:104AF00004F11800FFF73EF86C480068401C6B4951
:104B0000086068480068844209D1211D6048FFF7A9
:104B10000BF875480068401C7349086009E060485C
:104B20000068401E5E4908602046FFF7B8FFFFF7A7
:104B3000A1FF01F077FE5C480068C0B159480068E9
:104B4000844214D16948006808B9012000E00020BF
:104B500028B940F2654258A15EA001F04FFF4FF026
:104B6000805054490860BFF34F8FBFF36F8F70BD03
:104B70002DE9F0414FF000085C480068002872D130
:104B80005B480068451C5A480560EDB9424800681A
:104B9000006808B9012000E0002028B940F6D912C9
:104BA00045A14CA001F02AFF3B4807683B4800683C
:104BB00039490860394807604E480068401C4D4933
:104BC0000860FFF757FF00BF4648006885423CD3A6
:104BD00000BF31480068006808B9012000E00020EB
:104BE00020B14FF0FF303F4908602DE02A480068AF
:104BF000C068C4686668B54202D23A48066023E0DD
:104C0000201DFEF7B7FFA06A18B104F11800FEF7E7
:104C1000B1FF94F82C100120884025490968084309
:104C200023490860E16A01EB8101154A02EB81002A
:104C3000211DFEF779FF1B49E06A0968C96A8842AD
:104C4000C7D34FF00108C4E700BF16480068C06A28
:104C500000EB80000A4951F82000012801D94FF0EB
:104C6000010805E0FFE724480068401C224908606D
:104C70002248006808B14FF001084046BDE8F081C5
:104C80008C0100200C0400202004002034040020AB
:104C9000480400205C040020C8000020CC00002054
:104CA000D4000020C4000020E0000020F00000201C
:104CB000DC00002004ED00E02E2E5C2E2E5C4672FF
:104CC000656552544F535C7372635C7461736B73AC
:104CD0002E6300004572726F723A25732C25640DA5
:104CE0000A000000F4000020D0000020FC0000209A
:104CF000D8000020EC000020E4000020E8000020A4
:104D000070B500240026FE48006838B94FF4FD62F3
:104D1000AFF25C01AFF2440001F070FE01F05FFD04
:104D2000F7480068401EF6490860084600680028F9
:104D30004FD1F448006800284BD024E0F248C06806
:104D4000C46804F11800FEF715FF201DFEF712FFDE
:104D500094F82C1001208840EC4909680843EB497D
:104D60000860E16A01EB8101E94A02EB8100211D43
:104D7000FEF7DAFEE749E06A0968C96A884202D3A9
:104D80000120E5490860E048006808B9012000E01A
:104D900000200028D2D00CB1FFF76CFEDF48056878
:104DA00065B100BFFFF7E4FE10B10120DA490860E9
:104DB0006D1E002DF6D10020D8490860D648006845
:104DC00038B101263007D6490860BFF34F8FBFF3D3
:104DD0006F8F01F027FD304670BD2DE9F04105468B
:104DE0000E46D0480768CB480068001DFEF7C2FE9B
:104DF00050B9C848006890F82C1001208840C34979
:104E000009688143C1480160681C38B936B1C1489E
:104E10000168091DC448FEF787FE1AE07C19BD48E9
:104E200000684460BC4207D2BA480168091DBF4807
:104E30000068FEF785FE0CE0B6480168091DBC4815
:104E40000068FEF77DFEBB480068844201D2B94885
:104E50000460BDE8F081AA480068401CA8490860C9
:104E600070472DE9F04704460F464FF000093CB962
:104E700040F27942AFF2C011AFF2A81001F0BEFDCE
:104E80000FB1012000E0002038B940F27A42AFF2C1
:104E9000D811AFF2C01001F0B1FD9948006808B90F
:104EA000012000E0002038B940F27B42AFF2F81157
:104EB000AFF2E01001F0A2FDFFF7CDFF99480668C0
:104EC0002068C5192068B04207D92068A8420BD9CC
:104ED000B54209D94FF0010906E02068A84201D87F
:104EE000B54201D94FF001092560B9F1000F03D097
:104EF000A81B0021FFF771FFFFF702FF8046B8F102
:104F0000000F07D14FF0805085490860BFF34F8FE5
:104F1000BFF36F8FBDE8F08770B504460025BCB1C4
:104F20007748006808B9012000E0002038B940F255
:104F3000CF42AFF27C21AFF2642001F05FFDFFF7BA
:104F40008AFF00212046FFF748FFFFF7D9FE0546FC
:104F50003DB94FF0805072490860BFF34F8FBFF3E7
:104F60006F8F70BD2DE9F04107463E463EB940F2D5
:104F7000FB42AFF2BC21AFF2A42001F03FFD654837
:104F80000068864201D100241EE001F028FC75690A
:104F900001F048FC66480068854203D06348006819
:104FA000854201D102240FE05F48854205D1B06AF5
:104FB00008B9032408E0022406E05F48854200D0D7
:104FC0000DB9042400E001242046BDE8F08170B54D
:104FD000044601F004FC14B94E48006800E0204685
:104FE0000646F56A01F01EFC284670BD2DE9F04129
:104FF000054601F047FC00BF5021EFF3118081F31B
:105000001188BFF34F8FBFF36F8F00BF044615B9F0
:105010004048006800E028460746FE6A00BF84F367
:10502000118800BF3046BDE8F0812DE9F047804689
:105030000D464FF00009202D01D2012000E0002094
:1050400038B94FF4B062AFF29031AFF2783001F07E
:10505000D5FC202D00D31F2501F0C1FBB8F1000FB6
:1050600002D12C48006800E040460446666CAE421F
:1050700077D0B5420BD92748006884420DD0254827
:105080000068C06AA84208D84FF0010905E021482D
:105090000068844201D14FF00109E76AE16A606C5F
:1050A000884200D1E5626564A06900F0004010B953
:1050B000C5F12000A06107EB8701154A02EB8101D1
:1050C0006069884201D1012000E00020B0B3201DBA
:1050D000FEF750FD30B90120B8400C490968814302
:1050E0000A48016094F82C1001208840074909689B
:1050F000084306490860E16A01EB8101044A1FE0A8
:10510000FC000020D400002034040020DC0000203B
:105110008C010020C4000020E8000020E4000020F2
:1051200004ED00E0D80000205C040020CC0000204A
:10513000C8000020F40000204804002005E010E032
:1051400002EB8100211DFEF7EFFCB9F1000F07D043
:105150004FF08050FB490860BFF34F8FBFF36F8F54
:1051600000BF01F05FFBBDE8F08710B5F6480068AE
:1051700018B10120F54908602FE00020F3490860CC
:10518000F3480068B0FA80F0C0F11F0404EB84001B
:10519000F04951F8200008B1012000E0002038B9A2
:1051A00040F6F622AFF2F041AFF2D84001F026FC13
:1051B00004EB8401E74A02EB8100416849684160E1
:1051C00000F1080142688A4202D1416849684160A1
:1051D0004168C968E04A116000BF10BD70B505465E
:1051E00001F0FDFA15B9DC48006800E028460446E5
:1051F000201DFEF7BFFC78B9E06A00EB8000D549BE
:1052000051F8200040B994F82C1001208840D04972
:1052100009688143CE480160A06A18B104F1180002
:10522000FEF7A8FC211DCD48FEF77EFC01F0FAFA3E
:10523000CB48006828B101F0D2FAFFF71BFC01F05F
:10524000F1FAC5480068844226D1C5480068B8B163
:10525000BD48006808B9012000E0002038B940F2DC
:105260005762AFF2AC51AFF2945001F0C7FB4FF070
:105270008050B4490860BFF34F8FBFF36F8F0BE0CE
:10528000B6480068B7490968884203D10020B2498E
:10529000086001E0FFF769FF70BD70B505460026A4
:1052A0002C463DB940F28162AFF2F451AFF2DC50CE
:1052B00001F0A4FBA9496069884201D1012000E006
:1052C000002070B1A849A06A884201D1012000E005
:1052D000002030B9A06A08B9012000E0002000B128
:1052E0000126304670BD70B505462C463DB940F2EA
:1052F000AB62AFF23C61AFF2246001F07FFB74B3AC
:105300009548006884422AD001F069FA2046FFF7E8
:10531000C4FF10B3201DFEF72DFC94F82C100120C3
:1053200088408B490968084389490860E16A01EBB4
:105330008101884A02EB8100211DFEF7F5FB8649B9
:10534000E06A0968C96A884207D34FF080507D49F6
:105350000860BFF34F8FBFF36F8F01F063FA70BD2A
:105360002DE9F0410646002734463EB940F2E2629C
:10537000AFF2BC61AFF2A46001F040FB01F082FA31
:1053800000BF5021EFF3118081F31188BFF34F8FDD
:10539000BFF36F8F00BF05462046FFF77EFF20B3A7
:1053A00069480068E0B96C49E06A0968C96A8842DE
:1053B00000D30127201DFEF7DDFB94F82C100120FF
:1053C000884063490968084361490860E16A01EB64
:1053D0008101604A02EB8100211DFEF7A5FB04E07C
:1053E00004F118016048FEF79FFB00BF85F31188A8
:1053F00000BF3846BDE8F08170B523E0FFF72BFD14
:105400005A48006808B9012000E000200546FFF76F
:1054100077FCBDB901F0E3F95448C068C468201DA9
:10542000FEF7A8FB4F480068401E4E4908605048F0
:105430000068401E4E49086001F0F4F92046FFF76D
:105440002EFB00BF4A4800680028D7D170BD00BFBE
:10545000FFF7D2FF3F4800680128F9D94FF080508C
:1054600038490860BFF34F8FBFF36F8FF0E71CB56B
:10547000404800210B468022CDE900103EA1404863
:10548000FFF7C8FA0446012C02D100F087FE04465B
:10549000012C15D100BF502080F31188BFF34F8F2E
:1054A000BFF36F8F00BF4FF0FF3036490860012017
:1054B0002B49086000203449086001F039F90DE0FB
:1054C000601C08B1012000E0002038B940F284726D
:1054D000AFF61C01AFF6040001F090FA1CBD10B548
:1054E00000BF502080F31188BFF34F8FBFF36F8F41
:1054F00000BF00201A49086001F060F910BD224980
:105500000868704770B501F0BDF900251E480468B1
:10551000204670BD13480068704770B5044614B942
:105520000D48006800E0204605463DB940F68C0273
:10553000AFF67C01AFF6640001F060FA05F13400CB
:1055400070BD000004ED00E0FC000020E800002039
:10555000DC0000208C010020C40000205C0400203E
:10556000E0000020D4000020340400204804002083
:10557000D0000020F800002049444C450000000005
:105580004F540008F4000020D800002070B50446F5
:105590000D463CB940F60632AFF6E401AFF6CC005A
:1055A00001F02CFAF748016818312046FEF7C8FAD6
:1055B00001212846FFF711FC70BD70B504460D4669
:1055C00016463CB940F61732AFF61411AFF6FC00A0
:1055D00001F014FAEC48006808B1012000E0002056
:1055E00038B940F61B32AFF63011AFF6181001F0A3
:1055F00005FA45F00040E34909688861E14801681F
:1056000018312046FEF790FA01213046FFF7E5FBFE
:1056100070BD70B505460E4614463DB940F63132B0
:10562000AFF66C11AFF6541001F0E8F9D5480168F7
:1056300018312846FEF778FA0CB14FF0FF362146B4
:105640003046FFF7CAFB70BD70B50646F068C46807
:105650003CB940F66132AFF6A011AFF6881001F008
:10566000CDF904F11800FEF785FAC7480068A8B91B
:10567000201DFEF77FFA94F82C1001208840C349C2
:1056800009680843C1490860E16A01EB8101C04A29
:1056900002EB8100211DFEF747FA04E004F1180136
:1056A000BC48FEF741FAB749E06A0968C96A88420E
:1056B00004D901250120B849086000E000252846EA
:1056C00070BD2DE9F04105460F46AF48006808B1AE
:1056D000012000E0002038B940F69932AFF62821C9
:1056E000AFF6102001F08AF947F000402860EC681E
:1056F0003CB940F6A132AFF64021AFF6282001F0C8
:105700007DF92846FEF736FA201DFEF733FA94F8A5
:105710002C10012088409D49096808439B49086076
:10572000E16A01EB81019A4A02EB8100211DFEF73B
:10573000FBF99449E06A0968C96A884204D90126DC
:1057400001209549086000E000263046BDE8F08160
:1057500010B504463CB940F6C132AFF6A421AFF60D
:105760008C2001F04BF98D48006820608C4800685F
:10577000606010BD2DE9F04104460D463CB940F68D
:10578000CB32AFF6CC21AFF6B42001F037F93DB9FA
:1057900040F6CC32AFF6E021AFF6C82001F02EF98A
:1057A00001F01DF87E4807682868401C08B90026EB
:1057B00019E07A4920680968884204D06068B842D4
:1057C00001D801260FE06068381A2968884209D29A
:1057D00028686168791A401A28602046FFF7B8FFE8
:1057E000002600E0012601F01DF83046BDE8F081FA
:1057F0000120694908607047624908687047694933
:10580000096809B9012005E05F49096809B9022062
:1058100000E00020704770B505462C46002D4BD0A7
:105820005849E06A0968C96A884245D2A06900F00F
:10583000004028B953480068C06AC0F12000A06148
:10584000E16A01EB8101524A02EB81016069884201
:1058500001D1012000E0002050B3201DFEF78AF99D
:1058600078B9E06A00EB8000494951F8200040B95E
:1058700094F82C100120884044490968814343482A
:10588000016040480068C06AE06294F82C10012072
:1058900088403E49096808433C490860E16A01EBD9
:1058A00081013B4A02EB8100211DFEF73DF903E037
:1058B00034480068C06AE06270BD70B505462C4689
:1058C0000026002D4FD02F480068844201D10120CE
:1058D00000E0002038B940F6C762AFF62441AFF6C9
:1058E0000C4001F08BF8A06C38B940F6C962AFF6F5
:1058F0003841AFF6204001F081F8A06C401EA06452
:10590000616CE06A88422ED0A06C60BB201DFEF75F
:1059100031F978B9E06A00EB80001D4951F82000A8
:1059200040B994F82C100120884018490968814337
:1059300016480160606CE062E06AC0F12000A0617E
:1059400094F82C10012088401049096808430F4939
:105950000860E16A01EB81010D4A02EB8100211D23
:10596000FEF7E2F80126304670BD064909688869ED
:1059700004490968C96AC1F12001024A12689161AB
:1059800070470000C4000020FC000020DC00002064
:105990008C01002034040020E8000020EC000020EE
:1059A000D8000020E0000020F948006830B1F84934
:1059B000096801F14800896C491C0160F4480068DD
:1059C000704770B506460D4600F009FFF0480068C4
:1059D000C06C88B90120EE49096881F850005DB1BA
:1059E00001212846FFF7F9F94FF08050E949086096
:1059F000BFF34F8FBFF36F8F00F014FF00F0EFFE87
:105A0000E3480068C46C4CB126B10020E049096845
:105A1000C86403E0601EDE490968C8640020DC49F0
:105A2000096881F8500000F0FDFE204670BD2DE9A8
:105A3000F0410746884614461D4600F0D0FED44883
:105A4000006890F85000022818D0D149096801F187
:105A50004C00C96CB94301600120CD49096881F847
:105A600050005DB101212846FFF7B7F94FF0805093
:105A7000C8490860BFF34F8FBFF36F8F00F0D2FEAD
:105A800000F0ADFE1CB1C2480068C06C2060C04888
:105A9000006890F85000012801D1002608E0BC49B8
:105AA000096801F14C00C96C21EA08010160012676
:105AB0000020B749096881F8500000F0B3FE304675
:105AC000BDE8F0812DE9F04706460D461746984699
:105AD0004FF0010A3EB941F2FD02AFF62461AFF684
