:020000040800F2
:10000000502800209D010008991000089B1000084E
:100010009F100008A3100008A710000800000000AF
:1000200000000000000000000000000005010008C2
:10003000AB1000080000000049010008AD100008E6
:10004000B7010008B7010008B7010008B7010008B0
:10005000B7010008B7010008B7010008B7010008A0
:10006000B7010008B7010008B7010008B701000890
:10007000B7010008B7010008B7010008B701000880
:10008000B7010008B7010008B7010008B701000870
:10009000B7010008B7010008B7010008B701000860
:1000A000B7010008B7010008B7010008B701000850
:1000B000B7010008B7010008B7010008B701000840
:1000C000B7010008B7010008B7010008B701000830
:1000D000B7010008B7010008B7010008B701000820
:1000E000990C0008B7010008B7010008DFF810D02C
:1000F00004F0C4FD004800479D0F0008AFF30080E6
:1001000050280020224B19680868B0E8F00F80F3EF
:100110000988BFF36F8F4FF0000080F311884EF015
:100120000D0E70470000000006480068006880F36C
:10013000088862B661B6BFF34F8FBFF36F8F00DFE1
:1001400000BF00BF08ED00E0EFF30980BFF36F8F41
:100150000F4B1A6820E9F00F106008B54FF05000FF
:1001600080F31188BFF34F8FBFF36F8F03F07BF9DC
:100170004FF0000080F31188BDE808401968086856
:10018000B0E8F00F80F30988BFF36F8F704700BFAE
:1001900078000020EFF30580704700000648804794
:1001A00006480047FEE7FEE7FEE7FEE7FEE7FEE75C
:1001B000FEE7FEE7FEE7FEE79F020008ED0000080D
:1001C0000CB50020019000906C48006840F480302D
:1001D0006A49086000BF6948006800F40030009078
:1001E0000198401C0190009818B90198B0F5A06FD3
:1001F000F1D16248006800F4003010B10120009095
:1002000001E0002000900098012843D15C4800687C
:1002100040F010005A4908600846006820F00300CA
:1002200008600846006840F00200086053484068D3
:10023000524948600846406848600846406840F4B3
:10024000806048600846406820F47C10486008469A
:10025000406840F4E81048600846006840F080704C
:10026000086000BF4548006800F000700028F9D021
:100270004248406820F00300404948600846406812
:1002800040F00200486000BF3C48406800F00C00AD
:100290000828F9D10CBD10B5FFF792FF10BD10B5BD
:1002A0003648006840F0010034490860084640685C
:1002B00034490840314948600846006832490840DE
:1002C0002E4908600846006820F48020086008462F
:1002D000406820F4FE0048604FF41F008860FFF77C
:1002E000DAFF4FF000602949086010BD10B5002109
:1002F00000200022214B5B6803F00C0121B104298E
:1003000006D0082928D107E0214B224C236027E0A2
:100310001F4B204C236023E0184B5B6803F47010E4
:10032000164B5B6803F48032022303EB904022B942
:10033000194B4343174C23600DE0104B5B6803F4EB
:10034000003323B1144B4343124C236003E0104BA2
:100350004343104C236003E00D4B0E4C236000BF61
:1003600000BF064B5B68C3F303130C4CE15C094B05
:100370001B68CB40074C236010BD000000100240FA
:10038000002002400000FFF8FFFFF6FE08ED00E04D
:1003900000127A000000002000093D000400002047
:1003A00031490143314A1160704770B50021002383
:1003B0000F22C47804B32D4C246804F4E064C4F51F
:1003C000E064210AC1F10403CA40447804FA03F14D
:1003D0008478144021430901254C0678A1550478FE
:1003E00004F01F050124AC4005786D11AD0005F146
:1003F000E025C5F8004109E0047804F01F05012458
:10040000AC401C4D0678761145F8264070BD1A4A5E
:100410000A400243154B1B1F1A60704739B1134A3B
:10042000121D12680243114B1B1D1A6006E00F4A91
:10043000121D126882430D4B1B1D1A607047042861
:1004400008D14FF0E021096941F004014FF0E022AA
:10045000116107E04FF0E021096921F004014FF03C
:10046000E0221161704700000000FA050CED00E089
:1004700000E400E080E100E080FFFF1F002044492D
:100480000860091D0860091D0860091D08604148D1
:100490003F4914310860704700213D498279002AA4
:1004A0003AD00A46126803689A430B461A600A1D3E
:1004B000126803689A430B1D1A60027911440A6896
:1004C00003681A430A60324A0832126803689A4382
:1004D0002F4B08331A601A1D126803689A432C4B7D
:1004E0000C331A604279102A0ED11A1F1268036861
:1004F0001A43274B08331A601A1D126803681A43FF
:10050000234B0C331A600DE02149427911440A68EB
:1005100003681A430A6005E0027911440A68036817
:100520009A430A6070470021016001710C214171FA
:100530000021817170471649103109680143144A3E
:1005400010321160704701460020114A14321268BF
:100550000A400AB1012000E0002070470C49143124
:1005600008607047014600200022094B1B6803EA1F
:100570000102074B14331B680B4013B10AB1012071
:1005800000E0002070470249143108607047000005
:1005900000040140FFFF0F0010B50446CC48844220
:1005A00008D10121042000F02DFB0021042000F0DF
:1005B00029FB46E0C748844208D10121082000F009
:1005C00021FB0021082000F01DFB3AE0C2488442D4
:1005D00008D10121102000F015FB0021102000F0AF
:1005E00011FB2EE0BD48844208D10121202000F0FB
:1005F00009FB0021202000F005FB22E0B8488442DE
:1006000008D10121402000F0FDFA0021402000F037
:10061000F9FA16E0B348844208D10121802000F0A5
:10062000F1FA0021802000F0EDFA0AE0AE488442A1
:1006300007D10121801500F0E5FA0021A01500F096
:10064000E1FA10BD10B50121084600F0DBFA0021E7
:10065000012000F0D7FA10BD2DE9F0410246002537
:100660000026002000230024002791F803C00CF08E
:100670000F0591F803C00CF0100CBCF1000F03D073
:1006800091F802C04CEA050591F800C0BCF1000FDA
:1006900031D0146800202BE04FF0010C0CFA00F36D
:1006A000B1F800C00CEA03069E4220D183004FF04F
:1006B0000F0C0CFA03F7BC4305FA03FC4CEA0404E4
:1006C00091F803C0BCF1280F06D14FF0010C0CFAD1
:1006D00000FCC2F814C00AE091F803C0BCF1480F56
:1006E00005D14FF0010C0CFA00FCC2F810C0401C00
:1006F0000828D1D31460B1F800C0BCF1FF0F34DD7D
:10070000546800202EE000F1080C4FF0010808FAB0
:100710000CF3B1F800C00CEA03069E4221D183001D
:100720004FF00F0C0CFA03F7BC4305FA03FC4CEA3C
:10073000040491F803C0BCF1280F05D100F1080CA6
:1007400008FA0CF8C2F8148091F803C0BCF1480F05
:1007500007D100F1080C4FF0010808FA0CF8C2F8B4
:100760001080401C0828CED35460BDE8F0814FF6BD
:10077000FF710180022181700421C170704702461F
:10078000002093680B400BB1012000E0002070476F
:100790000146886880B2704702460020D3680B404B
:1007A0000BB1012000E0002070470146C86880B20C
:1007B000704701617047416170470AB1016100E013
:1007C00041617047C16070474FF480320A438261D3
:1007D0008161826182698269704702460020434BD1
:1007E00018684FF68073184040EA021008433F4BE8
:1007F000186070473E49C8617047F0B50A4600234B
:1008000000240021002500F00046B6F1004F02D17F
:10081000364EF16901E0354E7168C0F3034583B28D
:1008200000F44016B6F5401F08D121F070612F4E3C
:10083000766826F070662D4F7E6012E000F4801618
:10084000B6F5801F06D1032606FA05F4A14341F050
:10085000706106E0460D360103FA06F6B14341F039
:10086000706122B1460D360103FA06F6314300F0FD
:100870000046B6F1004F02D11C4EF16101E01B4E63
:100880007160F0BD30B500228B071C0F0F2303FAF7
:1008900004F2164B08338C1053F824309343134C56
:1008A00008348D1044F8253023468C1053F824303A
:1008B0008C07240F00FA04F423430C4C08348D10E9
:1008C00044F8253030BD0A49DC310860704700002B
:1008D00000080140000C01400010014000140140DC
:1008E00000180140001C01400020014000000140B0
:1008F00000002042DF48006840F00100DD49086048
:1009000008464068DC490840DA4948600846006803
:10091000DA490840D74908600846006820F480207A
:1009200008600846406820F4FE0048604FF41F004D
:1009300088607047CF49096821F48031CD4A116041
:100940001146096821F480211160B0F5803F03D081
:10095000B0F5802F0ED106E0C649096841F4803118
:10096000C44A116007E0C349096841F4A021C14AA3
:10097000116000E000BF00BF704710B501460022C3
:10098000002300204A11012A02D1BA4C236806E054
:10099000022A02D1B74C236A01E0B64C636A01F027
:1009A0001F02012494401C400CB1012000E00020F3
:1009B00010BD38B5002000900024002500BF312074
:1009C000FFF7DBFF05460098401C00900098B0F54B
:1009D000A06F01D0002DF2D03120FFF7CEFF08B17B
:1009E000012400E00024204638BD01460020A14A31
:1009F000106820F0F80040EAC10010607047A0497C
:100A000008607047024600209A4B586820F47C101A
:100A100042EA01031843974B5860704798490866AB
:100A2000704701460020934A506820F003000843B5
:100A3000506070478F48406800F00C0070470146D6
:100A400000208C4A506820F0F00008435060704746
:100A500001460020874A506820F4E0600843506057
:100A6000704701460020834A506820F4605040EAF5
:100A7000C1005060704729B17E4A527A02437D4BD3
:100A80005A7204E07B4A527A82437A4B5A72704718
:100A90007B49D8310860704701460020754A50688C
:100AA00020F440400843506070470021714A2032D2
:100AB0001170704A82F82010012802D004280AD14F
:100AC00004E001216B4A2032117005E00521694ADA
:100AD0002032117000E000BF00BF70476949086014
:100AE00070476449096A0143624A11627047654967
:100AF00044390860704730B50021002200240023EB
:100B00005C4D6D6805F00C0121B1042905D0082960
:100B100023D105E05C4D056022E05B4D05601FE0E0
:100B2000544D6D6805F47012524D6D6805F48034B3
:100B3000022505EB92421CB9544D554305600BE06C
:100B40004C4D6D6805F400351DB1504D55430560A1
:100B500002E04D4D5543056002E04B4D056000BF7E
:100B600000BF444D6D6805F0F0010909484D6B5C0C
:100B70000568DD4045603F4D6D6805F4E061090A98
:100B8000434D6B5C4568DD4085603A4D6D6805F40A
:100B90006051C90A3E4D6B5C4568DD40C560354D0E
:100BA0006D6805F44041890B3A4D6B5CC568B5FB37
:100BB000F3F5056130BD29B12E4A526902432D4B30
:100BC0005A6104E02B4A526982432A4B5A617047AA
:100BD00029B1284A92690243264B9A6104E0254ACA
:100BE00092698243234B9A61704729B1214AD269A5
:100BF0000243204BDA6104E01E4AD26982431D4B56
:100C0000DA61704729B11B4AD2680243194BDA6096
:100C100004E0184AD2688243164BDA60704729B163
:100C2000144A12690243134B1A6104E0114A126913
:100C30008243104B1A61704712494039086070476F
:100C40000F49C86470470B49C87170470948406A2A
:100C500040F0807007494862704701460020054A0D
:100C600092680A400AB1012000E000207047014963
:100C700088727047001002400000FFF8FFFFF6FE88
:100C8000000042428004424200127A0000093D0006
:100C9000140000202400002008B5002000904FF42C
:100CA0008040FFF75FFCE8B14FF48041D548FFF783
:100CB00066FD40B9012000900023D34A6946D3481D
:100CC000006801F0ABFC4FF48040FFF75CFCCE48BD
:100CD000006838B14FF08050CD490860BFF34F8FA6
:100CE000BFF36F8F4FF40040FFF73CFCE8B14FF4C7
:100CF0000041C448FFF743FD40B9022000900023A3
:100D0000C14A6946C148006801F088FC4FF40040C0
:100D1000FFF739FCBC48006838B14FF08050BC493F
:100D20000860BFF34F8FBFF36F8F08BD0EB54FF054
:100D3000000800BF02F061FD0290102485E003F07E
:100D4000CCFE00F049FF03F0EBFEB24890F9010041
:100D50000A2190FBF1F201FB1205AE4890F9010067
:100D600090FBF1F6AB4890F9020090FBF1F201FB29
:100D70001207A84890F9020090FBF1F800F03AFA47
:100D8000012010212023A44ACDE900106821192058
:100D900000F039FC022010212023A04ACDE90010E8
:100DA0006821552000F02FFC01204021CDE90010E2
:100DB0009B4951F82820C4F14B002123202100F049
:100DC00022FC01204021CDE90010954951F827204F
:100DD000C4F178002123202100F015FC0120082116
:100DE000CDE90010C4F1A0000B468E4A372100F077
:100DF0000AFC01200821CDE90010C4F1A0000B4637
:100E0000884A4D2100F0FFFB01204021CDE9001070
:100E1000834951F82620C4F1AF002123202100F09E
:100E2000F2FB01204021CDE900107D4951F8252039
:100E3000C4F1DD002123202100F0E5FB00F0ACFB34
:100E40004EF6602102A802F08AF978E709E07648B8
:100E5000006880F002007449086040F2DC5002F043
:100E6000D9F9F4E70EB55DE000235A1E02A96748E0
:100E7000006801F0AFFA012854D1142002F0CAF939
:100E80009DF80800012802D0022849D11EE04FF445
:100E900080415C48FFF773FCB8B900F0ABF9012062
:100EA000102120235C4ACDE900106821192000F0B0
:100EB000AAFB022010212023584ACDE90010682106
:100EC000552000F0A0FB00F067FB2AE04FF4004142
:100ED0004C48FFF754FC10BB00F08CF902201021A5
:100EE00020234D4ACDE900106821192000F08BFB2A
:100EF000012010212023494ACDE900106821552006
:100F000000F081FB00F048FB4FF47A7002F082F9A8
:100F100000F070F900F07EF9444800F07FFA00E03C
:100F200000BF00BFA0E700BFFEE77CB50546012477
:100F300003F0D3FD3E48032100232202CDE9001037
:100F40003CA13F4801F0E4FE04463E480321002353
:100F50008022CDE900103CA13E4801F0D9FE0446B4
:100F60003D48042100238022CDE900103BA1AFF2CF
:100F70000B1001F0CDFE04463B48032100238022E4
:100F8000CDE9001039A13C4801F0C2FE044603F04F
:100F9000C7FD3A48006801F009FF7CBD1CB500F0B0
:100FA0008DF800F0E6FE00F0DBFB00F068FC00F0DE
:100FB00060FA334800F006FB4FF4FA7000F0A2F834
:100FC00000220121032000F0C0FF10490860002129
:100FD0000E48006800F060FF01242848012100232A
:100FE0008022CDE9001027A12A4801F091FE044695
:100FF000012C01D102F0B9FB03E002200A490831BB
:101000000860FAE7000C0140440000204000002086
:1010100004ED00E070000020025900084259000869
:1010200048000020FA5800080C0801402EB60008BD
:1010300030000020436C6F636B5F5461736B000082
:101040002D0D0008340000204C65645F5461736B03
:10105000000000004D0E0008380000204B65795F4D
:101060005461736B000000003C0000204D656E75FC
:101070005F5461736B000000270F00082C000020F4
:10108000026C00084170704372656174655F546161
:10109000736B00002B0F0008704700BFFEE700BF16
:1010A000FEE700BFFEE700BFFEE7704710B502F0A5
:1010B00024FD012801D003F04BFD10BD08B501212E
:1010C0000420FFF785FD0220ADF8000010208DF808
:1010D000030003208DF8020069460948FFF7BCFAB7
:1010E0000220ADF8000069460548FFF7B5FA022175
:1010F0000348FFF760FB02210148FFF75CFB08BDD6
:10110000000801400022002100BF06E0002200E0AC
:10111000521CB2F5205FFBD3491C8142F6D37047C5
:1011200070B5044625462021FE48FFF744FB002603
:1011300017E005F0800020B11021FA48FFF739FBD5
:1011400003E01021F748FFF736FB2021F548FFF7B1
:1011500030FB2021F348FFF72EFB6806050E701CBC
:10116000C6B2082EE5DB70BD10B505E00221EE48E1
:10117000FFF705FB00B900E0F8E700BF10BD10B5B0
:1011800004464021E748FFF714FB4021E548FFF7FC
:1011900012FB8021E348FFF70EFB2046FFF7C0FF5C
:1011A0004021E048FFF705FB10BD10B50446402183
:1011B000DC48FFF7FEFA4021DA48FFF7FCFA80210D
:1011C000D848FFF7F6FA2046FFF7AAFF4021D54896
:1011D000FFF7EFFA10BD70B505463220FFF7CFFFDD
:1011E000002404E0285DFFF7E0FF601CC4B2E32C9C
:1011F000F8DB70BD10B50121CB48FFF7DCFA6420A5
:10120000FFF780FF0121C848FFF7D3FA6420FFF7FA
:1012100079FF10BD2DE9F04700240F270025002697
:101220004FF027084FF00109FFF7E4FFFFF79CFF9D
:101230001220FFF7A4FFFFF797FF0120FFF79FFFA2
:101240002720FFF7B2FF0120FFF7AFFF0020FFF7D5
:10125000ACFF1120FFF793FF0320FFF7A6FF3C2010
:10126000FFF78DFF0020FFF7A0FF2120FFF787FF8A
:101270000020FFF79AFF8020FFF797FF2C20FFF751
:101280007EFFAA4991F89E00FFF78FFF3F20FFF7EE
:1012900076FFA64991F89900FFF787FF0320FFF733
:1012A0006EFFA24991F89A00FFF77FFF0420FFF735
:1012B00066FF9E4991F89B00FFF777FF9B4991F8E5
:1012C0009C00FFF772FF994991F89D00FFF76DFFB1
:1012D0009648FFF780FF4420FFF751FF2046FFF7B5
:1012E00064FF3846FFF761FF4520FFF748FF2846B7
:1012F000FFF75BFF3046FFF758FF4046FFF755FF0B
:101300004846FFF752FF4E20FFF739FF2046FFF710
:101310004CFF4F20FFF733FF2846FFF746FF3046CC
:10132000FFF743FFFFF720FFBDE8F08770B50446E5
:101330000D46002022462B46002110E04606300EC6
:1013400002F0C006C02E03D002F0C006402E02D12B
:1013500040F0010000E000BF9606320E491C04294F
:10136000ECD3002110E04606300E03F0C006C02E7C
:1013700003D003F0C006402E02D140F0010000E08F
:1013800000BF9E06330E491C0429ECD370BD70B516
:1013900004460D46002022462B46002110E046065A
:1013A000300E02F0C006C02E03D002F0C006802E20
:1013B00002D140F0010000E000BF9606320E491C49
:1013C0000429ECD3002110E04606300E03F0C006DD
:1013D000C02E03D003F0C006802E02D140F00100E1
:1013E00000E000BF9E06330E491C0429ECD370BDFB
:1013F00010B52220FFF7C3FEC720FFF7D6FE20203E
:10140000FFF7BDFEFFF7B0FE1020FFF7B8FE01208A
:10141000FFF7CBFE6420FFF775FE10BD70B50546E3
:101420002420FFF7ACFE00240AE02A195178285D39
:10143000FFF77CFF0646F143C8B2FFF7B6FEA41CD7
:10144000B4F5145FF1D32620FFF799FE00240AE0DB
:101450002A195178285DFFF79AFF0646F143C8B272
:10146000FFF7A3FEA41CB4F5145FF1D3FFF7C0FF90
:1014700070BD2DE9F04700240F2727250126A0463F
:10148000A146FFF7B7FEFFF76FFE1220FFF777FECA
:10149000FFF76AFE0120FFF772FE2720FFF785FEA7
:1014A0000120FFF782FE0020FFF77FFE1120FFF7EB
:1014B00066FE0120FFF779FE3C20FFF760FE012069
:1014C000FFF773FE2120FFF75AFE0020FFF76DFEA5
:1014D0008020FFF76AFE1820FFF751FE8020FFF7FB
:1014E00064FE4420FFF74BFE2046FFF75EFE3846C1
:1014F000FFF75BFE4520FFF742FE2846FFF755FE4B
:101500003046FFF752FE4046FFF74FFE4846FFF7D2
:101510004CFE4E20FFF733FE2046FFF746FE4F20DD
:1015200006E0000000080140000C01402EDB00082E
:10153000FFF725FE2846FFF738FE3046FFF735FE59
:10154000FFF712FEBDE8F08710B52220FFF717FE67
:10155000F720FFF72AFE2020FFF711FEFFF704FE19
:101560001020FFF70CFE0120FFF71FFE6420FFF79D
:10157000C9FD10BD70B504462420FFF700FE00250C
:1015800004E02078FFF711FE641C6D1CB5F5945F34
:10159000F7D3FFF7D9FF70BD10B52220FFF7EFFD9D
:1015A000FF20FFF702FE2020FFF7E9FDFFF7DCFD3B
:1015B0001020FFF7E4FD0120FFF7F7FD6420FFF79F
:1015C000A1FD10BD70B5044626462420FFF7D7FDC7
:1015D000002504E02078FFF7E8FD641C6D1CB5F5DC
:1015E000945FF7D334462620FFF7C9FD002504E0B9
:1015F0002078FFF7DAFD641C6D1CB5F5945FF7D316
:10160000FFF7A2FF70BD2DE9F04F85B004460D46EF
:1016100017469946DDE90E8A2846E91705EB517110
:10162000CD1040464FEAE87108EB517105EBE1013E
:10163000491E049140F22710041B2046E11704EBD9
:10164000116109120391E11704EB11610912A4EB76
:1016500001210291A4EB0900461C3046F11706EB6C
:10166000116109120191F11706EB11610912A6EB44
:10167000012100914420FFF782FDE8B2FFF795FDBC
:101680000499C8B2FFF791FD4520FFF778FD029954
:10169000C8B2FFF78AFD0399C8B2FFF786FD00992B
:1016A000C8B2FFF782FD0199C8B2FFF77EFD4E2058
:1016B000FFF765FDE8B2FFF778FD4F20FFF75FFD0C
:1016C0000299C8B2FFF771FD0399C8B2FFF76DFD2B
:1016D000FFF74AFD2420FFF752FD4FF0000B17E003
:1016E000BAF1010F03D13878FFF75FFD7F1CBAF123
:1016F000020F05D13978C943C8B2FFF756FD7F1CE8
:10170000BAF1030F02D1FF20FFF74FFD0BF1010BE0
:1017100009FB08F0C11700EB5171BBEBE10FDFDBF8
:1017200005B0BDE8F08F10B52420FFF728FD002498
:1017300003E0FF20FFF739FD641CB4F5945FF8D394
:101740002620FFF71CFD002403E0FF20FFF72DFDFE
:10175000641CB4F5945FF8D3FFF7F6FE10BD0000EB
:1017600008B501210820FFF733FA01210820FFF70F
:101770002FFA01210420FFF72BFA01210420FFF7A3
:1017800027FA01210420FFF723FA01210420FFF7A3
:101790001FFA4020ADF8000010208DF80300022051
:1017A0008DF8020069462248FEF756FF2020ADF86A
:1017B000000010208DF8030002208DF80200694619
:1017C0001B48FEF749FF1020ADF800008DF803001C
:1017D00002208DF8020069461548FEF73DFF802083
:1017E000ADF8000010208DF8030002208DF80200F3
:1017F00069460F48FEF730FF0120ADF800001020C9
:101800008DF8030002208DF8020069460948FEF7B2
:1018100023FF0220ADF8000004208DF80300022011
:101820008DF8020069460348FEF716FF08BD000068
:1018300000080140000C014010B500214FF0E023EA
:101840005A69FE4B1B68FE4CB3FBF4F303FB00F13B
:101850004FF0E0231B6923F001034FF0E0242361E4
:1018600000E000BF0B1EA1F10101FAD14FF0E0230F
:101870001B6943F001034FF0E024236110BD08B55C
:1018800001211820FFF7A4F910208DF80300032090
:101890008DF802004FF40050ADF800006946E948A9
:1018A000FEF7DAFE4FF48070ADF800006946E648B6
:1018B000FEF7D2FE4FF40070ADF800006946E24832
:1018C000FEF7CAFE4FF40051DE48FEF774FF4FF4F6
:1018D0008071DD48FEF76FFF08BD38B504464FF450
:1018E0000070ADF8000003208DF8020014B1012C47
:1018F00010D107E010208DF803006946D248FEF7AA
:10190000ABFE08E048208DF803006946CE48FEF79C
:10191000A3FE00E000BF00BF38BD70B504460D4611
:101920000020FFF7DAFF4FF40051C648FEF741FFF1
:101930000320FFF781FF002623E004F0010028B117
:101940004FF40071C048FEF734FF04E04FF400711B
:10195000BD48FEF730FF64100120FFF76DFF4FF424
:101960008071B948FEF725FF0120FFF765FF4FF4AE
:101970008071B548FEF71FFF0120FFF75DFF701C67
:10198000C6B2082ED9DB002623E005F0010028B1FD
:101990004FF40071AC48FEF70CFF04E04FF4007107
:1019A000A948FEF708FF6D100120FFF745FF4FF42F
:1019B0008071A548FEF7FDFE0120FFF73DFF4FF4C3
:1019C0008071A148FEF7F7FE0120FFF735FF701C7C
:1019D000C6B2082ED9DB4FF400519A48FEF7EBFE51
:1019E00070BD70B50446002644F001044FF4005168
:1019F0009448FEF7DEFE0320FFF71EFF002523E0DC
:101A000004F0010028B14FF400718F48FEF7D1FEB9
:101A100004E04FF400718C48FEF7CDFE6410012005
:101A2000FFF70AFF4FF480718748FEF7C2FE0120DE
:101A3000FFF702FF4FF480718348FEF7BCFE0120E0
:101A4000FFF7FAFE681CC5B2082DD9DB0120FFF7AD
:101A500044FF0520FFF7F0FE00251FE04FF4007162
:101A60007948FEF78CFE20B10120A8403043C6B271
:101A700002E00120A84086434FF480717248FEF7CF
:101A800098FE0120FFF7D8FE4FF480716E48FEF7F4
:101A900092FE0120FFF7D0FE681CC5B2082DDDDBE9
:101AA0004FF400516748FEF786FE0020FFF715FF50
:101AB0004FF400716448FEF77EFE304670BD10B5ED
:101AC00000218E20FFF729FF604890F900000A21CD
:101AD00090FBF1F201FB12015C4890F900000A2230
:101AE00090FBF2F001EB0010C4B221468020FFF71A
:101AF00014FF564890F901000A2190FBF1F201FB16
:101B00001201524890F901000A2290FBF2F001EB19
:101B10000010C4B221468220FFF7FFFE4B4890F927
:101B200002000A2190FBF1F201FB1201474890F9F3
:101B300002000A2290FBF2F001EB0010C4B2214631
:101B40008420FFF7EAFE414890F903000A2190FB48
:101B5000F1F201FB12013D4890F903000A2290FBCB
:101B6000F2F001EB0010C4B221468620FFF7D5FE4B
:101B7000364890F904000A2190FBF1F201FB1201B2
:101B8000324890F904000A2290FBF2F001EB0010B9
:101B9000C4B221468820FFF7C0FE2C4841798A2034
:101BA000FFF7BBFE294890F906000A2190FBF1F2ED
:101BB00001FB1201254890F906000A2290FBF2F081
:101BC00001EB0010C4B221468C20FFF7A6FE802155
:101BD0008E20FFF7A2FE10BD10B500248020FFF775
:101BE00000FF04462046E21704EB12721211A4EB28
:101BF00002122146E31704EB13731B1103EB83035B
:101C000002EB430252B2114B1A708220FFF7E9FE39
:101C100004462046E21704EB12721211A4EB0212E2
:101C20002146E31704EB13731B1103EB830302EB51
:101C3000430252B2054B5A70842009E00000002094
:101C400040420F0000100140000C014070000020D5
:101C5000FFF7C7FE04462046E21704EB127212118A
:101C6000A4EB02122146E31704EB13731B1103EBE1
:101C7000830302EB430252B22F4B9A708620FFF788
:101C8000B0FE04462046E21704EB12721211A4EBD8
:101C900002122146E31704EB13731B1103EB8303BA
:101CA00002EB430252B2244BDA708820FFF799FE10
:101CB00004462046E21704EB12721211A4EB021242
:101CC0002146E31704EB13731B1103EB830302EBB1
:101CD000430252B2184B1A718A20FFF782FE044663
:101CE0002046E21704EB12721211A4EB02122146F5
:101CF000E31704EB13731B1103EB830302EB4302A3
:101D000052B20D4B5A718C20FFF76BFE04462046F1
:101D1000E21704EB12721211A4EB02122146E31730
:101D200004EB13731B1103EB830302EB430252B268
:101D3000014B9A7110BD00007000002008B54FF4EF
:101D40004070FEF72DFB28208DF8000005208DF84F
:101D5000010000208DF8020001208DF80300684684
:101D6000FEF723FB28208DF800006846FEF71DFBD8
:101D700008BD0EB501210920FEF72AFFFFF7DEFF9F
:101D80004FF48040ADF8080048208DF80B00032088
:101D90008DF80A0002A91A48FEF75EFC0E21012008
:101DA000FEF770FD4FF48040009000208DF8040095
:101DB0000C208DF8050001208DF806006846FEF71E
:101DC0006BFB4FF40040ADF8080048208DF80B0085
:101DD00002A90B48FEF740FC0F210120FEF752FD3F
:101DE0004FF40040009000208DF804000C208DF886
:101DF000050001208DF806006846FEF74DFB0EBD7C
:101E0000000C014000F1080141604FF0FF3181609A
:101E100000F10801C16001610021016070470021EB
:101E20000161704742684A6093688B6093685960AB
:101E30009160086103685B1C0360704710B502463F
:101E40000B685C1C0CB9106907E002F1080000E0A7
:101E50004068446824689C42FAD944684C604C68E5
:101E6000A160886041600A611468641C146010BD40
:101E700001460A69D1E901309860D1E9010358604F
:101E80005068884201D1886850600020086110685D
:101E9000401E10601068704770B505460E462C460F
:101EA0002CB940F21B12F8A1FEA002F0F9FE02F0DC
:101EB00014FED4E90F12206801FB020060600020CC
:101EC000A0632068A060E06B401E226C216800FBCC
:101ED0000210E060FF2084F8440084F845009EB9B9
:101EE000206908B9012000E00020A8B904F1100021
:101EF00001F028FD80B14FF08050EE490860BFF33B
:101F00004F8FBFF36F8F07E004F11000FFF77AFFE8
:101F100004F12400FFF776FF02F002FE012070BDFD
:101F20002DE9F04106460D4617469846069C0DB928
:101F3000246000E02760E663256401212046FFF766
:101F4000ABFF0020A064BDE8F0812DE9F843054611
:101F50000E4690460DB1012000E0002028B94FF454
:101F6000C472C9A1CFA002F09BFE0EB9002701E008
:101F700005FB06F707F14C0002F035FC044644B1BE
:101F800004F14C0943464A46314628460094FFF77F
:101F9000C7FF2046BDE8F8832DE9F04104460F460F
:101FA00015464FF00008A66B206C40B9206860BB56
:101FB000606801F000FE80460020606025E07DB989
:101FC0003946226CA06802F031FE216CA0680844FA
:101FD000A060D4E90110884217D32068A06014E003
:101FE0003946226CE06802F021FE216CE068401A5C
:101FF000E0602168E068884203D2216C6068401A82
:10200000E060022D01D106B1761E701CA06340462F
:10201000BDE8F0812DE9F3410D460098846C00275E
:102020002CB940F6CE1298A19EA002F039FEA06B0A
:10203000E16B884201D2012000E0002028B940F67F
:10204000CF1291A197A002F02BFEA06BE16B88420A
:102050001BD294F945602A4669462046FFF79CFF4B
:102060000746701C60B9606A08B9012000E00020D2
:1020700050B904F1240001F065FC28B1012703E008
:10208000701C40B284F8450000BF3846BDE8FC81B2
:1020900070B5044602F021FD94F945501AE0A06C99
:1020A00038B100212046FFF7B5FF88B101F01EFDD1
:1020B0000EE0606A08B9012000E0002038B904F1A0
:1020C000240001F03FFC18B101F010FD00E003E036
:1020D000681E45B2002DE2DC00BFFF2084F84500F9
:1020E00002F01EFD02F0F9FC94F9445010E0206962
:1020F00008B9012000E0002048B904F1100001F007
:1021000021FC08B101F0F2FC681E45B200E001E0DC
:10211000002DECDC00BFFF2084F8440002F000FD3D
:1021200070BD70B5054602F0D8FCA86BE96B88421B
:1021300001D1012400E0002402F0F2FC204670BD31
:102140002DE9FF4383B0064688461D464FF000093F
:1021500034462CB940F2D9224BA152A002F0A0FD86
:10216000B8F1000F01D1206C08B9012000E0002077
:1021700028B940F2DA2244A14AA002F091FD022DD2
:1021800002D1E06B012801D1012000E0002028B934
:1021900040F2DB223CA143A002F082FD01F0ADFC45
:1021A00008B9059808B9012000E0002028B940F2DC
:1021B000DE2235A13BA002F073FD00BF02F08DFCD2
:1021C000A06BE16B884201D3022D38D12A464146EB
:1021D0002046FFF7E1FE0746A06C68B1294620467D
:1021E000FFF718FF28B34FF0805032490860BFF363
:1021F0004F8FBFF36F8F1CE0606A08B9012000E0C9
:10220000002068B904F1240001F09CFB88B14FF074
:10221000805028490860BFF34F8FBFF36F8F08E0ED
:102220003FB14FF0805023490860BFF34F8FBFF399
:102230006F8F02F075FC012007B0BDE8F0830598B0
:1022400018B902F06DFC0020F6E7B9F1000F04D1D7
:1022500001A801F0FBFB4FF0010902F061FC00F066
:1022600078FF02F03AFC94F94400401C10B90020B9
:1022700084F8440094F94500401C10B9002084F80B
:10228000450002F04DFC17E02E2E5C2E2E5C4672AF
:10229000656552544F535C7372635C717565756507
:1022A0002E6300004572726F723A25732C25640DFF
:1022B0000A00000004ED00E005A901A801F0D8FB28
:1022C000F8B92046FFF72DFFA8B104F110000599D9
:1022D00001F0DAFA2046FFF7DBFE00F08FFE00285F
:1022E0007FF46CAF4FF08050FA490860BFF34F8F16
:1022F000BFF36F8F62E72046FFF7CAFE00F07EFE55
:102300005CE72046FFF7C4FE00F078FE002093E76C
:1023100010B504464CB1002060602060E0600023EE
:102320001A4619462046FFF70BFF10BD2DE9F04174
:10233000044601260027224600210120FFF705FE62
:1023400005462846FFF7E4FF2846BDE8F08170B552
:10235000064634463CB940F24122AFF2D401AFF216
:10236000BC0002F09DFC01F0C5FB616888420CD105
:10237000E068401EE060E06828B900231A4619466C
:102380002046FFF7DDFE012500E00025284670BD50
:1023900070B5054602F0A1FBA86B08B9012400E066
:1023A000002402F0BDFB204670BD70B504460D460A
:1023B000206C70B1216CE0680844E0606168E068FE
:1023C000884201D32068E0602846226CE16802F070
:1023D0002DFC70BD2DE9FF4782B005460E461F4615
:1023E0004FF0000A2C463CB940F2DC42AFF26811D3
:1023F000AFF2501002F054FC0EB9206C08B9012065
:1024000000E0002038B940F2DD42AFF28411AFF2B3
:102410006C1002F045FC01F070FB08B9049808B993
:10242000012000E0002038B94FF49C62AFF2A811FF
:10243000AFF2901002F034FC00BF02F04EFBD4F873
:102440003890B9F1000F3DD0D4F80C8031462046C9
:10245000FFF7ABFFDFB9A9F10100A063206810B955
:1024600001F020FC6060206908B9012000E0002034
:1024700010BB04F1100001F065FAE8B14FF0805094
:1024800094490860BFF34F8FBFF36F8F14E0C4F817
:102490000C80606A08B9012000E0002060B904F1F6
:1024A000240001F04FFA38B14FF08050894908609C
:1024B000BFF34F8FBFF36F8F02F032FB012006B0E6
:1024C000BDE8F087049818B902F02AFB0020F6E76F
:1024D000BAF1000F04D1684601F0B8FA4FF0010AD2
:1024E00002F01EFB00F035FE02F0F7FA94F944000A
:1024F000401C10B9002084F8440094F94500401CA9
:1025000010B9002084F8450002F00AFB04A96846CF
:1025100001F0AEFA40BB2046FFF73AFFF0B1206869
:1025200030B902F0DAFA606801F0F3FA02F0F8FA72
:1025300004F12400049901F0A7F92046FFF7A8FD53
:1025400000F05CFD00287FF478AF4FF080506149C7
:102550000860BFF34F8FBFF36F8F6EE72046FFF722
:1025600097FD00F04BFD68E72046FFF791FD00F076
:1025700045FD2046FFF70CFF0028EED000209EE727
:102580002DE9F04106460F4634463CB94FF41E7221
:10259000AFF20C31AFF2F42002F082FB01F0AAFAA4
:1025A0006168884204D1E068401CE06001250AE0CF
:1025B00000233A4619462046FFF70CFF054615B1A1
:1025C000E068401CE0602846BDE8F08170B5054633
:1025D0000E460DB1012000E0002038B940F2BD22C6
:1025E000AFF25C31AFF2443002F05AFBAE4201D898
:1025F000012000E0002038B940F2BE22AFF278316D
:10260000AFF2603002F04CFB022200212846FFF7B7
:102610009CFC044604B1A663204670BD2DE9F05F22
:1026200080468A4615461E4644463CB940F29F32D3
:10263000AFF2AC31AFF2943002F032FBBAF1000FDE
:1026400001D1206C08B9012000E0002038B94FF416
:102650006872AFF2CC31AFF2B43002F021FB022E3F
:1026600002D1E06B012801D1012000E0002038B93F
:1026700040F2A132AFF2F031AFF2D83002F010FBED
:1026800002F07EFA00BF5021EFF3118081F3118830
:10269000BFF34F8FBFF36F8F00BF0746A06BE16B97
:1026A000884201D3022E2ED194F945B032465146CC
:1026B0002046FFF771FC0BF10100E0B9A06C58B1A6
:1026C00031462046FFF7A6FCD0B1CDB101202860ED
:1026D00016E0000004ED00E0606A08B9012000E0A7
:1026E000002068B904F1240001F02CF940B13DB19B
:1026F0000120286004E00BF1010040B284F845009D
:102700004FF0010901E04FF0000900BF87F3118885
:1027100000BF4846BDE8F09F2DE9F04707460D464B
:102720003C463CB940F23C42AFF2A441AFF28C408F
:1027300002F0B6FA206C08B9012000E0002038B998
:102740004FF48862AFF2C041AFF2A84002F0A8FA9D
:10275000206808B9606808B9012000E0002038B995
:1027600040F24542AFF2E041AFF2C84002F098FAC1
:1027700002F006FA00BF5021EFF3118081F31188B7
:10278000BFF34F8FBFF36F8F00BF0646D4F838906A
:10279000E06B484529D994F945A009F10100A063EF
:1027A0000AF10100C8B9A06C40B100212046FFF732
:1027B00031FCB8B1B5B10120286013E0606A08B9F6
:1027C000012000E0002068B904F1240001F0BAF80B
:1027D00040B13DB10120286004E00AF1010040B29F
:1027E00084F845004FF0010801E04FF0000800BFF9
:1027F00086F3118800BF4046BDE8F0872DE9F05F01
:1028000006468946174634463CB94FF4B462AFF2E7
:102810008851AFF2705002F043FAB9F1000F01D1C4
:10282000206C08B9012000E0002038B940F2A15224
:10283000AFF2AC51AFF2945002F032FA02F0A0F9CC
:1028400000BF5021EFF3118081F31188BFF34F8F48
:10285000BFF36F8F00BF0546D4F838A0BAF1000F60
:1028600022D094F944B049462046FFF79EFDAAF1D4
:102870000100A0630BF1010070B9206908B90120C3
:1028800000E0002068B904F1100001F05BF840B1ED
:102890003FB10120386004E00BF1010040B284F840
:1028A00044004FF0010801E04FF0000800BF85F33D
:1028B000118800BF4046BDE8F09F2DE9F04706466D
:1028C000884634463CB940F2FC52AFF24461AFF264
:1028D0002C6002F0E5F9B8F1000F01D1206C08B9C5
:1028E000012000E0002038B940F2FD52AFF26861EB
:1028F000AFF2506002F0D4F9206C08B1012000E082
:10290000002038B940F2FE52AFF28461AFF26C6041
:1029100002F0C6F902F034F900BF5021EFF3118044
:1029200081F31188BFF34F8FBFF36F8F00BF054650
:10293000A06B48B1D4F80C9041462046FFF735FD16
:10294000C4F80C90012700E0002700BF85F3118830
:1029500000BF3846BDE8F08770B504463CB940F288
:102960002F62AFF2DC61AFF2C46002F099F902F0BD
:10297000B4F8A56B02F0D4F8284670BD70B50446D3
:1029800025463DB940F24162AFF20471AFF2EC600E
:1029900002F086F902F0A1F8D5E90E10461A02F00D
:1029A000BFF8304670BD70B504463CB940F2516284
:1029B000AFF22C71AFF2147002F072F9A56B2846D9
:1029C00070BD014600200EE0714A02EBC002526861
:1029D0008A4207D100226E4B43F8302003EBC0033C
:1029E0005A6002E0401C0A28EED300BF704770B561
:1029F000044625463DB940F25D62AFF27471AFF214
:102A00005C7002F04DF92846FFF7DBFF284601F025
:102A10006DFF70BD70B505463DB940F29372AFF2DF
:102A20009871AFF2807002F03BF9A86B08B90124ED
:102A300000E00024204670BD70B504463CB940F269
:102A4000BA72AFF2BC71AFF2A47002F029F9A06BB8
:102A5000E16B884201D1012500E00025284670BDC8
:102A6000024600200BE04A4B53F8303033B9484B54
:102A700043F8301003EBC0035A6002E0401C0A2800
:102A8000F1D300BF70470246002000210AE0404B0E
:102A900003EBC1035B68934203D13D4B53F8310014
:102AA00002E0491C0A29F2D300BF70472DE9F0412A
:102AB00005460E4617462C4602F00FF894F94400DE
:102AC000401C10B9002084F8440094F94500401CD3
:102AD00010B9002084F8450002F022F8A06B28B954
:102AE0003A46314604F1240000F011FF2046FFF77A
:102AF000CFFABDE8F08170B50446002204212046DB
:102B0000FFF723FA0546284670BD70B504460E4609
:102B100001F0E3FFA06C08B1002505E0A06B08B14F
:102B2000002501E0A664012501F0FAFF284670BDEA
:102B30002DE9F04105460F462E46B06CB84201D053
:102B400000240AE0B06B08B1002406E001F0C5FFE4
:102B50000020B06401F0E4FF01242046BDE8F081CC
:102B600038B505460C4600200090002322466946F1
:102B70002846FFF72FFC009838BD38B504460020E2
:102B80000090002269462046FFF738FE009838BDC5
:102B9000F000002010B5002407E004EB8401F74AA0
:102BA00002EB8100FFF72EF9641C202CF5D3F448CA
:102BB000FFF728F9F348FFF725F9F348FFF722F963
:102BC000F248FFF71FF9F248FFF71CF9EC48F1490A
:102BD0000860EC48F049086010BD10B5044601F0EB
:102BE0007CFFEE480068401CEC490860EC48006837
:102BF00040B9EB4804600846006801280DD1FFF792
:102C0000C9FF0AE0E748006838B9E5480068C06ACB
:102C1000E16A884201D8E2480460E3480068401C49
:102C2000E149086094F82C1001208840DF490968C8
:102C30000843DE490860E16A01EB8101CF4A02EBFB
:102C40008100211DFFF7EEF801F06AFFD54800680A
:102C500068B1D3480068C06AE16A884207D24FF081
:102C60008050D3490860BFF34F8FBFF36F8F10BD03
:102C70002DE9FF5F81460F469246DDE90E6B109C01
:102C8000AAF10100216B01EB800828F0070808F089
:102C9000070008B9012000E0002028B940F22B32DB
:102CA000C4A1CBA001F0FCFF002507E0795D04F191
:102CB00034004155785D00B902E06D1C102DF5D34C
:102CC00000BF002143200155202E00D31F26E662BD
:102CD00066640020A064201DFFF7A1F804F118002D
:102CE000FFF79DF82461C6F12000A0616462002016
:102CF000E06484F8500049464046039A01F07AFEA9
:102D00002060BBF1000F01D0CBF80040BDE8FF9F71
:102D10002DE9FF4F85B0804689461746DDE912ABA5
:102D2000B80001F060FD064656B1542001F05BFD8D
:102D300004460CB1266304E0304601F0D7FD00E004
:102D400000247CB10020CDE900ABCDE902403A4639
:102D500049464046089BFFF78BFF2046FFF73DFFA3
:102D6000012501E04FF0FF35284609B0BDE8F08F9E
:102D700088490968096809B9012100E0002121B1E9
:102D80004FF0FF31964A116006E082490968C96830
:102D9000C868934A41681160704710B50446206BBB
:102DA00001F0A4FD204601F0A1FD10BD70B505465F
:102DB00001F093FE15B97A48006800E02846044601
:102DC000201DFFF755F878B9E06A00EB80006B49E9
:102DD00051F8200040B994F82C1001208840734924
:102DE0000968814371480160A06A18B104F11800B4
:102DF000FFF73EF86C480068401C6B490860684863
:102E00000068844209D1211D6048FFF70BF875481E
:102E10000068401C7349086009E060480068401E73
:102E20005E4908602046FFF7B8FFFFF7A1FF01F0F9
:102E300077FE5C480068C0B159480068844214D1EC
:102E40006948006808B9012000E0002028B940F274
:102E5000654258A15EA001F023FF4FF08050544915
:102E60000860BFF34F8FBFF36F8F70BD2DE9F04146
:102E70004FF000085C480068002872D15B48006889
:102E8000451C5A480560EDB942480068006808B919
:102E9000012000E0002028B940F6D91245A14CA03D
:102EA00001F0FEFE3B4807683B480068394908606E
:102EB000394807604E480068401C4D490860FFF7DC
:102EC00057FF00BF4648006885423CD300BF3148E9
:102ED0000068006808B9012000E0002020B14FF030
:102EE000FF303F4908602DE02A480068C068C46888
:102EF0006668B54202D23A48066023E0201DFEF71C
:102F0000B7FFA06A18B104F11800FEF7B1FF94F8FA
:102F10002C1001208840254909680843234908608E
:102F2000E16A01EB8101154A02EB8100211DFEF7E8
:102F300079FF1B49E06A0968C96A8842C7D34FF024
:102F40000108C4E700BF16480068C06A00EB8000B3
:102F50000A4951F82000012801D94FF0010805E085
:102F6000FFE724480068401C2249086022480068A6
:102F700008B14FF001084046BDE8F0814001002053
:102F8000C0030020D4030020E8030020FC0300203D
:102F9000100400207C000020800000208800002019
:102FA0007800002094000020A40000209000002061
:102FB00004ED00E02E2E5C2E2E5C467265655254A8
:102FC0004F535C7372635C7461736B732E630000A8
:102FD0004572726F723A25732C25640D0A00000049
:102FE000A800002084000020B00000208C000020F9
:102FF000A0000020980000209C00002070B5002454
:103000000026FE48006838B94FF4FD62AFF25C015B
:10301000AFF2440001F044FE01F05FFDF7480068A4
:10302000401EF64908600846006800284FD1F44861
:10303000006800284BD024E0F248C068C46804F15E
:103040001800FEF715FF201DFEF712FF94F82C1054
:1030500001208840EC4909680843EB490860E16AAF
:1030600001EB8101E94A02EB8100211DFEF7DAFE46
:10307000E749E06A0968C96A884202D30120E54944
:103080000860E048006808B9012000E0002000283E
:10309000D2D00CB1FFF76CFEDF48056865B100BF08
:1030A000FFF7E4FE10B10120DA4908606D1E002D23
:1030B000F6D10020D8490860D648006838B101260A
:1030C0003007D6490860BFF34F8FBFF36F8F01F011
:1030D00027FD304670BD2DE9F04105460E46D0482B
:1030E0000768CB480068001DFEF7C2FE50B9C8480B
:1030F000006890F82C1001208840C349096881437A
:10310000C1480160681C38B936B1C1480168091D61
:10311000C448FEF787FE1AE07C19BD480068446089
:10312000BC4207D2BA480168091DBF480068FEF7D3
:1031300085FE0CE0B6480168091DBC480068FEF732
:103140007DFEBB480068844201D2B9480460BDE8F6
:10315000F081AA480068401CA849086070472DE922
:10316000F04704460F464FF000093CB940F279425F
:10317000AFF2C011AFF2A81001F092FD0FB1012023
:1031800000E0002038B940F27A42AFF2D811AFF235
:10319000C01001F085FD9948006808B9012000E0E1
:1031A000002038B940F27B42AFF2F811AFF2E010E4
:1031B00001F076FDFFF7CDFF994806682068C51934
:1031C0002068B04207D92068A8420BD9B54209D976
:1031D0004FF0010906E02068A84201D8B54201D9A4
:1031E0004FF001092560B9F1000F03D0A81B0021A1
:1031F000FFF771FFFFF702FF8046B8F1000F07D11C
:103200004FF0805085490860BFF34F8FBFF36F8F39
:10321000BDE8F08770B504460025BCB1774800686A
:1032200008B9012000E0002038B940F2CF42AFF2E7
:103230007C21AFF2642001F033FDFFF78AFF00210B
:103240002046FFF748FFFFF7D9FE05463DB94FF08E
:10325000805072490860BFF34F8FBFF36F8F70BD0E
:103260002DE9F04107463E463EB940F2FB42AFF23F
:10327000BC21AFF2A42001F013FD6548006886422E
:1032800001D100241EE001F028FC756901F048FC22
:1032900066480068854203D063480068854201D1D2
:1032A00002240FE05F48854205D1B06A08B90324C3
:1032B00008E0022406E05F48854200D00DB90424EE
:1032C00000E001242046BDE8F08170B5044601F01D
:1032D00004FC14B94E48006800E020460646F56A32
:1032E00001F01EFC284670BD2DE9F041054601F0B5
:1032F00047FC00BF5021EFF3118081F31188BFF329
:103300004F8FBFF36F8F00BF044615B94048006868
:1033100000E028460746FE6A00BF84F3118800BF1C
:103320003046BDE8F0812DE9F04780460D464FF06C
:103330000009202D01D2012000E0002038B94FF40F
:10334000B062AFF29031AFF2783001F0A9FC202DDD
:1033500000D31F2501F0C1FBB8F1000F02D12C48AA
:10336000006800E040460446666CAE4277D0B54245
:103370000BD92748006884420DD025480068C06AF0
:10338000A84208D84FF0010905E0214800688442AE
:1033900001D14FF00109E76AE16A606C884200D10F
:1033A000E5626564A06900F0004010B9C5F1200035
:1033B000A06107EB8701154A02EB81016069884231
:1033C00001D1012000E00020B0B3201DFEF750FD28
:1033D00030B90120B8400C49096881430A480160AE
:1033E00094F82C10012088400749096808430649D1
:1033F0000860E16A01EB8101044A1FE0B00000208F
:1034000088000020E80300209000002040010020F8
:10341000780000209C0000209800002004ED00E0CF
:103420008C00002010040020800000207C00002080
:10343000A8000020FC03002005E010E002EB810062
:10344000211DFEF7EFFCB9F1000F07D04FF08050BF
:10345000FB490860BFF34F8FBFF36F8F00BF01F0D0
:103460005FFBBDE8F08710B5F648006818B1012091
:10347000F54908602FE00020F3490860F348006830
:10348000B0FA80F0C0F11F0404EB8400F04951F859
:10349000200008B1012000E0002038B940F6F622F3
:1034A000AFF2F041AFF2D84001F0FAFB04EB840137
:1034B000E74A02EB810041684968416000F1080178
:1034C00042688A4202D14168496841604168C968DE
:1034D000E04A116000BF10BD70B5054601F0FDFA6D
:1034E00015B9DC48006800E028460446201DFEF7B8
:1034F000BFFC78B9E06A00EB8000D54951F82000A4
:1035000040B994F82C1001208840D04909688143C3
:10351000CE480160A06A18B104F11800FEF7A8FCBB
:10352000211DCD48FEF77EFC01F0FAFACB48006879
:1035300028B101F0D2FAFFF71BFC01F0F1FAC548FF
:103540000068844226D1C5480068B8B1BD4800680B
:1035500008B9012000E0002038B940F25762AFF20C
:10356000AC51AFF2945001F09BFB4FF08050B44946
:103570000860BFF34F8FBFF36F8F0BE0B648006852
:10358000B7490968884203D10020B249086001E0C8
:10359000FFF769FF70BD70B5054600262C463DB9A2
:1035A00040F28162AFF2F451AFF2DC5001F078FBEF
:1035B000A9496069884201D1012000E0002070B172
:1035C000A849A06A884201D1012000E0002030B95A
:1035D000A06A08B9012000E0002000B101263046B1
:1035E00070BD70B505462C463DB940F2AB62AFF2F6
:1035F0003C61AFF2246001F053FB74B3954800685E
:1036000084422AD001F069FA2046FFF7C4FF10B3C4
:10361000201DFEF72DFC94F82C10012088408B49CA
:103620000968084389490860E16A01EB8101884A19
:1036300002EB8100211DFEF7F5FB8649E06A09686F
:10364000C96A884207D34FF080507D490860BFF3B4
:103650004F8FBFF36F8F01F063FA70BD2DE9F0411A
:103660000646002734463EB940F2E262AFF2BC6142
:10367000AFF2A46001F014FB01F082FA00BF502108
:10368000EFF3118081F31188BFF34F8FBFF36F8F7A
:1036900000BF05462046FFF77EFF20B3694800685B
:1036A000E0B96C49E06A0968C96A884200D3012719
:1036B000201DFEF7DDFB94F82C10012088406349A3
:1036C0000968084361490860E16A01EB8101604AC9
:1036D00002EB8100211DFEF7A5FB04E004F11801B7
:1036E0006048FEF79FFB00BF85F3118800BF384696
:1036F000BDE8F08170B523E0FFF72BFD5A48006864
:1037000008B9012000E000200546FFF777FCBDB9AD
:1037100001F0E3F95448C068C468201DFEF7A8FB17
:103720004F480068401E4E49086050480068401EDF
:103730004E49086001F0F4F92046FFF72EFB00BF68
:103740004A4800680028D7D170BD00BFFFF7D2FFFC
:103750003F4800680128F9D94FF080503849086087
:10376000BFF34F8FBFF36F8FF0E71CB540480021C8
:103770000B468022CDE900103EA14048FFF7C8FA71
:103780000446012C02D100F087FE0446012C15D11D
:1037900000BF502080F31188BFF34F8FBFF36F8FAE
:1037A00000BF4FF0FF303649086001202B49086008
:1037B00000203449086001F039F90DE0601C08B1BF
:1037C000012000E0002038B940F28472AFF61C01FD
:1037D000AFF6040001F064FA1CBD10B500BF502024
:1037E00080F31188BFF34F8FBFF36F8F00BF0020AE
:1037F0001A49086001F060F910BD22490868704755
:1038000070B501F0BDF900251E480468204670BD62
:1038100013480068704770B5044614B90D48006835
:1038200000E0204605463DB940F68C02AFF67C012B
:10383000AFF6640001F034FA05F1340070BD000009
:1038400004ED00E0B00000209C000020900000206B
:103850004001002078000020100400209400002087
:1038600088000020E8030020FC03002084000020E2
:10387000AC00002049444C45000000004B370008D4
:10388000A80000208C00002070B504460D463CB90D
:1038900040F60632AFF6E401AFF6CC0001F000FAD4
:1038A000F748016818312046FEF7C8FA012128467A
:1038B000FFF711FC70BD70B504460D4616463CB9C5
:1038C00040F61732AFF61411AFF6FC0001F0E8F93C
:1038D000EC48006808B1012000E0002038B940F64B
:1038E0001B32AFF63011AFF6181001F0D9F945F0E0
:1038F0000040E34909688861E148016818312046C1
:10390000FEF790FA01213046FFF7E5FB70BD70B578
:1039100005460E4614463DB940F63132AFF66C11FD
:10392000AFF6541001F0BCF9D548016818312846AB
:10393000FEF778FA0CB14FF0FF3621463046FFF71C
:10394000CAFB70BD70B50646F068C4683CB940F665
:103950006132AFF6A011AFF6881001F0A1F904F1C1
:103960001800FEF785FAC7480068A8B9201DFEF7C1
:103970007FFA94F82C1001208840C3490968084355
:10398000C1490860E16A01EB8101C04A02EB810094
:10399000211DFEF747FA04E004F11801BC48FEF7C8
:1039A00041FAB749E06A0968C96A884204D9012521
:1039B0000120B849086000E00025284670BD2DE9C7
:1039C000F04105460F46AF48006808B1012000E00D
:1039D000002038B940F69932AFF62821AFF6102012
:1039E00001F05EF947F000402860EC683CB940F611
:1039F000A132AFF64021AFF6282001F051F9284658
:103A0000FEF736FA201DFEF733FA94F82C10012049
:103A100088409D49096808439B490860E16A01EBB9
:103A200081019A4A02EB8100211DFEF7FBF99449BE
:103A3000E06A0968C96A884204D9012601209549CB
:103A4000086000E000263046BDE8F08110B504466D
:103A50003CB940F6C132AFF6A421AFF68C2001F09C
:103A60001FF98D48006820608C480068606010BDB8
:103A70002DE9F04104460D463CB940F6CB32AFF695
:103A8000CC21AFF6B42001F00BF93DB940F6CC32B1
:103A9000AFF6E021AFF6C82001F002F901F01DF801
:103AA0007E4807682868401C08B9002619E07A4952
:103AB00020680968884204D06068B84201D80126AD
:103AC0000FE06068381A2968884209D2286861685E
:103AD000791A401A28602046FFF7B8FF002600E058
:103AE000012601F01DF83046BDE8F081012069494A
:103AF000086070476249086870476949096809B9F0
:103B0000012005E05F49096809B9022000E00020B2
:103B1000704770B505462C46002D4BD05849E06AD9
:103B20000968C96A884245D2A06900F0004028B9F6
:103B300053480068C06AC0F12000A061E16A01EB4F
:103B40008101524A02EB81016069884201D1012062
:103B500000E0002050B3201DFEF78AF978B9E06A32
:103B600000EB8000494951F8200040B994F82C102E
:103B70000120884044490968814343480160404826
:103B80000068C06AE06294F82C10012088403E4929
:103B9000096808433C490860E16A01EB81013B4A3E
:103BA00002EB8100211DFEF73DF903E03448006877
:103BB000C06AE06270BD70B505462C460026002D37
:103BC0004FD02F480068844201D1012000E000203E
:103BD00038B940F6C762AFF62441AFF60C4001F0A9
:103BE0005FF8A06C38B940F6C962AFF63841AFF65D
:103BF000204001F055F8A06C401EA064616CE06AA2
:103C000088422ED0A06C60BB201DFEF731F978B938
:103C1000E06A00EB80001D4951F8200040B994F89B
:103C20002C1001208840184909688143164801601A
:103C3000606CE062E06AC0F12000A06194F82C1092
:103C4000012088401049096808430F490860E16A6B
:103C500001EB81010D4A02EB8100211DFEF7E2F824
:103C60000126304670BD064909688869044909681B
:103C7000C96AC1F12001024A1268916170470000CF
:103C800078000020B00000209000002040010020BB
:103C9000E80300209C000020A00000208C000020F1
:103CA00094000020F948006830B1F849096801F132
:103CB0004800896C491C0160F4480068704770B581
:103CC00006460D4600F009FFF0480068C06C88B950
:103CD0000120EE49096881F850005DB101212846B4
:103CE000FFF7F9F94FF08050E9490860BFF34F8FB3
:103CF000BFF36F8F00F014FF00F0EFFEE3480068A1
:103D0000C46C4CB126B10020E0490968C86403E0E6
:103D1000601EDE490968C8640020DC49096881F832
:103D2000500000F0FDFE204670BD2DE9F041074631
:103D3000884614461D4600F0D0FED448006890F82E
:103D40005000022818D0D149096801F14C00C96C13
:103D5000B94301600120CD49096881F850005DB187
:103D600001212846FFF7B7F94FF08050C849086095
:103D7000BFF34F8FBFF36F8F00F0D2FE00F0ADFEA8
:103D80001CB1C2480068C06C2060C048006890F850
:103D90005000012801D1002608E0BC49096801F162
:103DA0004C00C96C21EA0801016001260020B749D6
:103DB000096881F8500000F0B3FE3046BDE8F0819C
:103DC0002DE9F04706460D46174698464FF0010A82
:103DD0003EB941F2FD02AFF62461AFF60C6000F08F
:103DE0005FFF344600F079FEB8F1000F02D0E06CBE
:103DF000C8F8000094F85090022084F85000052F75
:103E000017D2DFE807F01503070B0D00E06C28431D
:103E1000E0640EE0E06C401CE0640AE0E56408E069
:103E2000B9F1020F01D0E56401E04FF0000A00E0B3
:103E300000BF00BFB9F1010F30D1201DFEF718F807
:103E400094F82C1001208840924909680843914950
:103E50000860E16A01EB81018F4A02EB8100211DBC
:103E6000FDF7E0FFA06A08B9012000E0002038B9A2
:103E700041F23512AFF6C461AFF6AC6000F010FF4E
:103E80008249E06A0968C96A884207D94FF08050C0
:103E90007F490860BFF34F8FBFF36F8F00F040FE84
:103EA0005046BDE8F0872DE9F84F07460E4690468C
:103EB0009946DDF828B0012000903FB941F2681220
:103EC000AFF61071AFF6F86000F0EAFE00F058FEB1
:103ED0003C4600BF5021EFF3118081F31188BFF3FE
:103EE0004F8FBFF36F8F00BF0546B9F1000F02D0AF
:103EF000E06CC9F8000094F850A0022084F850004B
:103F0000B8F1050F17D2DFE808F01503070B0D0015
:103F1000E06C3043E0640EE0E06C401CE0640AE0DA
:103F2000E66408E0BAF1020F01D0E66401E0002087
:103F3000009000E000BF00BFBAF1010F3BD1A06AC2
:103F400008B9012000E0002038B941F2AF12AFF605
:103F50009C71AFF6847000F0A3FE50480068A8B9C9
:103F6000201DFDF785FF94F82C1001208840494959
:103F70000968084347490860E16A01EB8101464A44
:103F800002EB8100211DFDF74DFF04E004F1180153
:103F90004348FDF747FF3D49E06A0968C96A88421E
:103FA00009D9BBF1000F03D00120CBF8000002E0DB
:103FB00001203C49086000BF85F3118800BF0098CC
:103FC000BDE8F88F2DE9F04105460F4635B941F2BD
:103FD000E312354901F11C0000F062FE00F0D0FD53
:103FE0002C4600BF5021EFF3118081F31188BFF3FD
:103FF0004F8FBFF36F8F00BF064694F850800220AA
:1040000084F85000E06C401CE064B8F1010F37D137
:10401000A06A08B9012000E0002030B941F209226D
:10402000214901F11C0000F03BFE1C480068A8B9C2
:10403000201DFDF71DFF94F82C1001208840154924
:104040000968084313490860E16A01EB8101124ADB
:1040500002EB8100211DFDF7E5FE04E004F11801EB
:104060000F48FDF7DFFE0949E06A0968C96A88421E
:1040700006D917B10120386002E001200949086023
:1040800000BF86F3118800BFBDE8F08178000020F2
:1040900004ED00E09000002040010020B00000206E
:1040A000E80300209C000020B42F000870B50546EE
:1040B00015B90A48006800E02846064600F00DFDE4
:1040C00096F85000022804D1002086F85000012400
:1040D00000E0002400F024FD204670BD78000020A0
:1040E0002DE9F04104460D4616461F464FF00008E4
:1040F00065602461B5420CD8F01BA169884202D3E7
:104100004FF0010811E0211DF7480068FDF796FE09
:104110000BE0BE4204D2BD4202D34FF0010804E0DE
:10412000211DF2480068FDF789FE4046BDE8F08198
:104130002DE9FF4704460D4616461F46DDF8308040
:104140004FF000092CB94FF4D372E9A1EFA000F0B1
:10415000A7FDF248006810B3009501960294062D61
:1041600015DAFFF7CAFC022808D100234246694647
:10417000EA480068FDF7E4FF814610E000231A4694
:104180006946E6480068FDF7DBFF814607E000234B
:104190003A466946E1480068FEF740FA81464846DB
:1041A00004B0BDE8F0872DE9F8432DE0CF48006862
:1041B000C0680568CD480068C068C468201DFDF768
:1041C00057FE2046616A8847E06901281CD1A06932
:1041D0004619AE4207D966602461211DC3480068B4
:1041E000FDF72CFE10E0002003462A460146009011
:1041F0002046FFF79DFF07462FB940F29232BCA13F
:10420000C2A000F04DFD00BFB8480068006808B9C2
:10421000012000E000200028C8D0B448D0F8008079
:10422000B1480068B1490860AF48C0F80080BDE8F7
:10423000F88370B50446FFF7E0FA0546B848006811
:10424000854204D2FFF7AFFF0120206001E000208B
:104250002060B3480560284670BDF0B587B070E0B7
:10426000039800280CDA04AE2EB940F2E722A0A190
:10427000A6A000F015FDD6E90020B168904700BF68
:10428000039800285DDB059C606908B9012000E007
:10429000002010B9201DFDF7EBFD02A8FFF7C9FFB4
:1042A000054603980A284AD2DFE800F00905072CE2
:1042B0002E4506082D2F00BF00BF00BF00BF049889
:1042C000A269811803462A462046FFF709FFC0B1BC
:1042D0002046616A8847E069012812D100200090D9
:1042E0000498A1694218002319462046FFF720FFD1
:1042F00007462FB940F221327DA184A000F0D0FC06
:1043000000BF1DE000BF1BE000BF0498A061A069D2
:1043100008B1012000E0002028B94FF44E7274A1CA
:104320007AA000F0BDFCA06941192B462A46204620
:10433000FFF7D6FE04E0204600F0D8FA00E000BF08
:1043400000BF00231A4603A974480068FEF742F82C
:10435000002885D107B0F0BDF8B505460F46634883
:104360000068C068C468201DFDF782FDE06901286F
:1043700018D1A06941192B463A462046FFF7B0FEF6
:1043800080B1002003462A46014600902046FFF7F0
:10439000CFFE06462EB94FF4027255A15BA000F085
:1043A0007FFC00BF2046616A8847F8BDF8B5054626
:1043B0000C46FEF7CEFE6846FFF73BFF0646009828
:1043C00020BB44B9B54206D8FEF718FE3146284650
:1043D000FFF7C2FF1CE03CB143480068006808B921
:1043E000012000E000200446A91B22464B4800683B
:1043F000FEF75CFBFEF702FE50B94FF080504949D2
:104400000860BFF34F8FBFF36F8F01E0FEF7F6FD3B
:10441000F8BD0146354A126812680AB9012200E067
:1044200000220A600A6822B9304A1268D26810680D
:1044300000E00020704708B500BF6846FFF7E9FFBD
:10444000044620460099FFF7B1FFFFF706FFF4E7A7
:1044500010B500F042FB31480068D0B93248FDF792
:10446000D1FC3248FDF7CEFC2F48204908602F4888
:104470001D490860002210210A20FDF766FD27492A
:1044800008600846006820B129A124480068FEF7AA
:10449000E7FA00F045FB10BD1CB50024FFF7D8FF7C
:1044A0001E48006858B124481F2100234FF4807231
:1044B000CDE9001021A12348FEF72AFC04462CB9BF
:1044C00040F233120AA111A000F0EAFB20461CBD05
:1044D0002DE9F04706460D4617469846DDE9089453
:1044E0000DB1012031E02FE0B8000020B400002021
:1044F0002E2E5C2E2E5C4672656552544F535C73B3
:1045000072635C74696D6572732E63004572726FBD
:10451000723A25732C25640D0A000000BC000020AF
:10452000C400002004ED00E0240400203804002032
:10453000546D725100000000C0000020546D7220C4
:104540005376630037440008002038B94FF4C67230
:10455000AFF26401AFF24C0000F0A2FB5CB1FFF7D8
:1045600077FF2660A561E761C4F82080C4F8249035
:10457000201DFDF754FCBDE8F0872DE9FC470546FA
:104580000E4617469846DDF82890282000F02BF9B3
:1045900004463CB143463A4631462846CDE90094AC
:1045A000FFF796FF2046BDE8FC8710B55B48006822
:1045B00008B1012000E0002038B94FF4E872AFF2F2
:1045C000D001AFF2B80000F06BFB5448006810BD9A
:1045D00070B5044625463CB940F2D912AFF2F0015D
:1045E000AFF2D80000F05CFBA86970BD70B504465E
:1045F00025463CB940F2E312AFF20C11AFF2F400E1
:1046000000F04EFB6E68304670BD70B5044625461E
:104610003CB940F2ED12AFF22811AFF2101000F0E9
:104620003FFB286870BD70B5044626463CB940F291
:10463000DA32AFF24411AFF22C1000F031FB00F08F
:104640004CFA706908B9012000E0002080F00105F3
:1046500000F066FA284670BD70B5044626463CB99F
:1046600040F2EF32AFF27811AFF2601000F018FBB9
:1046700000F033FA356A00F053FA284670BD70B581
:1046800004460D4626463CB940F2FF32AFF2A01177
:10469000AFF2881000F004FB00F01FFA356200F062
:1046A0003FFA70BD2DE9FF4104460D4616461F46F0
:1046B0006FF00100009001940295039600233A46A2
:1046C000694617480068FDF7A9FF8046404604B0D8
:1046D000BDE8F0812DE9FF4104460D4616461F4610
:1046E0000F48006838B940F22B42AFF2FC11AFF22C
:1046F000E41000F0D5FA4FF0FF30009001940295DD
:10470000039600233A46694605480068FDF718FD00
:104710008046404604B0BDE8F0810000C0000020A3
:10472000BC00002010B50146924800E00068036814
:104730008B42FBD30246436813448B4204D1436847
:104740004C682344436001460A464B68134404689E
:10475000A34211D1884C03682468A34208D04B6857
:104760000468646823444B6003681B680B6005E0C1
:10477000814B1B680B6001E003680B60884200D02E
:10478000016010BD30B54FF400537C4800F00704C1
:104790002CB1C01D20F00700784C041B1B1B0246E7
:1047A000744C22600024734D6C60D018083820F0DF
:1047B0000700714C206000246F4D2D686C606E4DB9
:1047C0002D682C601146441A4C606B4C24680C60B8
:1047D0006B4D4C682C606B4D4C682C604FF0004466
:1047E000694D2C6030BD2DE9F04104464FF00008C2
:1047F000FEF7AFFC6048006808B9FFF7C3FF6248E6
:104800000068204000285FD1A4B1083404F00700FC
:1048100080B104F00700C0F10800044404F0070070
:1048200008B9012000E0002020B9BF2257A161A0F3
:1048300000F036FA002C47D052480068844243D832
:104840004C4E3046056801E02E462D686868A0424F
:1048500002D228680028F7D147480068854233D043
:10486000306800F10808286830606868001B10286C
:1048700013D92F1907F0070008B9012000E0002024
:1048800020B9EC2241A14BA000F00AFA6868001B95
:1048900078606C603846FFF745FF3A4968680968F8
:1048A000081A38490860084600683549096888428E
:1048B00003D234480068324908603349686809689F
:1048C0000843686000202860FEF798FB08F00700A6
:1048D00008B9012000E0002028B94FF496722BA1FE
:1048E00034A000F0DDF94046BDE8F08170B5064621
:1048F0003546002E35D0083D2C46234960680968AE
:10490000084008B1012000E0002028B94FF4A0724F
:104910001EA128A000F0C4F9206808B9012000E019
:10492000002028B940F2411218A122A000F0B8F9E5
:10493000154960680968084098B1206888B912492B
:104940006068096888436060FEF703FC0D49606891
:10495000096808440B4908602046FFF7E3FEFEF7AC
:104960004DFB70BD074800687047054800687047F8
:1049700070470000C8000020D00000204C04002038
:10498000D8000020D4000020DC0000202E2E5C2E59
:104990002E5C4672656552544F535C706F72745C46
:1049A0004D656D4D616E675C686561705F342E6347
:1049B000000000004572726F723A25732C25640D59
:1049C0000A00000084480068401C08B9012000E08B
:1049D000002020B9F42281A18AA000F061F900BF73
:1049E000502080F31188BFF34F8FBFF36F8F00BF4C
:1049F00000BFFEE7001F4FF080730360001F21F02F
:104A000001030360001F834B0360143802602038E9
:104A10007047814800684FF47A71B0FBF1F0401E96
:104A20004FF0E02148610720086170471CB57B48C2
:104A3000014609780191FF2102461170014609786B
:104A400000919DF8001001F05001754A1170072186
:104A5000744A116009E073490968491E714A11607E
:104A60009DF800104906090E00919DF8001001F014
:104A700080018029EFD06B4909680902694A1160F9
:104A80001146098801F4E0611160644A01991170CE
:104A90006548006840F47000634908600846006893
:104AA00040F070400860FFF7B4FF00204A490860FA
:104AB000FBF73AFB00201CBD10B547480068B0F575
:104AC0007A7F01D1012000E0002028B94FF4B572AF
:104AD00042A14CA000F0E4F810BD10B500BF50207A
:104AE00080F31188BFF34F8FBFF36F8F00BF3A4839
:104AF0000068401C384908600846006801280ED14B
:104B000049481C380068C0B208B9012000E0002004
:104B100028B94FF4BD7231A13AA000F0C1F810BD20
:104B200010B52D48006828B940F281122BA135A09C
:104B300000F0B6F828480068401E2749086008467B
:104B4000006820B9002080F3118800BF00BF10BDAD
:104B500010B500BF502080F31188BFF34F8FBFF313
:104B60006F8F00BFFEF782F920B14FF080502E49C1
:104B70001C39086000BF002080F3118800BF10BD01
:104B800070B5FBF707FB0546102D11D305F1E020AA
:104B900090F8F04322480078844201DB012000E0D5
:104BA000002028B94FF42A720CA116A000F078F862
:104BB0001D481438006800F4E0601A49096888420A
:104BC00001D8012000E0002028B94FF42E7203A183
:104BD0000CA000F065F870BDE00000202E2E5C2EC9
:104BE0002E5C4672656552544F535C706F72745CF4
:104BF000525644535C41524D5F434D335C706F726B
:104C0000742E63004572726F723A25732C25640D01
:104C10000A000000C54900080000002000E400E090
:104C2000E4000020E800002020ED00E040EA01035D
:104C30009B0703D009E008C9121F08C0042AFAD252
:104C400003E011F8013B00F8013B521EF9D2704716
:104C500030B50B46014600202022012409E021FA4C
:104C600002F59D4205D303FA02F5491B04FA02F549
:104C70002844151EA2F10102F1DC30BD064C074D9F
:104C800006E0E06840F0010394E80700984710341C
:104C9000AC42F6D3FBF72EFAD0DB0008F0DB0008BD
:104CA0000FB4054B10B503A9044A029800F018F898
:104CB00010BC5DF814FB0000994E0008EC000020C9
:104CC00002E008C8121F08C1002AFAD170477047D5
:104CD000002001E001C1121F002AFBD17047000033
:104CE0002DE9FF4F8BB09A460F460546002606E099
:104CF00025280BD052460D9990476D1C761C2878BC
:104D00000028F5D10FB03046BDE8F08F0024A04652
:104D10000122604900E0044315F8013F203B02FAFC
:104D200003F00842F7D128782E2817D115F8010F83
:104D300044F004042A280ED06FF02F022878A0F146
:104D4000300109290AD808EB880102EB410100EB88
:104D500001086D1CF2E757F8048B6D1C2878692850
:104D60003ED006DC0028CDD063280BD0642804D1C7
:104D700036E0732810D075284BD052460D999047D5
:104D8000761C85E017F8040B8DF8000000208DF8E4
:104D90000100E946012003E057F8049B4FF0FF3083
:104DA00061074FF0000401D40AE0641C44450DDAA9
:104DB0008442FADB19F804100029F6D106E0641CDD
:104DC0008442FCDB19F804100029F8D1264404E0E1
:104DD00019F8010B52460D999047641EF8D257E01E
:104DE00001CF4FF00A0B002802DA40422D2102E0E9
:104DF000210504D52B218DF82410012103E0E107C2
:104E000005D02021F7E70DF1200908910CE00021E1
:104E1000F9E701CF4FF00A0BF9E75946FFF718FF02
:104E200001F1300209F8012D0028F6D1ADEB09009F
:104E300000F1200B600701D44FF00108D84502DDD6
:104E4000A8EB0B0000E000208046002406E009A843
:104E50005246005D0D999047641C761C0898844268
:104E6000F5DB04E0302052460D999047761CB8F1EE
:104E70000001A8F10108F5DC05E019F8010B524624
:104E80000D999047761CBBF10001ABF1010BF4DCEE
:104E90006D1C34E70928010038B504468DF8000080
:104EA00069460320ABBE204638BDFFFFFFFFFFFF72
:104EB000FFFFFFFFFFFFFFFFFFFFFFFFFFFFFFFF02
:104EC000FFFFFFFFFFFFFFFFFFFFFFFFFFFFFFFFF2
:104ED000FFFFFFFFFFFFFFFFFFFFFFFFFFFFFFFFE2
:104EE000FFFFFFFFFFFFFFFFFFFFFFFFFFFFFFFFD2
:104EF000FFFFFFFFFFFFFFFFFFFFFFFFFFFFFFFFC2
:104F0000FFFFFFFFFFFFFFFFFFFFFFFFFFFFFFFFB1
:104F1000FFFFFFFFFFFFFFFFFFFFFFFFFFFFFFFFA1
:104F2000FFFFFFFFFFFFFFFFFFFFFFFFFFFFFFFF91
:104F3000FFFFFFFFFFFFFFFFFFFFFFFFFFFFFFFF81
:104F4000FFFFFFFFFFFFFFFFFFFFFFFFFFFFFFFF71
:104F5000FFFFFFFFFFFFFFFFFFFFFFFFFFFFFFFF61
:104F6000FFFFFFFFFFFFFFFFFFFFFFE0001FF80055
:104F700007FFFFC0000FF00003FFFF800007E00005
:104F800001FFFF000003C00000FFFE0000018000E1
:104F9000007FFC0000018000003FFC000001800059
:104FA000003FFE000003C000007FFFFFFFFFFFFF88
:104FB000FFFFFFFFFFFFFFFFFFFFFFFFFFFFC0003F
:104FC000007FFFFFFFFF8000003FFFFFFFFF80002B
:104FD000003FFFFFFFFF8000007FF3FFFFFFC000E7
:104FE00000CFE1FFFFFE60000187E0FFFFFC300023
:104FF0000307E07FFFF818000607E03FFFF00FFF10
:10500000FC07E01FFFF00FFFF807E01FFFF00FFFA6
:10501000F807E01FFFF00FFFF807E01FFFF00FFF9A
:10502000F807E01FFFF00FFFF807E01FFFF00FFF8A
:10503000F807E01FFFF00FFFF807E01FFFF00FFF7A
:10504000F807E01FFFF00FFFF807E01FFFF00FFF6A
:10505000F807E01FFFF00FFFF807E01FFFF00FFF5A
:10506000F807E01FFFF00FFFF807E03FFFF00FFF2A
:10507000FC07E06000181FFFFE07E0C0000C3FFFC8
:10508000FF07E18000067FFFFF87F3000003FFFFBB
:10509000FFCFFE000001FFFFFFFFFC000001FFFF4C
:1050A000FFFFFC000001FFFFFFFFFE000003FFFF0A
:1050B000FFFFFFFFFFFFFFFFFFFFFFFFFFFFFFFF00
:1050C000FFFFFFFFFFFFFFFFFFFFFFFFFFFFFFFFF0
:1050D000FFFFFFFFFFFFFFFFFFFFFFFFFFFFFFFFE0
:1050E000FFFFF3FFFFFFFFFFFFCFE1FFFFFE7FFFAB
:1050F000FF87E0FFFFFC3FFFFF07E07FFFF81FFF98
:10510000FE07E03FFFF00FFFFC07E01FFFF00FFF7F
:10511000F807E01FFFF00FFFF807E01FFFF00FFF99
:10512000F807E01FFFF00FFFF807E01FFFF00FFF89
:10513000F807E01FFFF00FFFF807E01FFFF00FFF79
:10514000F807E01FFFF00FFFF807E01FFFF00FFF69
:10515000F807E01FFFF00FFFF807E01FFFF00FFF59
:10516000F807E01FFFF00FFFF807E01FFFF00FFF49
:10517000F807E03FFFF00FFFFC07E06000181800A1
:105180000607E0C0000C30000307E1800006600065
:105190000187F3000003C00000CFFE000001800083
:1051A000007FFC0000018000003FFC000001800047
:1051B000003FFE000003C000007FFFFFFFFFFFFF76
:1051C000FFFFFFFFFFFFFFFFFFFFFE000003FFFFEA
:1051D000FFFFFC000001FFFFFFFFFC000001FFFFDD
:1051E000FFFFFE000001FFFFFFFFFF000003FFFFC6
:1051F000FFFFFF8000067FFFFFFFFFC0000C3FFFA7
:10520000FFFFFFE000181FFFFFFFFFFFFFF00FFF92
:10521000FFFFFFFFFFF00FFFFFFFFFFFFFF00FFF9C
:10522000FFFFFFFFFFF00FFFFFFFFFFFFFF00FFF8C
:10523000FFFFFFFFFFF00FFFFFFFFFFFFFF00FFF7C
:10524000FFFFFFFFFFF00FFFFFFFFFFFFFF00FFF6C
:10525000FFFFFFFFFFF00FFFFFFFFFFFFFF00FFF5C
:10526000FFFFFFFFFFF00FFFFFFFFFFFFFF00FFF4C
:10527000FFFFFFFFFFF00FFFFFFFFFFFFFF00FFF3C
:10528000FFFFFFE00018180007FFFFC0000C300010
:1052900003FFFF800006600001FFFF000003C00065
:1052A00000FFFE0000018000007FFC000001800084
:1052B000003FFC0000018000003FFE000003C00032
:1052C000007FFFFFFFFFFFFFFFFFFFFFFFFFFFFF6D
:1052D000FFFFFE000003FFFFFFFFFC000001FFFFD8
:1052E000FFFFFC000001FFFFFFFFFE000001FFFFCA
:1052F000FFFFF3000003FFFFFFCFE18000067FFF09
:10530000FF87E0C0000C3FFFFF07E06000181FFFB1
:10531000FE07E03FFFF00FFFFC07E01FFFF00FFF6D
:10532000F807E01FFFF00FFFF807E01FFFF00FFF87
:10533000F807E01FFFF00FFFF807E01FFFF00FFF77
:10534000F807E01FFFF00FFFF807E01FFFF00FFF67
:10535000F807E01FFFF00FFFF807E01FFFF00FFF57
:10536000F807E01FFFF00FFFF807E01FFFF00FFF47
:10537000F807E01FFFF00FFFF807E01FFFF00FFF37
:10538000F807E03FFFF00FFFFC07E07FFFF8180091
:105390000607E0FFFFFC30000307E1FFFFFE6000AF
:1053A0000187F3FFFFFFC00000CFFFFFFFFF80007A
:1053B000007FFFFFFFFF8000003FFFFFFFFF800037
:1053C000003FFFFFFFFFC000007FFFFFFFFFFFFF69
:1053D000FFFFFFFFFFFFFFFFFFFFFE000003C00016
:1053E000007FFC0000018000003FFC000001800005
:1053F000003FFE0000018000007FF3000003C000BA
:1054000000CFE180000660000187E0C0000C3000A2
:105410000307E060001818000607E03FFFF00FFFE9
:10542000FC07E01FFFF00FFFF807E01FFFF00FFF82
:10543000F807E01FFFF00FFFF807E01FFFF00FFF76
:10544000F807E01FFFF00FFFF807E01FFFF00FFF66
:10545000F807E01FFFF00FFFF807E01FFFF00FFF56
:10546000F807E01FFFF00FFFF807E01FFFF00FFF46
:10547000F807E01FFFF00FFFF807E01FFFF00FFF36
:10548000F807E01FFFF00FFFF807E03FFFF00FFF06
:10549000FC07E07FFFF818000607E0FFFFFC300084
:1054A0000307E1FFFFFE60000187F3FFFFFFC0007D
:1054B00000CFFFFFFFFF8000007FFFFFFFFF8000A6
:1054C000003FFFFFFFFF8000003FFFFFFFFFC00026
:1054D000007FFFFFFFFFFFFFFFFFFFFFFFFFFFFF5B
:1054E000FFFFFFFFFFFFFFFFFFFFFFFFFFFFFFFFCC
:1054F000FFFFFFFFFFFFFFFFFFFFFFFFFFFFFFFFBC
:10550000FFFFF3FFFFFFFFFFFFFFE1FFFFFFFFFFD5
:10551000FFFFE0FFFFFFFFFFFFFFE07FFFFFFFFF59
:10552000FFFFE03FFFFFFFFFFFFFE01FFFFFFFFF69
:10553000FFFFE01FFFFFFFFFFFFFE01FFFFFFFFF79
:10554000FFFFE01FFFFFFFFFFFFFE01FFFFFFFFF69
:10555000FFFFE01FFFFFFFFFFFFFE01FFFFFFFFF59
:10556000FFFFE01FFFFFFFFFFFFFE01FFFFFFFFF49
:10557000FFFFE01FFFFFFFFFFFFFE01FFFFFFFFF39
:10558000FFFFE01FFFFFFFFFFFFFE01FFFFFFFFF29
:10559000FFFFE03FFFFFFFFFFFFFE060001FF8009D
:1055A00007FFE0C0000FF00003FFE1800007E0000C
:1055B00001FFF3000003C00000FFFE0000018000B7
:1055C000007FFC0000018000003FFC000001800023
:1055D000003FFE000003C000007FFFFFFFFFFFFF52
:1055E000FFFFFFFFFFFFFFFFFFFFFE000003C00004
:1055F000007FFC0000018000003FFC0000018000F3
:10560000003FFE0000018000007FF3000003C000A7
:1056100000CFE180000660000187E0C0000C300090
:105620000307E060001818000607E03FFFF00FFFD7
:10563000FC07E01FFFF00FFFF807E01FFFF00FFF70
:10564000F807E01FFFF00FFFF807E01FFFF00FFF64
:10565000F807E01FFFF00FFFF807E01FFFF00FFF54
:10566000F807E01FFFF00FFFF807E01FFFF00FFF44
:10567000F807E01FFFF00FFFF807E01FFFF00FFF34
:10568000F807E01FFFF00FFFF807E01FFFF00FFF24
:10569000F807E01FFFF00FFFF807E03FFFF00FFFF4
:1056A000FC07E060001818000607E0C0000C30009E
:1056B0000307E180000660000187F3000003C000DB
:1056C00000CFFE0000018000007FFC000001800090
:1056D000003FFC0000018000003FFE000003C0000E
:1056E000007FFFFFFFFFFFFFFFFFFFFFFFFFFFFF49
:1056F000FFFFFE000003FFFFFFFFFC000001FFFFB4
:10570000FFFFFC000001FFFFFFFFFE000001FFFFA5
:10571000FFFFF3000003FFFFFFCFE18000067FFFE4
:10572000FF87E0C0000C3FFFFF07E06000181FFF8D
:10573000FE07E03FFFF00FFFFC07E01FFFF00FFF49
:10574000F807E01FFFF00FFFF807E01FFFF00FFF63
:10575000F807E01FFFF00FFFF807E01FFFF00FFF53
:10576000F807E01FFFF00FFFF807E01FFFF00FFF43
:10577000F807E01FFFF00FFFF807E01FFFF00FFF33
:10578000F807E01FFFF00FFFF807E01FFFF00FFF23
:10579000F807E01FFFF00FFFF807E01FFFF00FFF13
:1057A000F807E03FFFF00FFFFC07E060001818006B
:1057B0000607E0C0000C30000307E180000660002F
:1057C0000187F3000003C00000CFFE00000180004D
:1057D000007FFC0000018000003FFC000001800011
:1057E000003FFE000003C000007FFFFFFFFFFFFF40
:1057F000FFFFFFFFFFFFFFFFFFFFFE000003C000F2
:10580000007FFC0000018000003FFC0000018000E0
:10581000003FFE0000018000007FF3000003C00095
:1058200000CFE1800007E0000187E0C0000FF0003A
:105830000307E060001FF8000607E03FFFFFFFFFDF
:10584000FC07E01FFFFFFFFFF807E01FFFFFFFFF60
:10585000F807E01FFFFFFFFFF807E01FFFFFFFFF54
:10586000F807E01FFFFFFFFFF807E01FFFFFFFFF44
:10587000F807E01FFFFFFFFFF807E01FFFFFFFFF34
:10588000F807E01FFFFFFFFFF807E01FFFFFFFFF24
:10589000F807E01FFFFFFFFFF807E01FFFFFFFFF14
:1058A000F807E01FFFFFFFFFF807E03FFFFFFFFFE4
:1058B000FC07E060001FF8000607E0C0000FF000E2
:1058C0000307E1800007E0000187F3000003C00048
:1058D00000CFFE0000018000007FFC00000180007E
:1058E000003FFC0000018000003FFE000003C000FC
:1058F000007FFFFFFFFFFFFFFFFF00000000000031
:10590000000000003FFC2108210821083FFC08009E
:105910000800090008C408020801FFFF0800080089
:105920000000014002400E40F3FE12441248000005
:105930000FE008400840FFFF084008400FE000006B
:105940000000008001027FC24A524A524A527BD272
:105950004412257E3512AD1267D22D123502250272
:10596000000004420CC23544C648044808483FFFC2
:105970002102210421007FF0410C43024101000774
:105980000000FFFFFFFFFFFFFFFFFFFFFFFFFFFF25
:10599000FFFFFFFFFFFFFFFFFFFFFFFFFFFFFFFF17
:1059A000FFFFFFFFFFFFFFFFFFFFFFFFFFFFFFFF07
:1059B000FFFFFFFFFFFFFFFFFFFFFFFFFFFFFFFFF7
:1059C000FFFFFFFFFFFFFFFFFFFFFFFFFFFFFFFFE7
:105DE000FFFFFFFFFFFFFFFFFE0000FFFFFFFFFFC2
:105DF000FFFFFFFFFFFFFFFFE000000FFFFFFFFFC0
:105E0000FFFFFFFFFFFFFFFF003FF801FFFFFFFF66
:105E1000FFFFFFFFFFFFFFF80FFFFFE03FFFFFFF68
:105E2000FFFFFFFFFFFFFFE07FFFFFFC0FFFFFFF14
:105E3000FFFFFFFFFFFFFF81FFFFFFFF83FFFFFF6C
:105E4000FFFFFFFFFFFFFF07FFE3C7FFE0FFFFFFCD
:105E5000FFFFFFFFFFFFFC3FF8DBB7FFF83FFFFF4F
:105E6000FFFFFFFFFFFFF07FA6DBB3EFFE1FFFFF8B
:105E7000FFFFFFFFFFFFE1FF37DBBAEE3F0FFFFF42
:105E8000FFFFFFFFFFFFC3FBB35DBBCDFFC3FFFF02
:105E9000FFFFFFFFFFFF0FDFBBCD3BDBBFE1FFFFDE
:105EA000FFFFFFFFFFFE1FB7D9C1339BBFF8FFFF06
:105EB000FFFFFFFFFFFC3FBE1DCD31333FFC7FFFE7
:105EC000FFFFFFFFFFF8FFBF5CED31177FFE3FFFD5
:105ED000FFFFFFFFFFF1F9DDCEEDB6667F1F0FFF7D
:105EE000FFFFFFFFFFE3FCCFCE6DB4EFFE7F87FF28
